:020000040800F2
:100000007007002031020008831B00085F1A0008F7
:10001000811B00081F060008B12100080000000035
:10002000000000000000000000000000871B000826
:10003000D106000800000000851B0008891B00088D
:100040004B0200084B0200084B0200084B0200085C
:100050004B0200084B0200084B0200084B0200084C
:100060004B0200084B0200084B0200084B0200083C
:100070004B0200084B0200084B0200084B0200082C
:10008000210600084B0200084B0200084B02000842
:100090004B0200084B0200084B0200084B0200080C
:1000A000311C00084B0200084B0200084B020008FC
:1000B0004B0200084B0200084B0200084B020008EC
:1000C0004B0200084B0200084B0200084B020008DC
:1000D0004B0200084B020008A52100084B02000853
:1000E0004B0200084B0200084B0200084B020008BC
:1000F0004B0200084B0200084B0200084B020008AC
:100100004B0200084B0200084B0200084B0200089B
:100110004B0200084B0200084B0200084B0200088B
:100120004B0200084B0200084B0200084B0200087B
:100130004B0200084B0200084B0200084B0200086B
:100140004B0200084B0200084B0200084B0200085B
:100150004B0200084B0200084B0200084B0200084B
:100160004B0200084B0200084B0200084B0200083B
:100170004B0200084B0200084B0200080000000080
:100180004B0200084B02000800F002F800F041F8B2
:100190000AA090E8000C82448344AAF10107DA45E2
:1001A00001D100F036F8AFF2090EBAE80F0013F0F3
:1001B000010F18BFFB1A43F0010318477C20000011
:1001C0009C200000103A24BF78C878C1FAD85207A2
:1001D00024BF30C830C144BF04680C6070470000C1
:1001E0000023002400250026103A28BF78C1FBD840
:1001F000520728BF30C148BF0B607047642900F028
:10020000F780002070471FB502F000F81FBD10B541
:1002100010BD00F0CAF91146FFF7F5FF01F0DAFF53
:1002200000F0E8F903B4FFF7F2FF03BC00F0F0F9C7
:100230000948804709480047FEE7FEE7FEE7FEE77A
:10024000FEE7FEE7FEE7FEE7FEE7FEE704480549B6
:10025000054A064B70470000211C00088901000870
:100260007001002070070020700300207003002040
:1002700053EA020C00F069802DE9F04B4FF00006C4
:10028000002B1FBFB3FA83F503FA05F424FA05F631
:100290005E4012BF1643B2FA82F502FA05F4C5F1C8
:1002A00020051EBF22FA05FC44EA0C04203556EA5C
:1002B000044C4FEA144418BF641C4FF000084FF080
:1002C0000009904271EB030C39D3002919BFB1FA30
:1002D00081F701FA07F6B0FA80F700FA07F6C7F1DE
:1002E00020071EBF20FA07FC46EA0C062037B6FBA3
:1002F000F4FCA7EB0507103F07F01F0BCBF120061E
:100300000CFA0BFB2CFA06F644BFB3460026202F4E
:10031000A4BF5E464FF0000B5BEA060C08BF4FF02F
:10032000010B19EB0B09ABFB027C48EB0608C01B69
:1003300006FB02CC0BFB03CC71EB0C01C1E70B46B7
:10034000024641464846BDE8F08B13B54FF0000029
:100350004FF00001AFF30080BDE81C407047000083
:100360000FB41CB5074B06AA7B446946009005985C
:1003700000F003F90020694600F012F91CBC5DF89A
:1003800014FB0000350200002DE9F0410E46044642
:10039000002020622046E168884730B3252805D038
:1003A000D4E901219047206A401CF2E7E168204629
:1003B00000278847050018D0A5F14100192802D868
:1003C00020354FF400673246294620462760FFF764
:1003D00015FF40B1012804D0F61D26F007060836A7
:1003E000D8E7361DD6E72846DAE7206ABDE8F0816F
:1003F0002DE9F0410646002410687529314616A5FE
:1004000010D0AFF30080002802DA404213A507E0C5
:1004100031688A0701D512A502E0490704D511A564
:10042000012401E0AFF3008000210A2206F1240735
:1004300009E0B0FBF2FCB0FBF2F302FB1C00303031
:1004400078541846491C0028F3D123462A463046E2
:10045000BDE8F04100F032B8000000002D000000BF
:100460002B000000200000004FF0000200B51346F2
:1004700094469646203922BFA0E80C50A0E80C50C4
:10048000B1F12001BFF4F7AF090728BFA0E80C5075
:1004900048BF0CC05DF804EB890028BF40F8042B6E
:1004A00008BF704748BF20F8022B11F0804F18BFDB
:1004B00000F8012B70477047704770472DE9F047EF
:1004C0000D4699469246044600F1240801688806C4
:1004D00004D5E06921F01001216000E00120A8426C
:1004E00001DD471B00E00027A1697A1902EB090032
:1004F000081AA0612078C00602D42046AFF300801D
:10050000002608E0D4E901211AF806009047206A85
:10051000401C761C20624E45F4DB2078C0060AD5CC
:100520002046AFF3008006E0D4E901213020904757
:10053000206A401C2062381EA7F10107F4DC07E0A6
:10054000D4E9012118F805009047206A401C206278
:10055000281EA5F10105F3DC2046AFF300802078CA
:10056000000602D50220BDE8F0870120FBE700006D
:1005700001694A1C02610878704700B58FB0CDE967
:1005800001310021059105497944CDE90310114657
:100590006846FFF7F9FE0FB000BD0000E5FFFFFF62
:1005A0000A6802F8010B0A607047754600F02CF8E3
:1005B000AE4605006946534620F00700854618B050
:1005C00020B5FFF743FEBDE820404FF000064FF096
:1005D00000074FF000084FF0000B21F00701AC4678
:1005E000ACE8C009ACE8C009ACE8C009ACE8C00997
:1005F0008D46704710B50446AFF300802046BDE835
:100600001040FFF70FBE00000048704710010020A7
:1006100001491820ABBEFEE7260002007047FEE746
:10062000014800F0B3B80000B000002001681823B2
:10063000CAB2103AB2FBF3F2054B6FF30901032A79
:100640009B5CC36500D9091D8165084670470000A1
:100650001622000810B5014600208B698A6A4FF007
:10066000C07453B1B3F5005F15D072B1012A0CD03C
:10067000022A0AD0032A09D104E01AB1012A06D0BD
:10068000022A03D1C96AC90100D5012010BDC96A77
:10069000A142FAD010BD002AF7D0012AF2D0022AD6
:1006A000F3D0032AF3D010BD30B50468256825F4D3
:1006B00080252560046863608368402B036803D04D
:1006C00099600068C26030BD9A600068C16030BD4A
:1006D000704772B6FEE72DE9F0410446876D00F0E1
:1006E000CDFA064694F835000025022806D0802071
:1006F000606584F834500120BDE8F081206801680D
:1007000021F0160101602068416921F080014161FA
:10071000206C08B9A06C20B12068016821F00801A4
:1007200001602068016821F0010101600CE000F027
:10073000A5FA801B052807D920206065032084F8CE
:10074000350084F83450D7E720680068C007EED140
:1007500094F85C103F208840B860012084F8350090
:1007600084F834500020C7E790F83510022903D0F0
:100770008021416501207047052180F8351000680F
:10078000016821F001010160002070472DE9F84364
:1007900004464FF00009CDF8009063484FF416511D
:1007A000A56D0068B0FBF1F72E6894F85C10082086
:1007B00000FA01F131420FD021680A6852070BD5C7
:1007C0000A6822F004020A6094F85C108840A8606D
:1007D000606D40F00100606594F85C104FF0010816
:1007E00008FA01F0304208D021684969090604D5A9
:1007F000A860606D40F00200606594F85C10042011
:100800008840304208D021680968890704D5A8606B
:10081000606D40F00400606594F85C101020884022
:10082000304218D021680968090714D5A8602068EB
:100830000168490304D50068000308D5A16C07E0EE
:100840000168C90503D4016821F008010160216C29
:1008500009B12046884794F85C1020208840304237
:1008600031D021680968C9062DD5A86094F83500F3
:1008700005282068016806D0490347D500680003B1
:100880001DD4616C1CE021F01601016020684169F3
:1008900021F080014161206C08B9A06C20B1206872
:1008A000016821F00801016094F85C103F20884045
:1008B000A86084F8358084F83490216D1FE0E16BE6
:1008C00009B120468847606D00282BD0606DC007B5
:1008D00014D0052084F835002068016821F001015A
:1008E00001600098401C0090B84203D8206800685E
:1008F000C007F6D184F8358084F83490E16C002983
:1009000010D001B02046BDE8F04308470168C90592
:10091000D5D4016821F01001016084F8358084F895
:100920003490CCE7BDE8F8831C0000202DE9F041AD
:10093000044600F0A3F906465CB1022084F83500B5
:10094000002584F834502068016821F0010101601D
:100950000DE00120BDE8F08100F090F9801B052832
:1009600005D920206065032084F83500F2E720686F
:100970000068C007F0D12268116820480140D4E91E
:1009800001031843D4E9033633431843636918431A
:10099000A3691843E3691843236A18430843616A4B
:1009A000042903D1D4E90B131943084310602068CC
:1009B0004069666A20F0070130460E43012704288B
:1009C0000CD1A06A0643E06A40B12046FFF742FE20
:1009D00020B14020606584F83570BAE72068466130
:1009E0002046FFF723FE94F85C203F219140816070
:1009F000656584F835700020ACE700003F8010F09A
:100A00002DE9F0410446866D90F834000025012858
:100A10000DD0012084F8340094F835700020012FA7
:100A200007D084F8340002252846BDE8F081022072
:100A3000FBE7022784F8357060652046FFF734FE37
:100A400094F85C103F208840B0602068016841F055
:100A500016010160206C20B12068016841F0080196
:100A600001602068016841F001010160DCE70000DD
:100A70002DE9F84FDFF8BCA10022012503264FF035
:100A80000F090AF1040BAAF1040E00BF0B6805FA66
:100A900002F42340A34270D10F7907F00307012F1E
:100AA00001D0022F16D187684FEA420806FA08FCE7
:100AB00027EA0C07D1F80CC00CFA08FC4CEA070C2A
:100AC000C0F808C04768A7430C79C4F300149440E9
:100AD0003C4344600C79E443A4070AD0C4684FEA5D
:100AE000420C06FA0CF7BC438F6807FA0CF7274351
:100AF000C7600C7904F00304022C12D1D40800EB77
:100B0000840CDCF820405707FF0E09FA07F824EAA6
:100B10000804D1F8108008FA07F848EA0408CCF86D
:100B2000208004684FEA420C06FA0CF7BC430F79A8
:100B300007F0030707FA0CF7274307604C6814F423
:100B4000403F70D03C4C276847F4804727602468BA
:100B500022F0030704F480440094384C07EB040CA3
:100B6000DCF8084897074FEA177809FA08F7BC43FA
:100B7000334FB84202D1002724E054E0314FB8424D
:100B800001D101271EE0304FB84201D1022719E000
:100B90002E4FB84201D1032714E02D4FB84201D1A6
:100BA00004270FE02B4FB84201D105270AE02A4F56
:100BB000B84201D1062705E0284FB84201D10727E6
:100BC00000E0082707FA08F72743CCF80878DAF896
:100BD00000405746D1F804C09C435FEACC2C00D5B6
:100BE0001C433C60DBF800405F46D1F804C09C43E6
:100BF0005FEA8C2C00D51C433C60DEF80040774651
:100C0000D1F804C09C435FEA8C3C00D51C433C6097
:100C1000084F083F3C68D1F804C09C435FEACC3CD5
:100C200000D51C433C60521C102AFFF42FAFBDE8D6
:100C3000F88F0000083C0140443802400030014079
:100C4000000002400004024000080240000C024084
:100C5000001002400014024000180240001C024034
:100C6000426921EA02030A4043EA02418161704776
:100C70000AB1816170470904FBE700000148806800
:100C8000704700001000002002488168027811447B
:100C900081607047100000200B4810B5016841F4D6
:100CA00000710160016841F480610160016841F4F4
:100CB00080710160032000F071F8002000F006F858
:100CC00000F024F8002010BD003C024070B50D4D2E
:100CD00004464FF47A712878B1FBF0F00A490968AC
:100CE000B1FBF0F000F00CFB48B9102C07D2002249
:100CF0002146501E00F032F800206C6070BD0120CB
:100D000070BD0000100000201C0000200B4882B0C5
:100D1000016841F480410160006800F48040009067
:100D20000648001F016841F080510160006800F032
:100D300080500090072002B000F030B844380240E4
:100D4000002809DB00F01F020121914040098000CA
:100D500000F1E020C0F8001170470000F0B40E4B25
:100D60001B680C46C3F30223C3F10705042D00D909
:100D70000425191D072901D2002300E0DB1E0126EE
:100D800006FA05F1491E214099409E40761E164004
:100D90003143F0BC01F00DBA0CED00E0064900F063
:100DA000070208684FF6FF03184040EA0220034A92
:100DB00010430860704700000CED00E00000FA05E9
:100DC0002DE9F0470E46050065D0DFF81481D8F80C
:100DD0000000F7B200F00700B04207D288F80070B8
:100DE000D8F8000000F00700B04254D128683D4C0C
:100DF000810712D5400703D5206840F4E0502060F9
:100E00002878000703D5206840F4604020602068FF
:100E1000A96820F0F000084320602878C0072DD092
:100E2000304968680839012812D0022813D00328F5
:100E300011D00968890700292DDA216821F0030102
:100E400001432160FFF71AFF814641F2883A0EE024
:100E500009688903EFE709688901ECE7FFF70EFFEE
:100E6000A0EB0901514502D90320BDE8F0872068B5
:100E7000696800F00C00B0EB810FEFD1D8F80010DA
:100E8000404601F00701B14207D90770006800F041
:100E90000700B04201D00120E7E72878400705D5D8
:100EA0002068E96820F4E0500843206028780007B3
:100EB00006D52068296920F4604040EAC10020601E
:100EC00000F038F82168084AC1F30311515CC840AA
:100ED0000649086006480068FFF7F8FE0020C4E7EE
:100EE000003C0240083802401E2200081C0000207E
:100EF000140000200448054900680968044AC1F349
:100F00008221515CC84070471C0000200838024014
:100F10002E2200080448054900680968044AC1F304
:100F20004231515CC84070471C0000200838024024
:100F30002E220008154810B5006810F00C02144865
:100F400013D04110042A0FD0082A0ED10F4C241FB1
:100F50002268236802F03F025B0207D52068C0F3D5
:100F60008810A0FB010106E0084610BD2168C1F30E
:100F70008811A1FB00010023FFF77AF92168C1F372
:100F80000141491C4900B0FBF1F010BD0838024096
:100F90000024F4002DE9F84F04006ED02078DFF82B
:100FA0004C93C007A9F104054AD009F10400016877
:100FB000C1F38101012908D00068C0F38100022833
:100FC0000AD1D9F80000400206D52868800337D539
:100FD00060680028E1D033E06068B0F5803F10D051
:100FE000B0F5A02F286810D020F480302860286841
:100FF00020F4802028606068A8B1FFF73FFE064615
:101000000DE0286840F48030F4E740F48020286048
:10101000F7E700BFFFF732FE801B642873D828680B
:101020008003F7D50CE0FFF729FE064605E000BF78
:10103000FFF724FE801B6428F0D828688003F7D4CB
:101040002078DFF8AC8280074FF0000A3ED5A74831
:10105000001D016811F00C0F08D00068C0F381007A
:1010600002280BD1D9F80000400207D42868800775
:1010700016D5E068012800D112E033E1E068B8B18C
:101080000120C8F80000FFF7F9FD064605E000BFA3
:10109000FFF7F4FD801B0228C0D828688007F7D529
:1010A0002868216920F0F80040EAC10028600DE0BE
:1010B000C8F800A0FFF7E2FD064604E0FFF7DEFDFA
:1010C000801B02281FD828688007F7D420780007E3
:1010D00022D5864F87486169703771B1012101605F
:1010E000FFF7CCFD064604E0FFF7C8FD801B022891
:1010F00009D838688007F7D50EE0C0F800A0FFF7E0
:10110000BDFD064605E082E0FFF7B8FD801B022822
:101110007DD838688007F7D42078400768D5DFF895
:10112000CCB100270BF13C0BDBF80000C0000BD466
:10113000DBF8001041F08051CBF80010DBF8000024
:10114000012700F0805000906B4E3068C00510D42D
:10115000306840F480703060FFF790FD009005E04B
:10116000FFF78CFD0099401A022850D83068C0055E
:10117000F6D55E4EA0686C3601280FD00528306881
:1011800010D020F001003060306820F004003060A2
:10119000A068B8B1FFF772FD00900FE0306840F032
:1011A0000100F4E740F004003060F7E7FFF766FD68
:1011B0000099411A41F28830814266D83068800730
:1011C000F4D50EE0FFF75AFD009007E0FFF756FD5B
:1011D0000099411A41F28830814256D83068800720
:1011E000F4D42FB1DBF8001021F08051CBF80010BF
:1011F000A069C8B33D49091D0968C1F381010229ED
:101200004AD00228504607D0C8F8600000E03CE011
:10121000FFF734FD04463BE04746C8F86000FFF79F
:101220002DFD064605E000BFFFF728FD801B0228C4
:101230002BD828688001F7D4D4E907010843A16AB4
:101240002E4A490802EB0141626A41EA82110843D1
:1012500094F82C1040EA0161C9F8001001203866AA
:10126000FFF70CFD044606E03EE000BFFFF706FD79
:10127000001B022809D828688001F7D534E000BF98
:10128000FFF7FCFC001B022802D90320BDE8F88F01
:1012900028688001F4D427E00128F7D0D9F80000AD
:1012A000E26900F4800191421CD1226A00F03F0102
:1012B000914217D147F6C071626A0140B1EB821FBB
:1012C00010D1A26A4FF0FF3300F4403103EB520219
:1012D000B1EB024F06D194F82C1000F07060B0EB27
:1012E000016F01D00120D1E70020CFE70438024090
:1012F00000004742800E4742007000400000FFFFA0
:1013000010B5401EB0F1807F01D3012010BD4FF019
:10131000E02460610F21601700F04BFF0020A06106
:1013200007202061002010BD7047704710B50400F1
:1013300003D094F83D0010B107E0012010BD00205B
:1013400084F83C00204600F01FF8022084F83D009D
:10135000211D206800F0A2FC012084F8460084F8DA
:101360003E0084F83F0084F8400084F8410084F88F
:10137000420084F8430084F8440084F8450084F86F
:101380003D00002010BD000008B500680B498842F0
:1013900012D10B48016841F48031016000680022DD
:1013A00000F48030009011461820FFF7D7FCBDE80C
:1013B00008401820FFF7C4BC08BD000000400140F1
:1013C0004438024090F83D10012901D001207047B7
:1013D000022180F83D100168CA6842F00102CA602B
:1013E00000681149884214D0B0F1804F11D00F49E4
:1013F00088420ED00E4988420BD00E49884208D050
:101400000D49884205D00D49884202D00C498842D6
:1014100004D1816801F00701062903D0016841F079
:1014200001010160002070470000014000040040FD
:1014300000080040000C0040000401400040014052
:101440000018004070B5044690F83C0000250128C3
:1014500017D0012684F83C60022084F83D00206803
:10146000826822F0770222F47F4282600868502866
:1014700038D00DDC20284FD005DC90B3102811D1D6
:101480004AE0022070BD302846D040280AD13BE017
:1014900060282FD070280DD0B0F5805F03D0B0F554
:1014A000005F12D0012584F83D60002084F83C00E4
:1014B000284670BDCB68D1E90121206800F05AFCB4
:1014C0002068816841F0770109E0CB68D1E901210A
:1014D000206800F04FFC2068816841F48041816001
:1014E000E1E719E0CA684968206800F055FC50211E
:1014F000206806E0CA684968206800F05EFC602148
:10150000206800F041FCCEE7CA684968206800F016
:1015100043FC40212068F4E7226801461046F0E7CA
:1015200070472DE9F04104460068C66805694FF030
:101530000007A90713D5B10711D5F91E01610120D4
:101540002077206880698007204602D0FFF7E8FFF7
:1015500004E000F07EF8204600F07CF8277768076A
:1015600016D5700714D521686FF0040008610220B9
:1015700020772068806910F4407F204602D0FFF772
:10158000CFFF04E000F065F8204600F063F827770D
:10159000280715D5300713D521686FF008000861BA
:1015A000042020772068C0698007204602D0FFF71A
:1015B000B7FF04E000F04DF8204600F04BF8277725
:1015C000E80616D5F00614D521686FF01000086102
:1015D000082020772068C06910F4407F204602D0A0
:1015E000FFF79EFF04E000F034F8204600F032F8E8
:1015F0002777E80708D0F00706D021686FF00100D0
:101600000861204600F027F8280608D5300606D5E0
:1016100021686FF0800008612046FFF785FE6806AC
:1016200008D5700606D521686FF040000861204695
:1016300000F012F8A8060AD5B00608D521686FF0A8
:10164000200008612046BDE8F041FFF76EBEBDE80E
:10165000F0817047704770477047704770470000CF
:10166000F8B5016804460868CA684B6910F00F0FA6
:101670004FF0000559D003F0010602F4907737438C
:1016800065D0C10705D0D10503D5616C41F00101DA
:101690006164410705D5D90703D0616C41F00201AF
:1016A0006164810705D5D90703D0616C41F004015D
:1016B0006164010707D502F02001314303D0616C5A
:1016C00041F008016164616C00293AD0800604D5BC
:1016D000900602D5204600F036FC20684069616C17
:1016E000C0F38010090700D460B3204600F0F6FB79
:1016F00020684069400621D52068143050E8001F5A
:1017000021F0400140E80012002AF5D1E06BA8B1B9
:101710006E490165E06BFFF727F8002811D0E06BF8
:10172000016D01B0BDE8F040084783060FD5930670
:101730000DD52046BDE8F84000F005BC2046FFF777
:101740008DFFF8BD2046FFF789FF6564F8BD266B65
:101750002023012E7DD1C6067BD5D60679D5086813
:101760004868009048694FF00206400641D5E16B99
:10177000086840680004000CE8D0A28D8242E5D9D8
:10178000E085C869B0F5807F2DD020680C3050E826
:10179000001F21F4807140E80012002AF5D1206872
:1017A000143050E8001F21F0010140E80012002A27
:1017B000F5D12068143050E8001F21F0400140E8C6
:1017C0000012002AF5D184F84230256320680C30DD
:1017D00050E8001F21F0100140E80012002AF5D166
:1017E000E06BFEF778FF6663A08DE18D401A81B251
:1017F0002AE0A08DE18D401A81B2E08D0028A5D0AD
:101800000029A3D022680C3252E8000F20F4907017
:1018100042E80007002FF5D12068143050E8002F6F
:1018200022F0010240E80027002FF5D184F8423071
:10183000256320680C3050E8002F22F0100240E8A9
:101840000023002BF5D166632046FFF706FFF8BDA5
:10185000FFE705062BD5150629D594F84100212868
:10186000F5D1A068B0F5805F01D12069B0B1206AE0
:10187000411C2162216800784860E08C401E000411
:10188000000CE084E3D12068C16821F08001C160D0
:101890002068C16841F04001C160D8E7206A008833
:1018A000C0F308004860206A801C2062E5E740061B
:1018B000CDD55006CBD5CA68204622F04002CA607A
:1018C00084F8413000F0CAF8C1E70000DF1D0008CD
:1018D00070B5040004D094F84100002510B106E072
:1018E000012070BD84F84050204600F023F82420E9
:1018F00084F841002068C16821F40051C16020468D
:1019000000F082FB2068016921F4904101612068A8
:10191000416921F02A0141612068C16841F4005108
:10192000C1606564202084F8410084F8420065634A
:10193000002070BD70B586B0064614216846FEF7DB
:1019400093FD2349306888423FD122480025016831
:1019500041F400310160006800F4003005901D483A
:101960001038016841F0010101600068694600F02B
:10197000010005900C2000900220CDE90105032014
:101980000390072004901448FFF772F8144C134892
:1019900020604FF00060C4E901054014C4E9035021
:1019A0006561A561E561256220466562FEF7BEFFBF
:1019B00008B1FEF78EFEF463002211462620A663CE
:1019C000FFF7CCF92620FFF7BBF906B070BD000089
:1019D000004400404038024000000240886002405D
:1019E000B000002090F84230202B01D00220704738
:1019F00021B11AB10023036300F08CBB01207047B2
:101A0000074908480A78302A06D04978402906D183
:101A100001220902FFF72CB901221103FAE77047EE
:101A200000000020000C0240704790F84130202B4D
:101A300001D00220704779B172B101628284C28400
:101A400000214164212180F841100068C16841F003
:101A50008001C16000207047012070477047FEE799
:101A6000094808B5016841F40011016000680022CE
:101A700000F40010009011461020FFF76FF9BDE848
:101A800008401020FFF75CB93038024070B586B0CE
:101A900014216846FEF7E8FC16480024016841F06E
:101AA00080010160016801F080010591016841F049
:101AB00001010160016801F001010591016841F037
:101AC0000801016000680C4E00F008004FF47045FA
:101AD0000590002229463046FFF7CAF801200095FC
:101AE000CDE90104694630460394FEF7C1FF06B014
:101AF00070BD000030380240000C02401FB50021CC
:101B000010480091019102910D4A03910260A722B1
:101B1000C0E9012142F20F72C0E903218161FFF7A0
:101B200005FC08B1FEF7D5FD4FF4805000906946E2
:101B30000448FFF787FC002801D0FEF7CAFD1FBD4F
:101B400000400140200000200C4810B50A49016007
:101B50004FF416514160002181600C22C160C0E940
:101B600004128161C161FFF7B3FE002803D0BDE814
:101B70001040FEF7AEBD10BD0044004068000020DC
:101B8000FEE7FEE770477047FFF77EB830B593B0C9
:101B900030216846FEF768FC14210CA8FEF764FCAF
:101BA0001D480025016841F080510160006800F087
:101BB000805011901948016841F48041016000682B
:101BC000022400F480401190012003901020049022
:101BD000009406940820CDE90750A820CDE9090417
:101BE00007200B906846FFF7D5F908B172B6FEE7FB
:101BF0000CA90F2081E831004FF4A0500F904FF452
:101C00008050109005210CA8FFF7DAF8002801D0C9
:101C100072B6FEE713B030BD40380240007000409D
:101C20000248016841F470010160704788ED00E0EE
:101C300000B510489DB00069C00715D00E48D0E926
:101C4000011283788DE80E00437802780BA103A877
:101C5000FEF786FB642203A90D48FFF7E6FE4FF46A
:101C600070410C48FEF7FCFF1DB00B485DF804EB1B
:101C7000FFF757BC004001400400002025642025E8
:101C800064202564202564202564200D0A000000BE
:101C900068000020000C024020000020F0B502681F
:101CA000294C2A4D2A4E2B4F2B4B4FF0804CA042F3
:101CB00009D0604507D0A84205D0B04203D0B84251
:101CC00001D0984204D122F0700E4A6842EA0E0216
:101CD000A0421BD0604519D0A84217D0B04215D001
:101CE000B84213D0984211D01C4DA8420ED01C4DC2
:101CF000A8420BD01B4DA84208D01B4DA84205D0CE
:101D00001A4DA84202D01A4DA84203D122F44075C0
:101D1000CA682A434D6922F080022A4302608A6819
:101D2000C2620A688262A04201D0984201D1096968
:101D30000163012141610169C90703D0016921F0F3
:101D400001010161F0BD00000000014000040040FD
:101D500000080040000C0040000401400040014029
:101D6000004401400048014000180040001C0040B1
:101D70000020004010B5846842EA032224F47F4426
:101D80000A432243826010BD826822F070020A4337
:101D900042F007018160704710B5036A046A24F0BD
:101DA00001040462846924F0F00444EA021423F07C
:101DB0000A020A438461026210BD10B5036A046A14
:101DC00024F010040462846923F0A00324F4704416
:101DD00044EA023243EA01118261016210BD10B58A
:101DE000806B0021C185C184FFF738FC10BD70B540
:101DF000846B2068406994F84110C0F3C01000253E
:101E0000212904D118B1E584204600F08EF820681D
:101E1000406994F84210C0F38010222904D118B10F
:101E2000E585204600F05AF8606C40F010006064D0
:101E30002046FFF713FC70BD10B50146806B0968A2
:101E400009684FF00002C9052ED4C28501680C3123
:101E500051E8003F23F4807341E80034002CF5D1B1
:101E60000168143151E8003F23F0010341E80034D8
:101E7000002CF5D10168143151E8003F23F04003F4
:101E800041E80034002CF5D1202180F84210016B8C
:101E9000012909D101680C3151E8003F23F01003FA
:101EA00041E80034002CF5D14263016B012902D0D6
:101EB000FFF7A6FD10BD818DFFF7CFFB10BD10B55C
:101EC000806B01214163016B012902D0FFF7ACFD5A
:101ED00010BD818D4908FFF7C0FB10BD01680C31B2
:101EE00051E8002F22F4907241E80023002BF5D135
:101EF0000168143151E8002F22F0010241E800236B
:101F0000002BF5D1016B012909D101680C3151E891
:101F1000002F22F0100241E80023002BF5D12021F0
:101F200080F8421000210163704701680C3151E8CC
:101F3000002F22F0C00241E80023002BF5D1202120
:101F400080F84110704708B590F84210222901D05E
:101F5000022008BD82684FF480539A4201D1016982
:101F600021B1816A9A421BD04AB10AE00268816AB3
:101F70005268C2F308020A80816A891C08E002697B
:101F800072B10268526802F07F020A70816A491CCD
:101F90008162C18D491E0904090CC18503D01BE073
:101FA00002685268F1E70168CA6822F02002CA603C
:101FB0000168CA6822F48072CA6001684A6922F026
:101FC00001024A61202180F8421000214163026B26
:101FD000012A03D0FFF714FD002008BD016301684A
:101FE0000C3151E8002F22F0100241E80023002BB1
:101FF000F5D101680A68D20602D50A6849680091DD
:10200000818DFFF72AFBE7E770B504460068016998
:10201000E26821F44051114301612169A068E2693D
:1020200008436169114308432168CA6849F20C6397
:102030009A430243CA6020684169A26921F4407151
:102040001143416131492068884202D030498842B9
:1020500002D1FEF75FFF01E0FEF74CFFE2690023CB
:10206000192164253226B2F5004F626828D0A0FB02
:102070000101930F9200FEF7FBF80146B0FBF5F06B
:102080006FF01802504301EB800006EB0010B0FB2C
:10209000F5F000F0F002B1FBF5F002EB0012B1FB3D
:1020A000F5F06FF01803584301EB800006EB0010C9
:1020B000B0FBF5F000F00F0021681044886070BD9F
:1020C000A0FB010192185B41FEF7D2F80146B0FB7C
:1020D000F5F00201B1FBF5F06FF01803584301EB86
:1020E000800006EBC000B0FBF5F000F0F80002EB5A
:1020F0004002B1FBF5F0584301EB800006EBC00055
:10210000B0FBF5F000F00700D6E70000001001403A
:102110000014014038B581620446828500201346D0
:102120006064222284F84220E56B1B4AEA63E56B77
:102130001A4A2A64E56B1A4AEA64E26B10650A4699
:102140002168E06B091DFEF75BFC206801684068B0
:102150000090206948B120680C3050E8001F41F41D
:10216000807140E80012002AF5D12068143050E850
:10217000001F41F0010140E80012002AF5D120685B
:10218000143050E8001F41F0400140E80012002ADE
:10219000F5D1002038BD0000391E0008BF1E000820
:1021A000EF1D00080148FFF75BBA0000680000203F
:1021B000FEE70907090E002804DB00F1E02080F8A3
:1021C0000014704700F00F0000F1E02080F8141DAB
:1021D00070470000FEF760FDFFF7D8FCFFF756FCE4
:1021E000FFF73EFCFFF7B0FCFFF788FC0122044933
:1021F0000448FFF7F7FB0448FFF7E4F8FEE70000A8
:102200000000002068000020200000204FF04070F7
:10221000E1EE100A704700061016000610160000C6
:102220000000000000000102030406070809000086
:1022300000000102030400005822000800000020F2
:1022400020000000C40100087822000820000020BF
:1022500050070000E00100080000000028320C00D8
:10226000F29D00003C005C00010000001000000036
:08227000000000000024F4004E
:040000050800018965
:00000001FF
