:020000040800F2
:100000007807002029020008BB190008971800088B
:10001000B91900081F0400080920000800000000AA
:10002000000000000000000000000000BF190008F0
:10003000D104000800000000BD190008C119000823
:10004000430200084302000843020008430200087C
:10005000430200084302000843020008430200086C
:10006000430200084302000843020008430200085C
:10007000430200084302000843020008430200084C
:10008000210400084302000843020008430200085C
:10009000430200084302000843020008430200082C
:1000A0006D1A0008430200084302000843020008DA
:1000B000430200084302000843020008430200080C
:1000C00043020008430200084302000843020008FC
:1000D0004302000843020008FD1F00084302000815
:1000E00043020008430200084302000843020008DC
:1000F00043020008430200084302000843020008CC
:1001000043020008430200084302000843020008BB
:1001100043020008430200084302000843020008AB
:10012000430200084302000843020008430200089B
:10013000430200084302000843020008430200088B
:10014000430200084302000843020008430200087B
:10015000430200084302000843020008430200086B
:10016000430200084302000843020008430200085B
:100170004302000843020008430200080000000098
:10018000430200084302000800F002F800F03CF8C7
:100190000AA090E8000C82448344AAF10107DA45E2
:1001A00001D100F031F8AFF2090EBAE80F0013F0F8
:1001B000010F18BFFB1A43F001031847141F00007A
:1001C000341F0000103A24BF78C878C1FAD852070B
:1001D00024BF30C830C144BF04680C6070470000C1
:1001E0000023002400250026103A28BF78C1FBD840
:1001F000520728BF30C148BF0B6070471FB501F0E0
:1002000051FF1FBD10B510BD00F0CFF81146FFF72C
:10021000F5FF01F00BFF00F0EDF803B4FFF7F2FF7C
:1002200003BC00F0F5F80000094880470948004782
:10023000FEE7FEE7FEE7FEE7FEE7FEE7FEE7FEE796
:10024000FEE7FEE704480549054A064B70470000F3
:100250005D1A000889010008780100207807002055
:10026000780300207803002053EA020C00F0698034
:100270002DE9F04B4FF00006002B1FBFB3FA83F5BA
:1002800003FA05F424FA05F65E4012BF1643B2FAEB
:1002900082F502FA05F4C5F120051EBF22FA05FC1D
:1002A00044EA0C04203556EA044C4FEA144418BFC3
:1002B000641C4FF000084FF00009904271EB030CF2
:1002C00039D3002919BFB1FA81F701FA07F6B0FA5C
:1002D00080F700FA07F6C7F120071EBF20FA07FCD7
:1002E00046EA0C062037B6FBF4FCA7EB0507103FE7
:1002F00007F01F0BCBF120060CFA0BFB2CFA06F6CD
:1003000044BFB3460026202FA4BF5E464FF0000B2B
:100310005BEA060C08BF4FF0010B19EB0B09ABFBB6
:10032000027C48EB0608C01B06FB02CC0BFB03CC8F
:1003300071EB0C01C1E70B46024641464846BDE859
:10034000F08B13B54FF000004FF00001AFF30080C9
:10035000BDE81C4070474FF0000200B513469446BC
:100360009646203922BFA0E80C50A0E80C50B1F10D
:100370002001BFF4F7AF090728BFA0E80C5048BF21
:100380000CC05DF804EB890028BF40F8042B08BFBF
:10039000704748BF20F8022B11F0804F18BF00F8BB
:1003A000012B7047704770477047754600F02CF876
:1003B000AE4605006946534620F00700854618B052
:1003C00020B5FFF73FFFBDE820404FF000064FF09B
:1003D00000074FF000084FF0000B21F00701AC467A
:1003E000ACE8C009ACE8C009ACE8C009ACE8C00999
:1003F0008D46704710B50446AFF300802046BDE837
:100400001040FFF70ABF00000048704714010020A9
:1004100001491820ABBEFEE7260002007047FEE748
:10042000014800F0B3B80000B400002001681823B0
:10043000CAB2103AB2FBF3F2054B6FF30901032A7B
:100440009B5CC36500D9091D8165084670470000A3
:10045000AE20000810B5014600208B698A6A4FF073
:10046000C07453B1B3F5005F15D072B1012A0CD03E
:10047000022A0AD0032A09D104E01AB1012A06D0BF
:10048000022A03D1C96AC90100D5012010BDC96A79
:10049000A142FAD010BD002AF7D0012AF2D0022AD8
:1004A000F3D0032AF3D010BD30B50468256825F4D5
:1004B00080252560046863608368402B036803D04F
:1004C00099600068C26030BD9A600068C16030BD4C
:1004D000704772B6FEE72DE9F0410446876D00F0E3
:1004E000C5FA064694F835000025022806D080207B
:1004F000606584F834500120BDE8F081206801680F
:1005000021F0160101602068416921F080014161FC
:10051000206C08B9A06C20B12068016821F00801A6
:1005200001602068016821F0010101600CE000F029
:100530009DFA801B052807D920206065032084F8D8
:10054000350084F83450D7E720680068C007EED142
:1005500094F85C103F208840B860012084F8350092
:1005600084F834500020C7E790F83510022903D0F2
:100570008021416501207047052180F83510006811
:10058000016821F001010160002070472DE9F84366
:1005900004464FF00009CDF8009063484FF416511F
:1005A000A56D0068B0FBF1F72E6894F85C10082088
:1005B00000FA01F131420FD021680A6852070BD5C9
:1005C0000A6822F004020A6094F85C108840A8606F
:1005D000606D40F00100606594F85C104FF0010818
:1005E00008FA01F0304208D021684969090604D5AB
:1005F000A860606D40F00200606594F85C10042013
:100600008840304208D021680968890704D5A8606D
:10061000606D40F00400606594F85C101020884024
:10062000304218D021680968090714D5A8602068ED
:100630000168490304D50068000308D5A16C07E0F0
:100640000168C90503D4016821F008010160216C2B
:1006500009B12046884794F85C1020208840304239
:1006600031D021680968C9062DD5A86094F83500F5
:1006700005282068016806D0490347D500680003B3
:100680001DD4616C1CE021F01601016020684169F5
:1006900021F080014161206C08B9A06C20B1206874
:1006A000016821F00801016094F85C103F20884047
:1006B000A86084F8358084F83490216D1FE0E16BE8
:1006C00009B120468847606D00282BD0606DC007B7
:1006D00014D0052084F835002068016821F001015C
:1006E00001600098401C0090B84203D82068006860
:1006F000C007F6D184F8358084F83490E16C002985
:1007000010D001B02046BDE8F04308470168C90594
:10071000D5D4016821F01001016084F8358084F897
:100720003490CCE7BDE8F8830C0000202DE9F041BF
:10073000044600F09BF906465CB1022084F83500BF
:10074000002584F834502068016821F0010101601F
:100750000DE00120BDE8F08100F088F9801B05283C
:1007600005D920206065032084F83500F2E7206871
:100770000068C007F0D12268116820480140D4E920
:1007800001031843D4E9033633431843636918431C
:10079000A3691843E3691843236A18430843616A4D
:1007A000042903D1D4E90B131943084310602068CE
:1007B0004069666A20F0070130460E43012704288D
:1007C0000CD1A06A0643E06A40B12046FFF742FE22
:1007D00020B14020606584F83570BAE72068466132
:1007E0002046FFF723FE94F85C203F219140816072
:1007F000656584F835700020ACE700003F8010F09C
:100800002DE9F0410446866D90F83400002501285A
:100810000DD0012084F8340094F835700020012FA9
:1008200007D084F8340002252846BDE8F081022074
:10083000FBE7022784F8357060652046FFF734FE39
:1008400094F85C103F208840B0602068016841F057
:1008500016010160206C20B12068016841F0080198
:1008600001602068016841F001010160DCE70000DF
:100870002DE9F84FDFF8BCA10022012503264FF037
:100880000F090AF1040BAAF1040E00BF0B6805FA68
:1008900002F42340A34270D10F7907F00307012F20
:1008A00001D0022F16D187684FEA420806FA08FCE9
:1008B00027EA0C07D1F80CC00CFA08FC4CEA070C2C
:1008C000C0F808C04768A7430C79C4F300149440EB
:1008D0003C4344600C79E443A4070AD0C4684FEA5F
:1008E000420C06FA0CF7BC438F6807FA0CF7274353
:1008F000C7600C7904F00304022C12D1D40800EB79
:10090000840CDCF820405707FF0E09FA07F824EAA8
:100910000804D1F8108008FA07F848EA0408CCF86F
:10092000208004684FEA420C06FA0CF7BC430F79AA
:1009300007F0030707FA0CF7274307604C6814F425
:10094000403F70D03C4C276847F4804727602468BC
:1009500022F0030704F480440094384C07EB040CA5
:10096000DCF8084897074FEA177809FA08F7BC43FC
:10097000334FB84202D1002724E054E0314FB8424F
:1009800001D101271EE0304FB84201D1022719E002
:100990002E4FB84201D1032714E02D4FB84201D1A8
:1009A00004270FE02B4FB84201D105270AE02A4F58
:1009B000B84201D1062705E0284FB84201D10727E8
:1009C00000E0082707FA08F72743CCF80878DAF898
:1009D00000405746D1F804C09C435FEACC2C00D5B8
:1009E0001C433C60DBF800405F46D1F804C09C43E8
:1009F0005FEA8C2C00D51C433C60DEF80040774653
:100A0000D1F804C09C435FEA8C3C00D51C433C6099
:100A1000084F083F3C68D1F804C09C435FEACC3CD7
:100A200000D51C433C60521C102AFFF42FAFBDE8D8
:100A3000F88F0000083C014044380240003001407B
:100A4000000002400004024000080240000C024086
:100A5000001002400014024000180240001C024036
:100A60000AB1816170470904FBE700000148806812
:100A7000704700000000002002488168027811449D
:100A800081607047000000200B4810B5016841F4F8
:100A900000710160016841F480610160016841F406
:100AA00080710160032000F071F8002000F006F86A
:100AB00000F024F8002010BD003C024070B50D4D40
:100AC00004464FF47A712878B1FBF0F00A490968BE
:100AD000B1FBF0F000F00CFB48B9102C07D200225B
:100AE0002146501E00F032F800206C6070BD0120DD
:100AF00070BD0000000000200C0000200B4882B0F8
:100B0000016841F480410160006800F48040009079
:100B10000648001F016841F080510160006800F044
:100B200080500090072002B000F030B844380240F6
:100B3000002809DB00F01F020121914040098000DC
:100B400000F1E020C0F8001170470000F0B40E4B37
:100B50001B680C46C3F30223C3F10705042D00D91B
:100B60000425191D072901D2002300E0DB1E012600
:100B700006FA05F1491E214099409E40761E164016
:100B80003143F0BC01F041BA0CED00E0064900F041
:100B9000070208684FF6FF03184040EA0220034AA4
:100BA00010430860704700000CED00E00000FA05FB
:100BB0002DE9F0470E46050065D0DFF81481D8F81E
:100BC0000000F7B200F00700B04207D288F80070CA
:100BD000D8F8000000F00700B04254D128683D4C1E
:100BE000810712D5400703D5206840F4E05020600B
:100BF0002878000703D5206840F460402060206812
:100C0000A96820F0F000084320602878C0072DD0A4
:100C1000304968680839012812D0022813D0032807
:100C200011D00968890700292DDA216821F0030114
:100C300001432160FFF71AFF814641F2883A0EE036
:100C400009688903EFE709688901ECE7FFF70EFF00
:100C5000A0EB0901514502D90320BDE8F0872068C7
:100C6000696800F00C00B0EB810FEFD1D8F80010EC
:100C7000404601F00701B14207D90770006800F053
:100C80000700B04201D00120E7E72878400705D5EA
:100C90002068E96820F4E0500843206028780007C5
:100CA00006D52068296920F4604040EAC100206030
:100CB00000F038F82168084AC1F30311515CC840BC
:100CC0000649086006480068FFF7F8FE0020C4E700
:100CD000003C024008380240B62000080C0000200A
:100CE000040000200448054900680968044AC1F36B
:100CF0008221515CC84070470C0000200838024037
:100D0000C62000080448054900680968044AC1F380
:100D10004231515CC84070470C0000200838024046
:100D2000C6200008154810B5006810F00C021448E1
:100D300013D04110042A0FD0082A0ED10F4C241FC3
:100D40002268236802F03F025B0207D52068C0F3E7
:100D50008810A0FB010106E0084610BD2168C1F320
:100D60008811A1FB00010023FFF77EFA2168C1F37F
:100D70000141491C4900B0FBF1F010BD08380240A8
:100D80000024F4002DE9F84F04006ED02078DFF83D
:100D90004C93C007A9F104054AD009F10400016889
:100DA000C1F38101012908D00068C0F38100022845
:100DB0000AD1D9F80000400206D52868800337D54B
:100DC00060680028E1D033E06068B0F5803F10D063
:100DD000B0F5A02F286810D020F480302860286853
:100DE00020F4802028606068A8B1FFF73FFE064627
:100DF0000DE0286840F48030F4E740F4802028605B
:100E0000F7E700BFFFF732FE801B642873D828681D
:100E10008003F7D50CE0FFF729FE064605E000BF8A
:100E2000FFF724FE801B6428F0D828688003F7D4DD
:100E30002078DFF8AC8280074FF0000A3ED5A74843
:100E4000001D016811F00C0F08D00068C0F381008C
:100E500002280BD1D9F80000400207D42868800787
:100E600016D5E068012800D112E033E1E068B8B19E
:100E70000120C8F80000FFF7F9FD064605E000BFB5
:100E8000FFF7F4FD801B0228C0D828688007F7D53B
:100E90002868216920F0F80040EAC10028600DE0D0
:100EA000C8F800A0FFF7E2FD064604E0FFF7DEFD0C
:100EB000801B02281FD828688007F7D420780007F5
:100EC00022D5864F87486169703771B10121016071
:100ED000FFF7CCFD064604E0FFF7C8FD801B0228A3
:100EE00009D838688007F7D50EE0C0F800A0FFF7F2
:100EF000BDFD064605E082E0FFF7B8FD801B022835
:100F00007DD838688007F7D42078400768D5DFF8A7
:100F1000CCB100270BF13C0BDBF80000C0000BD478
:100F2000DBF8001041F08051CBF80010DBF8000036
:100F3000012700F0805000906B4E3068C00510D43F
:100F4000306840F480703060FFF790FD009005E05D
:100F5000FFF78CFD0099401A022850D83068C00570
:100F6000F6D55E4EA0686C3601280FD00528306893
:100F700010D020F001003060306820F004003060B4
:100F8000A068B8B1FFF772FD00900FE0306840F044
:100F90000100F4E740F004003060F7E7FFF766FD7A
:100FA0000099411A41F28830814266D83068800742
:100FB000F4D50EE0FFF75AFD009007E0FFF756FD6D
:100FC0000099411A41F28830814256D83068800732
:100FD000F4D42FB1DBF8001021F08051CBF80010D1
:100FE000A069C8B33D49091D0968C1F381010229FF
:100FF0004AD00228504607D0C8F8600000E03CE024
:10100000FFF734FD04463BE04746C8F86000FFF7B1
:101010002DFD064605E000BFFFF728FD801B0228D6
:101020002BD828688001F7D4D4E907010843A16AC6
:101030002E4A490802EB0141626A41EA82110843E3
:1010400094F82C1040EA0161C9F8001001203866BC
:10105000FFF70CFD044606E03EE000BFFFF706FD8B
:10106000001B022809D828688001F7D534E000BFAA
:10107000FFF7FCFC001B022802D90320BDE8F88F13
:1010800028688001F4D427E00128F7D0D9F80000BF
:10109000E26900F4800191421CD1226A00F03F0114
:1010A000914217D147F6C071626A0140B1EB821FCD
:1010B00010D1A26A4FF0FF3300F4403103EB52022B
:1010C000B1EB024F06D194F82C1000F07060B0EB39
:1010D000016F01D00120D1E70020CFE704380240A2
:1010E00000004742800E4742007000400000FFFFB2
:1010F00010B5401EB0F1807F01D3012010BD4FF02C
:10110000E02460610F21601700F07FFF0020A061E4
:1011100007202061002010BD7047704710B5040003
:1011200003D094F83D0010B107E0012010BD00206D
:1011300084F83C00204600F01FF8022084F83D00AF
:10114000211D206800F09CFC012084F8460084F8F2
:101150003E0084F83F0084F8400084F8410084F8A1
:10116000420084F8430084F8440084F8450084F881
:101170003D00002010BD000008B500680B49884202
:1011800012D10B48016841F48031016000680022EF
:1011900000F48030009011461820FFF7D7FCBDE81E
:1011A00008401820FFF7C4BC08BD00000040014003
:1011B0004438024090F83D10012901D001207047C9
:1011C000022180F83D100168CA6842F00102CA603D
:1011D00000681149884214D0B0F1804F11D00F49F6
:1011E00088420ED00E4988420BD00E49884208D062
:1011F0000D49884205D00D49884202D00C498842E9
:1012000004D1816801F00701062903D0016841F08B
:10121000010101600020704700000140000400400F
:1012200000080040000C0040000401400040014064
:101230000018004070B5044690F83C0000250128D5
:1012400017D0012684F83C60022084F83D00206815
:10125000826822F0770222F47F4282600868502878
:1012600038D00DDC20284FD005DC90B3102811D1E8
:101270004AE0022070BD302846D040280AD13BE029
:1012800060282FD070280DD0B0F5805F03D0B0F566
:10129000005F12D0012584F83D60002084F83C00F6
:1012A000284670BDCB68D1E90121206800F054FCCC
:1012B0002068816841F0770109E0CB68D1E901211C
:1012C000206800F049FC2068816841F48041816019
:1012D000E1E719E0CA684968206800F04FFC502136
:1012E000206806E0CA684968206800F058FC602160
:1012F000206800F03BFCCEE7CA684968206800F02F
:101300003DFC40212068F4E7226801461046F0E7E2
:1013100070472DE9F04104460068C66805694FF042
:101320000007A90713D5B10711D5F91E01610120E6
:101330002077206880698007204602D0FFF7E8FF09
:1013400004E000F07EF8204600F07CF8277768077C
:1013500016D5700714D521686FF0040008610220CB
:1013600020772068806910F4407F204602D0FFF784
:10137000CFFF04E000F065F8204600F063F827771F
:10138000280715D5300713D521686FF008000861CC
:10139000042020772068C0698007204602D0FFF72C
:1013A000B7FF04E000F04DF8204600F04BF8277737
:1013B000E80616D5F00614D521686FF01000086114
:1013C000082020772068C06910F4407F204602D0B2
:1013D000FFF79EFF04E000F034F8204600F032F8FA
:1013E0002777E80708D0F00706D021686FF00100E2
:1013F0000861204600F027F8280608D5300606D5F3
:1014000021686FF0800008612046FFF785FE6806BE
:1014100008D5700606D521686FF0400008612046A7
:1014200000F012F8A8060AD5B00608D521686FF0BA
:10143000200008612046BDE8F041FFF76EBEBDE820
:10144000F0817047704770477047704770470000E1
:10145000F8B5016804460868CA684B6910F00F0FB8
:101460004FF0000559D003F0010602F4907737439E
:1014700065D0C10705D0D10503D5616C41F00101EC
:101480006164410705D5D90703D0616C41F00201C1
:101490006164810705D5D90703D0616C41F004016F
:1014A0006164010707D502F02001314303D0616C6C
:1014B00041F008016164616C00293AD0800604D5CE
:1014C000900602D5204600F030FC20684069616C2F
:1014D000C0F38010090700D460B3204600F0F0FB91
:1014E00020684069400621D52068143050E8001F6C
:1014F00021F0400140E80012002AF5D1E06BA8B1CC
:101500006E490165E06BFFF72FF8002811D0E06B02
:10151000016D01B0BDE8F040084783060FD5930682
:101520000DD52046BDE8F84000F0FFBB2046FFF790
:101530008DFFF8BD2046FFF789FF6564F8BD266B77
:101540002023012E7DD1C6067BD5D60679D5086825
:101550004868009048694FF00206400641D5E16BAB
:10156000086840680004000CE8D0A28D8242E5D9EA
:10157000E085C869B0F5807F2DD020680C3050E838
:10158000001F21F4807140E80012002AF5D1206884
:10159000143050E8001F21F0010140E80012002A39
:1015A000F5D12068143050E8001F21F0400140E8D8
:1015B0000012002AF5D184F84230256320680C30EF
:1015C00050E8001F21F0100140E80012002AF5D178
:1015D000E06BFEF780FF6663A08DE18D401A81B25B
:1015E0002AE0A08DE18D401A81B2E08D0028A5D0BF
:1015F0000029A3D022680C3252E8000F20F490702A
:1016000042E80007002FF5D12068143050E8002F81
:1016100022F0010240E80027002FF5D184F8423083
:10162000256320680C3050E8002F22F0100240E8BB
:101630000023002BF5D166632046FFF706FFF8BDB7
:10164000FFE705062BD5150629D594F8410021287A
:10165000F5D1A068B0F5805F01D12069B0B1206AF2
:10166000411C2162216800784860E08C401E000423
:10167000000CE084E3D12068C16821F08001C160E2
:101680002068C16841F04001C160D8E7206A008845
:10169000C0F308004860206A801C2062E5E740062D
:1016A000CDD55006CBD5CA68204622F04002CA608C
:1016B00084F8413000F0EEF8C1E70000C31B0008D9
:1016C00070B5040004D094F84100002510B106E084
:1016D000012070BD84F84050204600F023F82420FB
:1016E00084F841002068C16821F40051C16020469F
:1016F00000F07CFB2068016921F4904101612068C1
:10170000416921F02A0141612068C16841F400511A
:10171000C1606564202084F8410084F8420065635C
:10172000002070BD70B586B0064614216846FEF7ED
:1017300012FE2349306888423FD1224800250168C3
:1017400041F400310160006800F4003005901D484C
:101750001038016841F0010101600068694600F03D
:10176000010005900C2000900220CDE90105032026
:101770000390072004901448FFF77AF8144C13489C
:1017800020604FF00060C4E901054014C4E9035033
:101790006561A561E561256220466562FEF7C6FFC9
:1017A00008B1FEF796FEF463002211462620A663D8
:1017B000FFF7CCF92620FFF7BBF906B070BD00009B
:1017C000004400404038024000000240886002406F
:1017D000B400002090F84230202B01D00220704746
:1017E00021B11AB10023036300F086BB01207047CA
:1017F000704770472DE9F843044690F84100984639
:1018000016460D46202802D00220BDE8F88385B197
:101810007EB100206064212084F84100FFF726F9A2
:10182000A6848146E684A0682027B0F5805F02D0B8
:1018300003E00120E9E7206910B12E4600250EE003
:1018400000260CE08021204600F09EFBA8B9C6B11E
:1018500016F8010B21684860E08C401EE084E08CA3
:101860004B464FF00002CDF800800028EAD14FF03F
:101870004001204600F088FB40B184F8417003200D
:10188000C3E735F8020BC0F30800E3E784F84170C2
:101890000020BAE77047FEE7094808B5016841F43F
:1018A000001101600068002200F400100090114651
:1018B0001020FFF74BF9BDE808401020FFF738B9BA
:1018C0003038024070B586B014216846FEF743FDFB
:1018D00016480024016841F080010160016801F0B0
:1018E00080010591016841F001010160016801F08A
:1018F00001010591016841F00801016000680C4E8A
:1019000000F008004FF4704505900022294630464B
:10191000FFF7A6F801200095CDE90104694630469D
:101920000394FEF7A5FF06B070BD000030380240FA
:10193000000C02401FB50021104800910191029156
:101940000D4A03910260A722C0E9012142F20F7201
:10195000C0E903218161FFF7E1FB08B1FEF7B9FDA2
:101960004FF48050009069460448FFF763FC00285C
:1019700001D0FEF7AEFD1FBD004001402400002055
:101980000C4810B50A4901604FF4E1314160002173
:1019900081600C22C160C0E904128161C161FFF75E
:1019A0008FFE002803D0BDE81040FEF792BD10BDA9
:1019B000004400406C000020FEE7FEE770477047DF
:1019C000FFF75AB830B593B030216846FEF7C3FC34
:1019D00014210CA8FEF7BFFC1E480025016841F049
:1019E00080510160006800F0805011901A48016831
:1019F00041F4804101600068022400F480401190AD
:101A000001200090000401908001CDE906400820EB
:101A100008904FF4A870CDE9090407200B906846A0
:101A2000FFF7B0F908B172B6FEE70CA90F2081E804
:101A300031004FF4A0500F904FF4805010900521CA
:101A40000CA8FFF7B5F8002801D072B6FEE713B076
:101A500030BD00004038024000700040024801687C
:101A600041F470010160704788ED00E010B500F0AE
:101A7000F9FABDE810400148FFF74BBC24000020F4
:101A8000F0B50268294C2A4D2A4E2B4F2B4B4FF0B4
:101A9000804CA04209D0604507D0A84205D0B04292
:101AA00003D0B84201D0984204D122F0700E4A68A7
:101AB00042EA0E02A0421BD0604519D0A84217D0BE
:101AC000B04215D0B84213D0984211D01C4DA84254
:101AD0000ED01C4DA8420BD01B4DA84208D01B4D68
:101AE000A84205D01A4DA84202D01A4DA84203D1EF
:101AF00022F44075CA682A434D6922F080022A43C5
:101B000002608A68C2620A688262A04201D098427A
:101B100001D109690163012141610169C90703D04C
:101B2000016921F001010161F0BD000000000140E8
:101B30000004004000080040000C00400004014088
:101B400000400140004401400048014000180040AE
:101B5000001C00400020004010B5846842EA0322C7
:101B600024F47F440A432243826010BD826822F03D
:101B700070020A4342F007018160704710B5036AA2
:101B8000046A24F001040462846924F0F00444EA45
:101B9000021423F00A020A438461026210BD10B5E8
:101BA000036A046A24F010040462846923F0A00329
:101BB00024F4704444EA023243EA01118261016272
:101BC00010BD10B5806B0021C185C184FFF73EFCBC
:101BD00010BD70B5846B2068406994F84110C0F363
:101BE000C0100025212904D118B1E584204600F059
:101BF0008EF82068406994F84210C0F380102229C2
:101C000004D118B1E585204600F05AF8606C40F028
:101C1000100060642046FFF719FC70BD10B5014646
:101C2000806B096809684FF00002C9052ED4C2858F
:101C300001680C3151E8003F23F4807341E800341F
:101C4000002CF5D10168143151E8003F23F0010365
:101C500041E80034002CF5D10168143151E8003F0F
:101C600023F0400341E80034002CF5D1202180F816
:101C70004210016B012909D101680C3151E8003F84
:101C800023F0100341E80034002CF5D14263016BCE
:101C9000012902D0FFF7ACFD10BD818DFFF7D5FB08
:101CA00010BD10B5806B01214163016B012902D089
:101CB000FFF79FFD10BD818D4908FFF7C6FB10BDE2
:101CC00001680C3151E8002F22F4907241E80023A2
:101CD000002BF5D10168143151E8002F22F00102E8
:101CE00041E80023002BF5D1016B012909D10168DE
:101CF0000C3151E8002F22F0100241E80023002BA4
:101D0000F5D1202180F8421000210163704701685D
:101D10000C3151E8002F22F0C00241E80023002BD3
:101D2000F5D1202180F84110704708B590F8421095
:101D3000222901D0022008BD82684FF480539A42C4
:101D400001D1016921B1816A9A421BD04AB10AE0EE
:101D50000268816A5268C2F308020A80816A891C9B
:101D600008E0026972B10268526802F07F020A70EC
:101D7000816A491C8162C18D491E0904090CC18513
:101D800003D01BE002685268F1E70168CA6822F0DC
:101D90002002CA600168CA6822F48072CA600168C1
:101DA0004A6922F001024A61202180F84210002194
:101DB0004163026B012A03D0FFF71AFD002008BD22
:101DC000016301680C3151E8002F22F0100241E854
:101DD0000023002BF5D101680A68D20602D50A68F3
:101DE00049680091818DFFF730FBE7E770B5044645
:101DF00000680169E26821F44051114301612169E1
:101E0000A068E26908436169114308432168CA6810
:101E100049F20C639A430243CA6020684169A2698F
:101E200021F440711143416131492068884202D058
:101E30003049884202D1FEF765FF01E0FEF752FF0C
:101E4000E2690023192164253226B2F5004F626849
:101E500028D0A0FB0101930F9200FEF705FA01467E
:101E6000B0FBF5F06FF01802504301EB800006EB79
:101E70000010B0FBF5F000F0F002B1FBF5F002EB62
:101E80000012B1FBF5F06FF01803584301EB80002E
:101E900006EB0010B0FBF5F000F00F0021681044D5
:101EA000886070BDA0FB010192185B41FEF7DCF970
:101EB0000146B0FBF5F00201B1FBF5F06FF018033D
:101EC000584301EB800006EBC000B0FBF5F000F0DA
:101ED000F80002EB4002B1FBF5F0584301EB800043
:101EE00006EBC000B0FBF5F000F00700D6E70000FD
:101EF000001001400014014038B58162044682851B
:101F0000002013466064222284F84220E56B1B4ABD
:101F1000EA63E56B1A4A2A64E56B1A4AEA64E26BE3
:101F200010650A462168E06B091DFEF769FC206810
:101F3000016840680090206948B120680C3050E882
:101F4000001F41F4807140E80012002AF5D120689A
:101F5000143050E8001F41F0010140E80012002A4F
:101F6000F5D12068143050E8001F41F0400140E8EE
:101F70000012002AF5D1002038BD00001D1C000809
:101F8000A31C0008D31B00082DE9F8439846174608
:101F90000D460446089E24E0701C22D0FEF766FD24
:101FA000A0EB0800B0421AD8CEB12068C16849073A
:101FB00017D5802D15D0402D13D00168C9430907CE
:101FC0000FD401680025406800902046FFF778FE96
:101FD0000820606484F840500120BDE8F8830320A5
:101FE000FBE72068006835EA000004D00020B84212
:101FF000D2D00020F1E70120F9E700000148FFF707
:1020000027BA00006C000020FEE70907090E00282F
:1020100004DB00F1E02080F80014704700F00F00AE
:1020200000F1E02080F8141D70470000FEF72CFD41
:10203000FFF7C8FCFFF746FCFFF72EFCFFF7A0FCFC
:10204000FFF778FC0448FFF7B5F80A220349044873
:10205000FFF7C0FBFEE70000240000201000002076
:102060006C0000200D480121017002214170032104
:1020700081700421C1700521017106214171072180
:1020800081710821C171092101720A2141720B4637
:102090000A4601460248FFF7ADBB00001A000020C7
:1020A0006C0000204FF04070E1EE100A704700060F
:1020B00010160006101600000000000000000102CB
:1020C00003040607080900000000010203040000E1
:1020D000F02000080000002010000000C4010008EB
:1020E000002100081000002068070000E00100083F
:1020F0000100000010000000000000000024F400B7
:040000050800018965
:00000001FF
