:020000040800F2
:10000000D00C002031020008D71B0008D9190008C5
:10001000D51B00081F06000841240008000000004E
:10002000000000000000000000000000DB1B0008D2
:100030002106000800000000D91B0008DD1B000895
:100040004B0200084B0200084B0200084B0200085C
:100050004B0200084B0200084B0200084B0200084C
:100060004B0200084B0200084B0200084B0200083C
:100070004B0200084B0200084B0200084B0200082C
:100080004B0200084B0200084B0200084B0200081C
:100090004B0200084B0200084B0200084B0200080C
:1000A000851C00084B0200084B0200084B020008A8
:1000B0004B0200084B0200084B0200084B020008EC
:1000C0004B0200084B0200084B0200084B020008DC
:1000D0004B020008DD200008E9200008F520000898
:1000E0004B0200084B0200084B0200084B020008BC
:1000F0004B0200084B0200084B0200084B020008AC
:100100004B0200084B0200084B0200084B0200089B
:100110004B0200084B0200084B0200084B0200088B
:100120004B0200084B0200084B0200084B0200087B
:100130004B0200084B0200084B0200084B0200086B
:100140004B0200084B0200084B0200084B0200085B
:100150004B0200084B0200084B0200080121000876
:100160004B0200084B0200084B0200084B0200083B
:100170004B0200084B0200084B0200080000000080
:100180004B0200084B02000800F002F800F041F8B2
:100190000AA090E8000C82448344AAF10107DA45E2
:1001A00001D100F036F8AFF2090EBAE80F0013F0F3
:1001B000010F18BFFB1A43F0010318471423000076
:1001C00034230000103A24BF78C878C1FAD8520707
:1001D00024BF30C830C144BF04680C6070470000C1
:1001E0000023002400250026103A28BF78C1FBD840
:1001F000520728BF30C148BF0B607047642900F028
:10020000F780002070471FB502F050F91FBD10B5F0
:1002100010BD00F0CAF91146FFF7F5FF02F022F910
:1002200000F0E8F903B4FFF7F2FF03BC00F0F0F9C7
:100230000948804709480047FEE7FEE7FEE7FEE77A
:10024000FEE7FEE7FEE7FEE7FEE7FEE704480549B6
:10025000054A064B70470000751C0008890100081C
:10026000D0060020D00C0020D0080020D0080020AC
:1002700053EA020C00F069802DE9F04B4FF00006C4
:10028000002B1FBFB3FA83F503FA05F424FA05F631
:100290005E4012BF1643B2FA82F502FA05F4C5F1C8
:1002A00020051EBF22FA05FC44EA0C04203556EA5C
:1002B000044C4FEA144418BF641C4FF000084FF080
:1002C0000009904271EB030C39D3002919BFB1FA30
:1002D00081F701FA07F6B0FA80F700FA07F6C7F1DE
:1002E00020071EBF20FA07FC46EA0C062037B6FBA3
:1002F000F4FCA7EB0507103F07F01F0BCBF120061E
:100300000CFA0BFB2CFA06F644BFB3460026202F4E
:10031000A4BF5E464FF0000B5BEA060C08BF4FF02F
:10032000010B19EB0B09ABFB027C48EB0608C01B69
:1003300006FB02CC0BFB03CC71EB0C01C1E70B46B7
:10034000024641464846BDE8F08B13B54FF0000029
:100350004FF00001AFF30080BDE81C407047000083
:100360000FB41CB5074B06AA7B446946009005985C
:1003700000F003F90020694600F012F91CBC5DF89A
:1003800014FB0000350200002DE9F0410E46044642
:10039000002020622046E168884730B3252805D038
:1003A000D4E901219047206A401CF2E7E168204629
:1003B00000278847050018D0A5F14100192802D868
:1003C00020354FF400673246294620462760FFF764
:1003D00015FF40B1012804D0F61D26F007060836A7
:1003E000D8E7361DD6E72846DAE7206ABDE8F0816F
:1003F0002DE9F0410646002410687529314616A5FE
:1004000010D0AFF30080002802DA404213A507E0C5
:1004100031688A0701D512A502E0490704D511A564
:10042000012401E0AFF3008000210A2206F1240735
:1004300009E0B0FBF2FCB0FBF2F302FB1C00303031
:1004400078541846491C0028F3D123462A463046E2
:10045000BDE8F04100F032B8000000002D000000BF
:100460002B000000200000004FF0000200B51346F2
:1004700094469646203922BFA0E80C50A0E80C50C4
:10048000B1F12001BFF4F7AF090728BFA0E80C5075
:1004900048BF0CC05DF804EB890028BF40F8042B6E
:1004A00008BF704748BF20F8022B11F0804F18BFDB
:1004B00000F8012B70477047704770472DE9F047EF
:1004C0000D4699469246044600F1240801688806C4
:1004D00004D5E06921F01001216000E00120A8426C
:1004E00001DD471B00E00027A1697A1902EB090032
:1004F000081AA0612078C00602D42046AFF300801D
:10050000002608E0D4E901211AF806009047206A85
:10051000401C761C20624E45F4DB2078C0060AD5CC
:100520002046AFF3008006E0D4E901213020904757
:10053000206A401C2062381EA7F10107F4DC07E0A6
:10054000D4E9012118F805009047206A401C206278
:10055000281EA5F10105F3DC2046AFF300802078CA
:10056000000602D50220BDE8F0870120FBE700006D
:1005700001694A1C02610878704700B58FB0CDE967
:1005800001310021059105497944CDE90310114657
:100590006846FFF7F9FE0FB000BD0000E5FFFFFF62
:1005A0000A6802F8010B0A607047754600F02CF8E3
:1005B000AE4605006946534620F00700854618B050
:1005C00020B5FFF743FEBDE820404FF000064FF096
:1005D00000074FF000084FF0000B21F00701AC4678
:1005E000ACE8C009ACE8C009ACE8C009ACE8C00997
:1005F0008D46704710B50446AFF300802046BDE835
:100600001040FFF70FBE0000004870476C06002046
:1006100001491820ABBEFEE7260002007047FEE746
:10062000704772B6FEE72DE9F0410446876D00F091
:1006300065F9064694F835000025022806D080208A
:10064000606584F834500120BDE8F08120680168BD
:1006500021F0160101602068416921F080014161AB
:10066000206C08B9A06C20B12068016821F0080155
:1006700001602068016821F0010101600CE000F0D8
:100680003DF9801B052807D920206065032084F8E8
:10069000350084F83450D7E720680068C007EED1F1
:1006A00094F85C103F208840B860012084F8350041
:1006B00084F834500020C7E790F83510022903D0A1
:1006C0008021416501207047052180F835100068C0
:1006D000016821F0010101600020704770B50446F7
:1006E00000F00CF90546601C02D004480078044470
:1006F00000F004F9401BA042FAD370BD10000020A6
:100700002DE9F84FDFF8BCA10022012503264FF0A8
:100710000F090AF1040BAAF1040E00BF0B6805FAD9
:1007200002F42340A34270D10F7907F00307012F91
:1007300001D0022F16D187684FEA420806FA08FC5A
:1007400027EA0C07D1F80CC00CFA08FC4CEA070C9D
:10075000C0F808C04768A7430C79C4F3001494405C
:100760003C4344600C79E443A4070AD0C4684FEAD0
:10077000420C06FA0CF7BC438F6807FA0CF72743C4
:10078000C7600C7904F00304022C12D1D40800EBEA
:10079000840CDCF820405707FF0E09FA07F824EA1A
:1007A0000804D1F8108008FA07F848EA0408CCF8E1
:1007B000208004684FEA420C06FA0CF7BC430F791C
:1007C00007F0030707FA0CF7274307604C6814F497
:1007D000403F70D03C4C276847F48047276024682E
:1007E00022F0030704F480440094384C07EB040C17
:1007F000DCF8084897074FEA177809FA08F7BC436E
:10080000334FB84202D1002724E054E0314FB842C0
:1008100001D101271EE0304FB84201D1022719E073
:100820002E4FB84201D1032714E02D4FB84201D119
:1008300004270FE02B4FB84201D105270AE02A4FC9
:10084000B84201D1062705E0284FB84201D1072759
:1008500000E0082707FA08F72743CCF80878DAF809
:1008600000405746D1F804C09C435FEACC2C00D529
:100870001C433C60DBF800405F46D1F804C09C4359
:100880005FEA8C2C00D51C433C60DEF800407746C4
:10089000D1F804C09C435FEA8C3C00D51C433C600B
:1008A000084F083F3C68D1F804C09C435FEACC3C49
:1008B00000D51C433C60521C102AFFF42FAFBDE84A
:1008C000F88F0000083C01404438024000300140ED
:1008D000000002400004024000080240000C0240F8
:1008E000001002400014024000180240001C0240A8
:1008F0000AB1816170470904FBE700000148806884
:1009000070470000100000200248816802781144FE
:1009100081607047100000200B4810B5016841F459
:1009200000710160016841F480610160016841F477
:1009300080710160032000F071F8002000F006F8DB
:1009400000F024F8002010BD003C024070B50D4DB1
:1009500004464FF47A712878B1FBF0F00A4909682F
:10096000B1FBF0F000F0B6FB48B9102C07D2002222
:100970002146501E00F032F800206C6070BD01204E
:1009800070BD0000100000201C0000200B4882B049
:10099000016841F480410160006800F480400090EB
:1009A0000648001F016841F080510160006800F0B6
:1009B00080500090072002B000F030B84438024068
:1009C000002809DB00F01F0201219140400980004E
:1009D00000F1E020C0F8001170470000F0B40E4BA9
:1009E0001B680C46C3F30223C3F10705042D00D98D
:1009F0000425191D072901D2002300E0DB1E012672
:100A000006FA05F1491E214099409E40761E164087
:100A10003143F0BC01F015BD0CED00E0064900F0DB
:100A2000070208684FF6FF03184040EA0220034A15
:100A300010430860704700000CED00E00000FA056C
:100A4000F8B5040005D094F895042668002510B187
:100A500006E00120F8BD84F89454204600F056F8D2
:100A6000032084F89504B6F1A04F00D1A571206849
:100A700001F078FC207C8DF8000094E80F0001F074
:100A800045FB0226B8BB0021206801F0ABFC90BBFF
:100A9000002001270DE000BF00EBC00104EB810145
:100AA0004F750875C8850D76CD610D62401CC0B2CA
:100AB0004D6221798142EFD8002011E000EBC001A6
:100AC00004EB810181F8555281F8540281F85852A3
:100AD000C1F85C52C1F86052401CC0B2C1F8645207
:100AE00021798142EAD8207C8DF8000094E80F003B
:100AF00001F07AFB10B184F89564AAE7657484F874
:100B00009574206801F062FB0020F8BD30B587B015
:100B1000044614216846FFF7A7FC2068B0F1A04FF7
:100B200031D11A480024016841F0010101600068D8
:100B3000174D00F0010005904FF40070CDE900045E
:100B4000694628460294FFF7DBFD4FF4C050009041
:100B50000220CDE90104032003900A200490694695
:100B60002846FFF7CDFD0948001D016841F08001CE
:100B7000016006481430016841F48041016000685A
:100B800000F48040059007B030BD000030380240CE
:100B9000000002402DE9F0470E46050065D0DFF861
:100BA0001481D8F80000F7B200F00700B04207D275
:100BB00088F80070D8F8000000F00700B04254D167
:100BC00028683D4C810712D5400703D5206840F4C2
:100BD000E05020602878000703D5206840F460408A
:100BE00020602068A96820F0F00008432060287881
:100BF000C0072DD0304968680839012812D0022872
:100C000013D0032811D00968890700292DDA21683B
:100C100021F0030101432160FFF770FE814641F29C
:100C2000883A0EE009688903EFE709688901ECE773
:100C3000FFF764FEA0EB0901514502D90320BDE88E
:100C4000F0872068696800F00C00B0EB810FEFD1ED
:100C5000D8F80010404601F00701B14207D90770EB
:100C6000006800F00700B04201D00120E7E72878D3
:100C7000400705D52068E96820F4E050084320606B
:100C80002878000706D52068296920F4604040EAEA
:100C9000C100206000F038F82168084AC1F3031150
:100CA000515CC8400649086006480068FFF74EFEE0
:100CB0000020C4E7003C024008380240B624000887
:100CC0001C00002014000020044805490068096841
:100CD000044AC1F38221515CC84070471C000020C7
:100CE00008380240C624000804480549006809681D
:100CF000044AC1F34231515CC84070471C000020D7
:100D000008380240C6240008154810B5006810F0E5
:100D10000C02144813D04110042A0FD0082A0ED117
:100D20000F4C241F2268236802F03F025B0207D5A4
:100D30002068C0F38810A0FB010106E0084610BD42
:100D40002168C1F38811A1FB00010023FFF790FA8D
:100D50002168C1F30141491C4900B0FBF1F010BD0D
:100D6000083802400024F4002DE9F84F04006ED04A
:100D70002078DFF84C93C007A9F104054AD009F1A7
:100D800004000168C1F38101012908D00068C0F3A3
:100D9000810002280AD1D9F80000400206D528684F
:100DA000800337D560680028E1D033E06068B0F593
:100DB000803F10D0B0F5A02F286810D020F48030EC
:100DC0002860286820F4802028606068A8B1FFF7B8
:100DD00095FD06460DE0286840F48030F4E740F4C5
:100DE00080202860F7E700BFFFF788FD801B64289C
:100DF00073D828688003F7D50CE0FFF77FFD06461F
:100E000005E000BFFFF77AFD801B6428F0D8286852
:100E10008003F7D42078DFF8AC8280074FF0000A17
:100E20003ED5A748001D016811F00C0F08D00068DE
:100E3000C0F3810002280BD1D9F80000400207D48A
:100E40002868800716D5E068012800D112E033E158
:100E5000E068B8B10120C8F80000FFF74FFD064672
:100E600005E000BFFFF74AFD801B0228C0D82868B4
:100E70008007F7D52868216920F0F80040EAC10012
:100E800028600DE0C8F800A0FFF738FD064604E032
:100E9000FFF734FD801B02281FD828688007F7D48D
:100EA0002078000722D5864F87486169703771B175
:100EB00001210160FFF722FD064604E0FFF71EFD59
:100EC000801B022809D838688007F7D50EE0C0F8E3
:100ED00000A0FFF713FD064605E082E0FFF70EFDD8
:100EE000801B02287DD838688007F7D42078400717
:100EF00068D5DFF8CCB100270BF13C0BDBF8000024
:100F0000C0000BD4DBF8001041F08051CBF800108A
:100F1000DBF80000012700F0805000906B4E306835
:100F2000C00510D4306840F480703060FFF7E6FCF4
:100F3000009005E0FFF7E2FC0099401A022850D823
:100F40003068C005F6D55E4EA0686C3601280FD01B
:100F50000528306810D020F001003060306820F0A3
:100F600004003060A068B8B1FFF7C8FC00900FE043
:100F7000306840F00100F4E740F004003060F7E72B
:100F8000FFF7BCFC0099411A41F28830814266D8D3
:100F900030688007F4D50EE0FFF7B0FC009007E062
:100FA000FFF7ACFC0099411A41F28830814256D8D3
:100FB00030688007F4D42FB1DBF8001021F08051A5
:100FC000CBF80010A069C8B33D49091D0968C1F3F9
:100FD000810102294AD00228504607D0C8F8600093
:100FE00000E03CE0FFF78AFC04463BE04746C8F8D7
:100FF0006000FFF783FC064605E000BFFFF77EFCBC
:10100000801B02282BD828688001F7D4D4E9070177
:101010000843A16A2E4A490802EB0141626A41EA8B
:101020008211084394F82C1040EA0161C9F80010BD
:1010300001203866FFF762FC044606E03EE000BF90
:10104000FFF75CFC001B022809D828688001F7D54F
:1010500034E000BFFFF752FC001B022802D9032036
:10106000BDE8F88F28688001F4D427E00128F7D084
:10107000D9F80000E26900F4800191421CD1226A93
:1010800000F03F01914217D147F6C071626A0140FA
:10109000B1EB821F10D1A26A4FF0FF3300F4403150
:1010A00003EB5202B1EB024F06D194F82C1000F082
:1010B0007060B0EB016F01D00120D1E70020CFE7D5
:1010C0000438024000004742800E47420070004052
:1010D0000000FFFF10B5401EB0F1807F01D301205A
:1010E00010BD4FF0E02460610F21601701F0A9F9F5
:1010F0000020A06107202061002010BD70477047CC
:1011000010B5040003D094F83D0010B107E00120B1
:1011100010BD002084F83C00204600F01FF802209B
:1011200084F83D00211D206800F0E6FD012084F8D0
:10113000460084F83E0084F83F0084F8400084F8BC
:10114000410084F8420084F8430084F8440084F8A5
:10115000450084F83D00002010BD000008B500687F
:101160000B49884212D10B48016841F4803101607B
:101170000068002200F48030009011461820FFF72C
:101180002DFCBDE808401820FFF71ABC08BD000080
:10119000004001404438024090F83D10012901D040
:1011A00001207047022180F83D100168CA6842F0B2
:1011B0000102CA6000681149884214D0B0F1804F22
:1011C00011D00F4988420ED00E4988420BD00E49EB
:1011D000884208D00D49884205D00D49884202D086
:1011E0000C49884204D1816801F00701062903D027
:1011F000016841F0010101600020704700000140DA
:101200000004004000080040000C004000040140C1
:10121000004001400018004070B5044690F83C00C2
:101220000025012817D0012684F83C60022084F8AC
:101230003D002068826822F0770222F47F428260BB
:101240000868502838D00DDC20284FD005DC90B33A
:10125000102811D14AE0022070BD302846D0402825
:101260000AD13BE060282FD070280DD0B0F5805F08
:1012700003D0B0F5005F12D0012584F83D60002056
:1012800084F83C00284670BDCB68D1E90121206874
:1012900000F09EFD2068816841F0770109E0CB688D
:1012A000D1E90121206800F093FD2068816841F4B4
:1012B00080418160E1E719E0CA684968206800F070
:1012C00099FD5021206806E0CA684968206800F04E
:1012D000A2FD6021206800F085FDCEE7CA6849685C
:1012E000206800F087FD40212068F4E7226801466D
:1012F0001046F0E770472DE9F04104460068C668E3
:1013000005694FF00007A90713D5B10711D5F91EDC
:10131000016101202077206880698007204602D083
:10132000FFF7E8FF04E000F07EF8204600F07CF8CC
:101330002777680716D5700714D521686FF0040069
:101340000861022020772068806910F4407F2046E1
:1013500002D0FFF7CFFF04E000F065F8204600F070
:1013600063F82777280715D5300713D521686FF064
:1013700008000861042020772068C06980072046A3
:1013800002D0FFF7B7FF04E000F04DF8204600F070
:101390004BF82777E80616D5F00614D521686FF0CC
:1013A00010000861082020772068C06910F4407F91
:1013B000204602D0FFF79EFF04E000F034F82046FC
:1013C00000F032F82777E80708D0F00706D0216848
:1013D0006FF001000861204600F027F8280608D5C4
:1013E000300606D521686FF0800008612046FFF7BF
:1013F00085FE680608D5700606D521686FF04000A6
:101400000861204600F012F8A8060AD5B00608D5F3
:1014100021686FF0200008612046BDE8F041FFF729
:101420006EBEBDE8F08170477047704770477047E7
:1014300070470000F8B5016804460868CA684B693F
:1014400010F00F0F4FF0000559D003F0010602F421
:101450009077374365D0C10705D0D10503D5616CBE
:1014600041F001016164410705D5D90703D0616CE2
:1014700041F002016164810705D5D90703D0616C91
:1014800041F004016164010707D502F020013143F6
:1014900003D0616C41F008016164616C00293AD0AD
:1014A000800604D5900602D5204600F0F5FC2068A1
:1014B0004069616CC0F38010090700D460B3204616
:1014C00000F0C3FC20684069400621D52068143034
:1014D00050E8001F21F0400140E80012002AF5D139
:1014E000E06BA8B16E490165E06BFFF7E5F80028F5
:1014F00011D0E06B016D01B0BDE8F04008478306F4
:101500000FD593060DD52046BDE8F84000F0C4BCC9
:101510002046FFF78DFFF8BD2046FFF789FF656481
:10152000F8BD266B2023012E7DD1C6067BD5D606BD
:1015300079D508684868009048694FF0020640066F
:1015400041D5E16B086840680004000CE8D0A28D2A
:101550008242E5D9E085C869B0F5807F2DD020684A
:101560000C3050E8001F21F4807140E80012002A7E
:10157000F5D12068143050E8001F21F0010140E847
:101580000012002AF5D12068143050E8001F21F025
:10159000400140E80012002AF5D184F8423025636A
:1015A00020680C3050E8001F21F0100140E80012C4
:1015B000002AF5D1E06BFFF736F86663A08DE18D68
:1015C000401A81B22AE0A08DE18D401A81B2E08DEF
:1015D0000028A5D00029A3D022680C3252E8000FC1
:1015E00020F4907042E80007002FF5D120681430F5
:1015F00050E8002F22F0010240E80027002FF5D12B
:1016000084F84230256320680C3050E8002F22F027
:10161000100240E80023002BF5D166632046FFF757
:1016200006FFF8BDFFE705062BD5150629D594F86A
:1016300041002128F5D1A068B0F5805F01D1206973
:10164000B0B1206A411C2162216800784860E08CBA
:10165000401E0004000CE084E3D12068C16821F042
:101660008001C1602068C16841F04001C160D8E7D5
:10167000206A0088C0F308004860206A801C20624D
:10168000E5E74006CDD55006CBD5CA68204622F006
:101690004002CA6084F8413000F09DF9C1E70000C3
:1016A0003B1E000870B5040004D094F841000025EA
:1016B00010B106E0012070BD84F84050204600F0D3
:1016C00023F8242084F841002068C16821F40051E7
:1016D000C160204600F042FC2068016921F490417D
:1016E00001612068416921F02A0141612068C168D7
:1016F00041F40051C1606564202084F8410084F801
:1017000042006563002070BD2DE9F04387B00446B8
:1017100014216846FEF7A8FE5348524B2668002164
:10172000514A1438022403250727DFF840914FF06F
:10173000C00C9E421FD1136843F01003136012685F
:1017400002F010020592026842F002020260006894
:1017500002AB00F00200059083E8A200CDE900C4CE
:1017600069464846FEF7CCFF002211462520FFF7C8
:1017700035F9252025E03C4BDFF8F4801B1F46455A
:1017800024D11A6842F400321A601A6802F4003256
:101790000592026842F001020260006802AA00F0AD
:1017A0000100059082E8A2000C20CDE90004694602
:1017B0003048FEF7A5FF002211462620FFF70EF95C
:1017C0002620FFF7FDF807B0BDE8F083DFF8A8801A
:1017D000464521D11A6842F480221A601A6802F440
:1017E00080220592026842F002020260006802AAAA
:1017F00000F00200059082E8A2004FF44060CDE9BD
:10180000000469464846FEF77BFF00221146272068
:10181000FFF7E4F82720D4E7184B9E42D3D1136892
:1018200043F020031360126802F020020592026860
:1018300042F0040202600068CDF800C000F004002D
:101840000590CDE901410820CDE9035069460C48D7
:10185000FEF756FF002211464720FFF7BFF847204A
:10186000AFE700000010014044380240000402408D
:1018700000440040000002400048004000140140C5
:10188000000802402DE9F84F044690F842009A46BD
:1018900016460D46202802D00220BDE8F88FB5B1CB
:1018A000AEB100206064222184F842102063FFF76B
:1018B00025F8A6858146E685A0684FF48058202744
:1018C000404501D1206920B12E46002529E00120A4
:1018D000E3E7002625E04B46002220212046CDF8F4
:1018E00000A000F0C1FB18B184F842700320D4E7D7
:1018F00026B1A06840451AD038B108E02068406899
:10190000C0F3080025F8020B08E0206978B12068D0
:10191000406800F07F0000BF06F8010BE08D401E1C
:10192000E085E08D0028D6D184F84270B5E72068C4
:101930004068F1E770472DE9F843044690F841000C
:10194000984616460D46202802D00220BDE8F883AE
:1019500085B17EB100206064212084F84100FEF74B
:10196000CDFFA6848146E684A0682027B0F5805F7D
:1019700002D003E00120E9E7206910B12E460025DE
:101980000EE000260CE08021204600F06DFBA8B997
:10199000C6B116F8010B21684860E08C401EE08457
:1019A000E08C4B464FF00002CDF800800028EAD1D1
:1019B0004FF04001204600F057FB40B184F84170E1
:1019C0000320C3E735F8020BC0F30800E3E784F80F
:1019D00041700020BAE77047FEE7000070B586B09E
:1019E00014216846FEF740FD1E480024016841F0BE
:1019F00080010160016801F080010591016841F0FA
:101A000001010160016801F001010591016841F0E7
:101A100002010160016801F002010591016841F0D5
:101A200008010160016801F008010591016841F0B9
:101A30000401016000680C4E00F004004FF4704592
:101A40000590002229463046FEF752FF01200095FE
:101A5000CDE90104694630460394FEF751FE06B015
:101A600070BD000030380240000C02401FB500215C
:101A700010480091019102910D4A03910260A72242
:101A8000C0E9012142F20F72C0E903218161FFF731
:101A900037FB08B1FEF7C5FD4FF480500090694652
:101AA0000448FFF7B9FB002801D0FEF7BAFD1FBDBF
:101AB00000400140200000200C4810B50A49016098
:101AC0004FF416514160002181600C22C160C0E9D1
:101AD00004128161C161FFF7E5FD002803D0BDE874
:101AE0001040FEF79EBD10BD0010014068000020B0
:101AF0000C4810B50A4901604FF4E1314160002102
:101B000081600C22C160C0E904128161C161FFF7EC
:101B1000C9FD002803D0BDE81040FEF782BD10BD0E
:101B200000440040B00000200C4810B50A49016094
:101B30004FF416514160002181600C22C160C0E960
:101B400004128161C161FFF7ADFD002803D0BDE83B
:101B50001040FEF766BD10BD00480040F8000020B0
:101B60000C4810B50A4901604FF41651416000213C
:101B700081600C22C160C0E904128161C161FFF77C
:101B800091FD002803D0BDE81040FEF74ABD10BD0E
:101B900000140140400100200D4810B54FF0A04155
:101BA0000160042101710222C2710021817142721F
:101BB0008172C172017301228273C173FEF740FF0B
:101BC000002803D0BDE81040FEF72BBD10BD00007B
:101BD00088010020FEE7FEE770477047FEF794BEDD
:101BE00030B593B030216846FEF73EFC14210CA8B6
:101BF000FEF73AFC1D480025016841F08051016064
:101C0000006800F0805011901948016841F480414B
:101C100001600068022400F48040119001200090CF
:101C2000000401908001CDE9064004200890A8201E
:101C3000CDE9090407200B906846FFF795F808B135
:101C400072B6FEE70CA90F2081E831004FF4A050D6
:101C50000F904FF48050109005210CA8FEF79AFFCA
:101C6000002801D072B6FEE713B030BD4038024004
:101C7000007000400248016841F470010160704743
:101C800088ED00E000B512489DB00069C00718D08B
:101C90001048D0E9011283788DE80E00437802786D
:101CA0000DA103A8FEF75CFB4FF0FF33642203A9EC
:101CB0000E48FFF740FE01224FF410410C48FEF79A
:101CC00017FE1DB00B485DF804EBFFF714BB0000D6
:101CD0000040014004000020256420256420256484
:101CE000202564202564200D0A000000F800002053
:101CF000000C024020000020F0B50268294C2A4D5B
:101D00002A4E2B4F2B4B4FF0804CA04209D0604500
:101D100007D0A84205D0B04203D0B84201D09842C3
:101D200004D122F0700E4A6842EA0E02A0421BD093
:101D3000604519D0A84217D0B04215D0B84213D090
:101D4000984211D01C4DA8420ED01C4DA8420BD079
:101D50001B4DA84208D01B4DA84205D01A4DA842E1
:101D600002D01A4DA84203D122F44075CA682A4312
:101D70004D6922F080022A4302608A68C2620A68C2
:101D80008262A04201D0984201D109690163012118
:101D900041610169C90703D0016921F001010161B5
:101DA000F0BD0000000001400004004000080040B9
:101DB000000C00400004014000400140004401408C
:101DC0000048014000180040001C00400020004076
:101DD00010B5846842EA032224F47F440A43224374
:101DE000826010BD826822F070020A4342F007014F
:101DF0008160704710B5036A046A24F0010404622C
:101E0000846924F0F00444EA021423F00A020A432D
:101E10008461026210BD10B5036A046A24F01004E4
:101E20000462846923F0A00324F4704444EA02327B
:101E300043EA01118261016210BD10B5806B00217F
:101E4000C185C184FFF7F4FA10BD01680C3151E877
:101E5000002F22F4907241E80023002BF5D1016895
:101E6000143151E8002F22F0010241E80023002B39
:101E7000F5D1016B012909D101680C3151E8002F1E
:101E800022F0100241E80023002BF5D1202180F838
:101E9000421000210163704708B590F842102229D2
:101EA00001D0022008BD82684FF480539A4201D1CC
:101EB000016921B1816A9A421BD04AB10AE00268E5
:101EC000816A5268C2F308020A80816A891C08E0AC
:101ED000026972B10268526802F07F020A70816A78
:101EE000491C8162C18D491E0904090CC18503D0BA
:101EF0001BE002685268F1E70168CA6822F020021C
:101F0000CA600168CA6822F48072CA6001684A69BE
:101F100022F001024A61202180F842100021416331
:101F2000026B012A03D0FFF705FD002008BD016305
:101F300001680C3151E8002F22F0100241E8002323
:101F4000002BF5D101680A68D20602D50A684968F3
:101F50000091818DFFF76BFAE7E7000070B504464A
:101F600000680169E26821F440511143016121696F
:101F7000A068E26908436169114308432168CA689F
:101F800049F20C639A430243CA6020684169A2691E
:101F900021F440711143416131492068884202D0E7
:101FA0003049884202D1FEF79FFE01E0FEF78CFE29
:101FB000E2690023192164253226B2F5004F6268D8
:101FC00028D0A0FB0101930F9200FEF751F90146C2
:101FD000B0FBF5F06FF01802504301EB800006EB08
:101FE0000010B0FBF5F000F0F002B1FBF5F002EBF1
:101FF0000012B1FBF5F06FF01803584301EB8000BD
:1020000006EB0010B0FBF5F000F00F002168104463
:10201000886070BDA0FB010192185B41FEF728F9B2
:102020000146B0FBF5F00201B1FBF5F06FF01803CB
:10203000584301EB800006EBC000B0FBF5F000F068
:10204000F80002EB4002B1FBF5F0584301EB8000D1
:1020500006EBC000B0FBF5F000F00700D6E700008B
:1020600000100140001401402DE9F843984617463E
:102070000D460446089E24E0701C22D0FEF73EFC6C
:10208000A0EB0800B0421AD8CEB12068C168490759
:1020900017D5802D15D0402D13D00168C9430907ED
:1020A0000FD401680025406800902046FFF7CDFE60
:1020B0000820606484F840500120BDE8F8830320C4
:1020C000FBE72068006835EA000004D00020B84231
:1020D000D2D00020F1E70120F9E700000148FFF726
:1020E000A9B90000680000200148FFF7A3B900006B
:1020F000B00000200148FFF79DB90000F800002063
:102100000148FFF797B900004001002070B50D4667
:102110000446C2F3072104981E4601291BD0E0683B
:1021200040F04000E060204600F032F8C6F307219E
:102130000029A16B26D021F48031A163C5F30741AA
:10214000012907D1A16841F00601A160A16841F011
:102150002001A16070BDA16B21F48031A163E16811
:102160000A4A1140E160E16821F44011E160C0B227
:10217000012803D1E06840F48010E060204600F0C0
:1021800007F8DBE741F48031D7E70000BFFFBDFF70
:1021900008B500214FF070620091009B5B1C00931A
:1021A00093420CD80369002BF7DA0091016941F0E2
:1021B000010101610099491C0091914201D903205C
:1021C00008BD0169C907F5D1002008BDD0F8001E7F
:1021D00021F00301C0F8001ED0F8041841F00201FC
:1021E000C0F80418002070472DE9F04F00250E4676
:1021F000044617462846294604EB8002C2F804111B
:10220000401C0F28F8D3C3F307405FEA00092046BB
:1022100016D0806B20F40012A263A06B40F4002261
:10222000A263084688462146C4F8000EC7F307207B
:10223000012817D00846D1F8001841F0030118E032
:10224000D0F8040840F00202C4F80428A06B40F45F
:102250000012A263A06B20F40022A263A06B20F402
:102260008022DDE7300E0846D1F8001801D041F099
:102270000101C0F80018102100F096F800B1012506
:10228000204600F075F800B101254046C4F81088DA
:10229000C4F81488C4F81C8800214FF0006B4FF07C
:1022A000904E4FF67F3AF2B215E000BF04EB4113B7
:1022B000D3F800C9BCF1000F06DA11B1C3F800E988
:1022C00004E0C4F800B901E0C3F80009C3F810093C
:1022D000C3F808A9491C8A42E8D8002115E000BFCC
:1022E00004EB4113D3F800CBBCF1000F06DA11B1B7
:1022F000C3F800EB04E0C4F800BB01E0C3F8000B36
:10230000C3F8100BC3F808AB491C8A42E8D8D4F8CC
:10231000101821F48072C4F81028A0616FF080407A
:102320006061C6F3074018B9A06940F01000A061D1
:10233000A0690A490843A061C7F3074018B1A06922
:1023400040F00800A061B9F1010F03D1A069044970
:102350000843A0612846BDE8F08F000000383C80AB
:1023600004000040816821F0010181600020704775
:1023700008B500214FF070620091009B5B1C009338
:1023800093420AD80369002BF7DA0091102101610A
:102390000099491C0091914201D9032008BD0169AF
:1023A000C906F5D4002008BD18B500224FF07063AF
:1023B0000092009C641C00949C420CD80469002C80
:1023C000F7DA0092202242EA811101610099491C4A
:1023D0000091994201D9032018BD01698906F5D4FD
:1023E000002018BD70B50446C068002520F0C0402C
:1023F000E060012901D079B120E0E06840F00050B0
:10240000E0600A20FEF76AF960690A3510F0010FF2
:1024100010D1C82DF5D30DE0E06840F08040E060B9
:102420000A20FEF75BF960690A3510F0010F01D050
:10243000C82DF5D3C82D01D0002070BD012070BD7E
:10244000FEE70907090E002804DB00F1E02080F810
:102450000014704700F00F0000F1E02080F8141D18
:1024600070470000FEF758FAFFF7BAFBFFF7B6FA1D
:10247000FFF722FBFFF73CFBFFF756FBFFF770FB74
:10248000FFF78AFBFFF7F2FA4FF0FF33012204490E
:102490000448FFF7F7F90448FEF77EFEFEE7000068
:1024A00000000020F8000020200000204FF04070C5
:1024B000E1EE100A70470000000000000000010279
:1024C00003040607080900000000010203040000DD
:1024D000F02400080000002020000000C4010008D3
:1024E0001025000820000020B00C0000E0010008CA
:1024F00000000000D8320C000E62FFFF3C005C00C0
:102500000100000010000000000000000024F400A2
:040000050800018965
:00000001FF
