:020000040800F2
:10000000580B002029020008BB0E0008F50D00085F
:10001000B90E00081F0400089D120008000000002F
:10002000000000000000000000000000BF0E0008FB
:100030002104000800000000BD0E0008C10E0008E9
:10004000430200084302000843020008430200087C
:10005000430200084302000843020008430200086C
:10006000430200084302000843020008430200085C
:10007000430200084302000843020008430200084C
:10008000430200084302000843020008430200083C
:10009000430200084302000843020008430200082C
:1000A000430200084302000843020008430200081C
:1000B000430200084302000843020008430200080C
:1000C00043020008430200084302000843020008FC
:1000D00043020008430200084302000843020008EC
:1000E00043020008430200084302000843020008DC
:1000F00043020008430200084302000843020008CC
:1001000043020008430200084302000843020008BB
:1001100043020008430200084302000843020008AB
:10012000430200084302000843020008430200089B
:10013000430200084302000843020008430200088B
:10014000430200084302000843020008430200087B
:10015000430200084302000843020008430200086B
:10016000430200084302000843020008430200085B
:100170004302000843020008430200080000000098
:10018000430200084302000800F002F800F03CF8C7
:100190000AA090E8000C82448344AAF10107DA45E2
:1001A00001D100F031F8AFF2090EBAE80F0013F0F8
:1001B000010F18BFFB1A43F0010318476411000038
:1001C00084110000103A24BF78C878C1FAD85207C9
:1001D00024BF30C830C144BF04680C6070470000C1
:1001E0000023002400250026103A28BF78C1FBD840
:1001F000520728BF30C148BF0B6070471FB501F0E0
:1002000081F81FBD10B510BD00F0CFF81146FFF703
:10021000F5FF01F055F800F0EDF803B4FFF7F2FF39
:1002200003BC00F0F5F80000094880470948004782
:10023000FEE7FEE7FEE7FEE7FEE7FEE7FEE7FEE796
:10024000FEE7FEE704480549054A064B70470000F3
:10025000590F00088901000858050020580B00209C
:10026000580700205807002053EA020C00F069806C
:100270002DE9F04B4FF00006002B1FBFB3FA83F5BA
:1002800003FA05F424FA05F65E4012BF1643B2FAEB
:1002900082F502FA05F4C5F120051EBF22FA05FC1D
:1002A00044EA0C04203556EA044C4FEA144418BFC3
:1002B000641C4FF000084FF00009904271EB030CF2
:1002C00039D3002919BFB1FA81F701FA07F6B0FA5C
:1002D00080F700FA07F6C7F120071EBF20FA07FCD7
:1002E00046EA0C062037B6FBF4FCA7EB0507103FE7
:1002F00007F01F0BCBF120060CFA0BFB2CFA06F6CD
:1003000044BFB3460026202FA4BF5E464FF0000B2B
:100310005BEA060C08BF4FF0010B19EB0B09ABFBB6
:10032000027C48EB0608C01B06FB02CC0BFB03CC8F
:1003300071EB0C01C1E70B46024641464846BDE859
:10034000F08B13B54FF000004FF00001AFF30080C9
:10035000BDE81C4070474FF0000200B513469446BC
:100360009646203922BFA0E80C50A0E80C50B1F10D
:100370002001BFF4F7AF090728BFA0E80C5048BF21
:100380000CC05DF804EB890028BF40F8042B08BFBF
:10039000704748BF20F8022B11F0804F18BF00F8BB
:1003A000012B7047704770477047754600F02CF876
:1003B000AE4605006946534620F00700854618B052
:1003C00020B5FFF73FFFBDE820404FF000064FF09B
:1003D00000074FF000084FF0000B21F00701AC467A
:1003E000ACE8C009ACE8C009ACE8C009ACE8C00999
:1003F0008D46704710B50446AFF300802046BDE837
:100400001040FFF70ABF000000487047F4040020C6
:1004100001491820ABBEFEE7260002007047FEE748
:10042000704772B6FEE7000070B5044600F010F9A0
:100430000546601C02D004480078044400F008F926
:10044000401BA042FAD370BD000000202DE9F84FF8
:10045000DFF8BCA10022012503264FF00F090AF1A5
:10046000040BAAF1040E00BF0B6805FA02F4234046
:10047000A34270D10F7907F00307012F01D0022F9B
:1004800016D187684FEA420806FA08FC27EA0C07EB
:10049000D1F80CC00CFA08FC4CEA070CC0F808C0F4
:1004A0004768A7430C79C4F3001494403C4344606C
:1004B0000C79E443A4070AD0C4684FEA420C06FA58
:1004C0000CF7BC438F6807FA0CF72743C7600C7919
:1004D00004F00304022C12D1D40800EB840CDCF8E5
:1004E00020405707FF0E09FA07F824EA0804D1F85C
:1004F000108008FA07F848EA0408CCF8208004685D
:100500004FEA420C06FA0CF7BC430F7907F00307D9
:1005100007FA0CF7274307604C6814F4403F70D08B
:100520003C4C276847F480472760246822F0030783
:1005300004F480440094384C07EB040CDCF80848C1
:1005400097074FEA177809FA08F7BC43334FB842C8
:1005500002D1002724E054E0314FB84201D10127F5
:100560001EE0304FB84201D1022719E02E4FB842A9
:1005700001D1032714E02D4FB84201D104270FE029
:100580002B4FB84201D105270AE02A4FB84201D1CA
:10059000062705E0284FB84201D1072700E00827C9
:1005A00007FA08F72743CCF80878DAF800405746EE
:1005B000D1F804C09C435FEACC2C00D51C433C60BE
:1005C000DBF800405F46D1F804C09C435FEA8C2C06
:1005D00000D51C433C60DEF800407746D1F804C0EB
:1005E0009C435FEA8C3C00D51C433C60084F083FAD
:1005F0003C68D1F804C09C435FEACC3C00D51C4366
:100600003C60521C102AFFF42FAFBDE8F88F0000A9
:10061000083C0140443802400030014000000240E4
:100620000004024000080240000C0240001002409A
:100630000014024000180240001C024000690840FB
:1006400000D0012070470AB1816170470904FBE7BF
:10065000014880687047000000000020024881685F
:100660000278114481607047000000200B4810B5EB
:10067000016841F400710160016841F4806101602A
:10068000016841F480710160032000F063F80020EC
:1006900000F006F800F024F8002010BD003C0240F5
:1006A00070B50D4D04464FF47A712878B1FBF0F027
:1006B0000A490968B1FBF0F000F088FB48B9102C3A
:1006C00007D200222146501E00F024F800206C6062
:1006D00070BD012070BD0000000000200C00002053
:1006E0000B4882B0016841F480410160006800F469
:1006F000804000900648001F016841F08051016071
:10070000006800F080500090072002B000F022B88E
:1007100044380240F0B40E4B1B680C46C3F302236E
:10072000C3F10705042D00D90425191D072901D29D
:10073000002300E0DB1E012606FA05F1491E2140D8
:1007400099409E40761E16403143F0BC00F0A7BD94
:100750000CED00E0064900F0070208684FF6FF03C1
:10076000184040EA0220034A104308607047000026
:100770000CED00E00000FA05F8B5040005D094F88F
:1007800095042668002510B106E00120F8BD84F824
:100790009454204600F056F8032084F89504B6F1EE
:1007A000A04F00D1A571206800F00AFD207C8DF8D3
:1007B000000094E80F0000F0D7FB0226B8BB002130
:1007C000206800F03DFD90BB002001270DE000BF38
:1007D00000EBC00104EB81014F750875C8850D76EB
:1007E000CD610D62401CC0B24D6221798142EFD8CB
:1007F000002011E000EBC00104EB810181F85552AB
:1008000081F8540281F85852C1F85C52C1F8605224
:10081000401CC0B2C1F8645221798142EAD8207CE0
:100820008DF8000094E80F0000F00CFC10B184F883
:100830009564AAE7657484F89574206800F0F4FB69
:100840000020F8BD30B587B0044614216846FFF794
:1008500082FD2068B0F1A04F31D11A480024016810
:1008600041F0010101600068174D00F001000590A2
:100870004FF40070CDE90004694628460294FFF762
:10088000E5FD4FF4C05000900220CDE901040320A3
:1008900003900A20049069462846FFF7D7FD0948CF
:1008A000001D016841F080010160064814300168B4
:1008B00041F480410160006800F48040059007B079
:1008C00030BD000030380240000002402DE9F04702
:1008D0000E46050065D0DFF81481D8F80000F7B2A5
:1008E00000F00700B04207D288F80070D8F8000086
:1008F00000F00700B04254D128683D4C810712D562
:10090000400703D5206840F4E050206028780007B5
:1009100003D5206840F4604020602068A96820F07A
:10092000F000084320602878C0072DD0304968685F
:100930000839012812D0022813D0032811D00968E1
:10094000890700292DDA216821F003010143216084
:10095000FFF77EFE814641F2883A0EE0096889037E
:10096000EFE709688901ECE7FFF772FEA0EB0901E8
:10097000514502D90320BDE8F0872068696800F07E
:100980000C00B0EB810FEFD1D8F80010404601F019
:100990000701B14207D90770006800F00700B042B4
:1009A00001D00120E7E72878400705D52068E968ED
:1009B00020F4E050084320602878000706D520681E
:1009C000296920F4604040EAC100206000F018F876
:1009D0002168084AC1F30311515CC8400649086008
:1009E00006480068FFF75CFE0020C4E7003C0240B8
:1009F000083802400E1300080C00002004000020FC
:100A0000154810B5006810F00C02144813D04110BE
:100A1000042A0FD0082A0ED10F4C241F2268236805
:100A200002F03F025B0207D52068C0F38810A0FBEC
:100A3000010106E0084610BD2168C1F38811A1FB41
:100A400000010023FFF710FC2168C1F30141491C9C
:100A50004900B0FBF1F010BD083802400024F4005A
:100A60002DE9F84F04006ED02078DFF84C93C007D2
:100A7000A9F104054AD009F104000168C1F381011C
:100A8000012908D00068C0F3810002280AD1D9F8F2
:100A90000000400206D52868800337D5606800282A
:100AA000E1D033E06068B0F5803F10D0B0F5A02F02
:100AB000286810D020F480302860286820F4802036
:100AC00028606068A8B1FFF7C3FD06460DE02868FE
:100AD00040F48030F4E740F480202860F7E700BF5E
:100AE000FFF7B6FD801B642873D828688003F7D50C
:100AF0000CE0FFF7ADFD064605E000BFFFF7A8FDDF
:100B0000801B6428F0D828688003F7D42078DFF8A9
:100B1000AC8280074FF0000A3ED5A748001D01684F
:100B200011F00C0F08D00068C0F3810002280BD12F
:100B3000D9F80000400207D42868800716D5E0687D
:100B4000012800D112E033E1E068B8B10120C8F813
:100B50000000FFF77DFD064605E000BFFFF778FDCA
:100B6000801B0228C0D828688007F7D5286821692B
:100B700020F0F80040EAC10028600DE0C8F800A0AD
:100B8000FFF766FD064604E0FFF762FD801B0228C2
:100B90001FD828688007F7D42078000722D5864F11
:100BA00087486169703771B101210160FFF750FD1D
:100BB000064604E0FFF74CFD801B022809D8386880
:100BC0008007F7D50EE0C0F800A0FFF741FD06460C
:100BD00005E082E0FFF73CFD801B02287DD83868E5
:100BE0008007F7D42078400768D5DFF8CCB100271C
:100BF0000BF13C0BDBF80000C0000BD4DBF800105D
:100C000041F08051CBF80010DBF80000012700F024
:100C1000805000906B4E3068C00510D4306840F4AE
:100C200080703060FFF714FD009005E0FFF710FDC5
:100C30000099401A022850D83068C005F6D55E4E9B
:100C4000A0686C3601280FD00528306810D020F03D
:100C500001003060306820F004003060A068B8B156
:100C6000FFF7F6FC00900FE0306840F00100F4E779
:100C700040F004003060F7E7FFF7EAFC0099411A02
:100C800041F28830814266D830688007F4D50EE0A2
:100C9000FFF7DEFC009007E0FFF7DAFC0099411A4D
:100CA00041F28830814256D830688007F4D42FB1A1
:100CB000DBF8001021F08051CBF80010A069C8B318
:100CC0003D49091D0968C1F3810102294AD0022862
:100CD000504607D0C8F8600000E03CE0FFF7B8FCE1
:100CE00004463BE04746C8F86000FFF7B1FC064603
:100CF00005E000BFFFF7ACFC801B02282BD828685A
:100D00008001F7D4D4E907010843A16A2E4A4908B3
:100D100002EB0141626A41EA8211084394F82C1007
:100D200040EA0161C9F8001001203866FFF790FC25
:100D3000044606E03EE000BFFFF78AFC001B0228E5
:100D400009D828688001F7D534E000BFFFF780FCA0
:100D5000001B022802D90320BDE8F88F2868800113
:100D6000F4D427E00128F7D0D9F80000E26900F4B4
:100D7000800191421CD1226A00F03F01914217D1BB
:100D800047F6C071626A0140B1EB821F10D1A26ABE
:100D90004FF0FF3300F4403103EB5202B1EB024F4E
:100DA00006D194F82C1000F07060B0EB016F01D008
:100DB0000120D1E70020CFE704380240000047427D
:100DC000800E4742007000400000FFFF10B5401E3B
:100DD000B0F1807F01D3012010BD4FF0E0246061AD
:100DE0000F21601700F05BFA0020A061072020614E
:100DF000002010BDFEE7000070B586B014216846E3
:100E0000FFF7A9FA1A480024016841F08001016047
:100E1000016801F080010591016841F00101016064
:100E2000016801F001010591016841F008010160CC
:100E30000068104E00F008004FF470450590002245
:100E400029463046FFF7FFFB2020CDE90004694624
:100E500009480294FFF7FAFA01200095CDE9010450
:100E6000694630460394FFF7F1FA06B070BD000002
:100E700030380240000C0240000002400D4810B51E
:100E80004FF0A0410160042101710222C2710021D2
:100E9000817142728172C172017301228273C173C6
:100EA000FFF76AFC002803D0BDE81040FFF7B9BA8D
:100EB00010BD000010000020FEE7FEE770477047FD
:100EC000FFF7CCBB30B593B030216846FFF743FA4B
:100ED00014210CA8FFF73FFA1D480025016841F0D6
:100EE00080510160006800F080501190194801683D
:100EF00041F4804101600068022400F480401190B8
:100F000001200090000401908001CDE906400420FA
:100F10000890A820CDE9090407200B906846FFF748
:100F20009FFD08B172B6FEE70CA90F2081E83100E1
:100F30004FF4A0500F904FF48050109005210CA852
:100F4000FFF7C4FC002801D072B6FEE713B030BD35
:100F500040380240007000400248016841F47001CE
:100F60000160704788ED00E070B50D460446C2F39D
:100F7000072104981E4601291BD0E06840F040007C
:100F8000E060204600F032F8C6F307210029A16B8B
:100F900026D021F48031A163C5F30741012907D18F
:100FA000A16841F00601A160A16841F02001A160A3
:100FB00070BDA16B21F48031A163E1680A4A114040
:100FC000E160E16821F44011E160C0B2012803D181
:100FD000E06840F48010E060204600F007F8DBE7AE
:100FE00041F48031D7E70000BFFFBDFF08B5002105
:100FF0004FF070620091009B5B1C009393420CD8F1
:101000000369002BF7DA0091016941F001010161E8
:101010000099491C0091914201D9032008BD016942
:10102000C907F5D1002008BDD0F8001E21F003014A
:10103000C0F8001ED0F8041841F00201C0F80418EE
:10104000002070472DE9F04F00250E460446174654
:101050002846294604EB8002C2F80411401C0F28E0
:10106000F8D3C3F307405FEA0009204616D0806B2F
:1010700020F40012A263A06B40F40022A263084691
:1010800088462146C4F8000EC7F30720012817D070
:101090000846D1F8001841F0030118E0D0F8040820
:1010A00040F00202C4F80428A06B40F40012A263CE
:1010B000A06B20F40022A263A06B20F48022DDE765
:1010C000300E0846D1F8001801D041F00101C0F8F7
:1010D0000018102100F096F800B10125204600F01C
:1010E00075F800B101254046C4F81088C4F814888A
:1010F000C4F81C8800214FF0006B4FF0904E4FF663
:101100007F3AF2B215E000BF04EB4113D3F800C9F7
:10111000BCF1000F06DA11B1C3F800E904E0C4F82D
:1011200000B901E0C3F80009C3F81009C3F808A921
:10113000491C8A42E8D8002115E000BF04EB4113A6
:10114000D3F800CBBCF1000F06DA11B1C3F800EB05
:1011500004E0C4F800BB01E0C3F8000BC3F8100BB7
:10116000C3F808AB491C8A42E8D8D4F8101821F417
:101170008072C4F81028A0616FF080406061C6F3EF
:10118000074018B9A06940F01000A061A0690A49A1
:101190000843A061C7F3074018B1A06940F00800F8
:1011A000A061B9F1010F03D1A06904490843A0610E
:1011B0002846BDE8F08F000000383C800400004065
:1011C000816821F0010181600020704708B500218D
:1011D0004FF070620091009B5B1C009393420AD811
:1011E0000369002BF7DA0091102101610099491C75
:1011F0000091914201D9032008BD0169C906F5D4C7
:10120000002008BD18B500224FF070630092009CCA
:10121000641C00949C420CD80469002CF7DA0092FC
:10122000202242EA811101610099491C00919942F2
:1012300001D9032018BD01698906F5D4002018BD25
:1012400070B50446C068002520F0C040E060012968
:1012500001D079B120E0E06840F00050E0600A2061
:10126000FFF7E2F860690A3510F0010F10D1C82DC0
:10127000F5D30DE0E06840F08040E0600A20FFF721
:10128000D3F860690A3510F0010F01D0C82DF5D3ED
:10129000C82D01D0002070BD012070BDFEE70907F8
:1012A000090E002804DB00F1E02080F800147047EC
:1012B00000F00F0000F1E02080F8141D70470000DE
:1012C000FFF7D4F9FFF7FEFDFFF796FDFFF7D6FD18
:1012D0000B4C0A4E4FF48045A714012229462046A4
:1012E000FFF7B1F920213046FFF7A8F90128F4D122
:1012F000012239462046FFF7A6F9EEE7000002403A
:10130000000C02404FF04070E1EE100A7047000000
:1013100000000000000001020304060708090000A5
:10132000401300080000002010000000C401000865
:101330005013000810000020480B0000E0010008D6
:101340000100000010000000000000000024F40074
:040000050800018965
:00000001FF
