:020000040800F2
:10000000F02400208D02000863430008FB3F000835
:1000100061430008911B0008916200080000000085
:100020000000000000000000000000000145000882
:10003000D51C000800000000DF4400080D45000842
:10004000A7020008A7020008A7020008A7020008EC
:10005000A7020008A7020008D71C0008A702000892
:10006000A7020008A7020008A7020008A7020008CC
:10007000A7020008A7020008A7020008A7020008BC
:10008000A7020008A70200085D1A0008B91B0008B3
:10009000951B0008A11B0008AD1B0008A702000863
:1000A000B1450008A7020008A7020008A70200083F
:1000B000A7020008A7020008A7020008A70200087C
:1000C000A7020008A7020008A7020008A70200086C
:1000D000A7020008A7020008A7020008A70200085C
:1000E000A7020008A7020008A7020008A70200084C
:1000F000A7020008A7020008A7020008A70200083C
:10010000A7020008A7020008A7020008A70200082B
:10011000A7020008A7020008A7020008A70200081B
:10012000A7020008A7020008A7020008A70200080B
:10013000A7020008A7020008A7020008A7020008FB
:10014000A7020008A7020008A702000865430008EC
:10015000A7020008A7020008A7020008A7020008DB
:10016000A7020008A7020008A7020008A7020008CB
:10017000A7020008A7020008A7020008000000006C
:10018000A7020008A702000800F002F800F06FF8CC
:100190000AA090E8000C82448344AAF10107DA45E2
:1001A00001D100F064F8AFF2090EBAE80F0013F0C5
:1001B000010F18BFFB1A43F0010318472C7200000F
:1001C0004C7200000A444FF0000C10F8013B13F091
:1001D000070408BF10F8014B1D1108BF10F8015BA0
:1001E000641E05D010F8016B641E01F8016BF9D193
:1001F00013F0080F1EBF10F8014BAD1C0C1B09D1EA
:100200006D1E58BF01F801CBFAD505E014F8016B5B
:1002100001F8016B6D1EF9D59142D6D370470000ED
:100220000023002400250026103A28BF78C1FBD8FF
:10023000520728BF30C148BF0B607047642900F0E7
:100240000581002070471FB506F0F0FF00F06CFD3F
:1002500004000020002106F071FD401C60600020B9
:10026000002106F055FDE0601FBD10B510BD00F087
:1002700064FA1146FFF7E7FF06F038FB00F006FDD1
:1002800003B4FFF7F2FF03BC00F0C8FD0948804744
:1002900009480047FEE7FEE7FEE7FEE7FEE7FEE768
:1002A000FEE7FEE7FEE7FEE704480549054A064B80
:1002B00070470000A145000889010008F01E0020D9
:1002C000F0240020F0200020F020002053EA020C4F
:1002D00000F069802DE9F04B4FF00006002B1FBFA6
:1002E000B3FA83F503FA05F424FA05F65E4012BF6B
:1002F0001643B2FA82F502FA05F4C5F120051EBFD5
:1003000022FA05FC44EA0C04203556EA044C4FEA74
:10031000144418BF641C4FF000084FF000099042CD
:1003200071EB030C39D3002919BFB1FA81F701FA37
:1003300007F6B0FA80F700FA07F6C7F120071EBFEC
:1003400020FA07FC46EA0C062037B6FBF4FCA7EBC4
:100350000507103F07F01F0BCBF120060CFA0BFB33
:100360002CFA06F644BFB3460026202FA4BF5E46F3
:100370004FF0000B5BEA060C08BF4FF0010B19EBC6
:100380000B09ABFB027C48EB0608C01B06FB02CC4A
:100390000BFB03CC71EB0C01C1E70B460246414657
:1003A0004846BDE8F08B13B54FF000004FF0000158
:1003B000AFF30080BDE81C40704700000FB41CB5CF
:1003C000074B06AA7B4469460090059800F021F986
:1003D0000020694600F030F91CBC5DF814FB0000F9
:1003E000710200002DE9F0410E4604460020206213
:1003F0002046E168884730B3252805D0D4E901219B
:100400009047206A401CF2E7E168204600278847B1
:10041000050018D0A5F14100192802D820354FF465
:1004200000673246294620462760FFF707FF40B1A4
:10043000012804D0F61D26F007060836D8E7361D39
:10044000D6E72846DAE7206ABDE8F0812DE9F041D9
:100450000646002410687529314616A510D0AFF362
:100460000080002802DA404213A507E031688A07BD
:1004700001D512A502E0490704D511A5012401E028
:10048000AFF3008000210A2206F1240709E0B0FB47
:10049000F2FCB0FBF2F302FB1C003030785418463B
:1004A000491C0028F3D123462A463046BDE8F041D6
:1004B00000F051B8000000002D0000002B000000EB
:1004C0002000000010B5431C02E010F8011B71B1C0
:1004D0008107FAD14FF0013202C88C1A8C4314EA1A
:1004E000C211F9D0C01A0A0603D0C01E10BDC01A2E
:1004F00010BD0A0401D0801E10BD0902FCD0401EB0
:1005000010BD4FF0000200B51346944696462039C0
:1005100022BFA0E80C50A0E80C50B1F12001BFF4BC
:10052000F7AF090728BFA0E80C5048BF0CC05DF822
:1005300004EB890028BF40F8042B08BF704748BF70
:1005400020F8022B11F0804F18BF00F8012B7047E4
:100550007047704770472DE9F0470D46994692461F
:10056000044600F124080168880604D5E06921F0FA
:100570001001216000E00120A84201DD471B00E0DE
:100580000027A1697A1902EB0900081AA0612078F6
:10059000C00602D42046AFF30080002608E0D4E96C
:1005A00001211AF806009047206A401C761C206240
:1005B0004E45F4DB2078C0060AD52046AFF3008014
:1005C00006E0D4E9012130209047206A401C2062D7
:1005D000381EA7F10107F4DC07E0D4E9012118F87F
:1005E00005009047206A401C2062281EA5F10105E5
:1005F000F3DC2046AFF300802078000602D502200D
:10060000BDE8F0870120FBE701694A1C0261087818
:10061000704700B58FB0CDE9013100210591054942
:100620007944CDE9031011466846FFF7DBFE0FB0B1
:1006300000BD0000E5FFFFFF0A6802F8010B0A6039
:10064000704700000FB4002300B589B00CA90091D9
:100650000B99CB60214B7B440693214B7B44079342
:1006600004236FF00042CDE901321E4A7A446B4602
:1006700008920246002006F046FE09B05DF814FB21
:1006800070B506464FF0FF3015460C46324686B030
:100690000091CDE9010169460020049004A8FFF70C
:1006A000D1FF02460498211825B108B1084600E0A0
:1006B00020462860049800280DD0002A02DD00980A
:1006C000884208D03246081B69460094CDE90104EF
:1006D00004A8FFF7B7FF06B070BD0000A10000003E
:1006E000B90000007900000010B5044600F04AF897
:1006F0000068005D00F0010010BD426842B1016871
:1007000011F8013B23B1521EC0E900121846704790
:100710000121C160881E704742685AB1C3680168F0
:1007200043B983688B4205D0491E521CC0E90012B0
:10073000002070474FF0FF307047754600F0F0FA28
:10074000AE4605006946534620F00700854618B0BE
:1007500020B5FFF7A9FDBDE820404FF000064FF09F
:1007600000074FF000084FF0000B21F00701AC46E6
:10077000ACE8C009ACE8C009ACE8C009ACE8C00905
:100780008D46704710B500F0CFFA001D10BD00BFB8
:10079000AD6500002DE9FF4F06468BB00878FF28B5
:1007A00006D0491C2D2805D000244FF0000908E090
:1007B00000200CE00124F8E709EB8903491C00EB59
:1007C00043090878FF28F7D114B1C9F10000814628
:1007D000107800252C46AA4629462D2801D02B2822
:1007E00004D1521C2D2813D0002082468B4610784D
:1007F000FF280FD04FF0000C0A21521CA5FB0178F6
:1008000004FB018105FB0C11C5194BEB0104EEE75C
:100810000120EAE7002108464FF00000BAF1000F7E
:1008200002D000EB80004008C0F38157012F01DDAA
:100830004FF0FF370E9955EA040009EB01080BD081
:100840004FF0020918F5FA7F16DA4FEACA70002F46
:10085000706008DD012007E04FEACA70C6E900B009
:100860000FB0BDE8F08F0020306000F061FAC0F8F2
:1008700000901821084616E0B8F5FA7F18DD002F21
:1008800002DAF748784401E0F6487844D0E90010ED
:10089000C6E9001040EACA70706000F049FAC0F87A
:1008A0000090142108460FB0BDE8F04F06F0C8BC18
:1008B000002108464FF00000B8F10001099002DA6B
:1008C000C7F1000200E03A4601DAC8F1000106A8CB
:1008D00000F032FA06AB93E8070003AB83E80700A9
:1008E00044F23E005BEA04010090584604D144F211
:1008F0001E012C465D460091210C0904014306D1DE
:100900000099240444EA15442D041039009104F0A0
:100910007F41014306D10099240244EA15642D0267
:100920000839009104F07041014306D10099240177
:1009300044EA15742D01091F009104F04041014360
:1009400006D10099A40044EA9574AD00891E009177
:1009500004F00041084304D100986D196441401E21
:1009600000904FF001033A466846B8F1000FCDE918
:10097000014503A902DD00F03AFF01E000F00DFFA0
:10098000BAF1000F04460D4601D084F00044002166
:1009900008464FF00000099940F2FF77484010F0F8
:1009A0000C0F07D124F00040284303D0C4F30A50B1
:1009B000B84212D100F0BCF9C0F80090C4F30A505C
:1009C000B8420AD1A8487844D0E90010C6E900101E
:1009D00004F000410843706042E7C6E900543FE775
:1009E0002DE9FF4F1F464FF0000A4FF0FF384546F4
:1009F00091B0D7E90146CDF83CA000F095F9C06868
:100A00000168405C1090B96912986D1C8847396A7A
:100A1000814688470028F6D1B9F1FF3F0AD0002E61
:100A200024F4D06411DDB9F12B0F08D0B9F12D0FEA
:100A30000BD102E0404615B013E744F48064B96975
:100A400012986D1C8847761E8146600504A901D561
:100A50002D2000E02B20002E01F1010B0DF13008BC
:100A60008DF810003FDDB9F1690F08D0B9F1490FD9
:100A700005D0B9F16E0F02D0B9F14E0F1CD13B4633
:100A800001A8009580E85002DDE912126FF0020023
:100A900006F03DFCC11CCED10EE0B96912986D1C68
:100AA000884781461398761E44F4007405600F98B9
:100AB000401C002E0F9016DDB9F1300FEDD0B9F1CA
:100AC000780F02D0B9F1580F0DD10F9801280AD133
:100AD0003B46CDE90054DDE91212001F029606F0F4
:100AE00014FCC11CA7D1109989453ED144F0800463
:100AF00006E01399681CAAF1010A44F40074086026
:100B0000B9696D1C1298761E884730288146F0D04E
:100B10002BE01099894505D1200603D4761E44F0B8
:100B2000800418E0484605F072FD08B3761E0DF10A
:100B300023018B4544F4007408D2A9F130000BF86E
:100B4000010B200607D5AAF1010003E0200602D41C
:100B50000AF101008246A00502D51399681C0860BD
:100B6000B96912986D1C88478146002ED1DC53E08C
:100B7000002E51DDB9F1650F02D0B9F1450F4BD10F
:100B8000A00549D5B9696D1C1298761E24F44074ED
:100B90008847002E81460CDD2B2804D0B9F12D0F9B
:100BA00007D144F48074B96912986D1C8847761E89
:100BB0008146E00501D52D2100E02B2108F8011B1D
:100BC000CDF8008021E0761E0DF13901884544F40E
:100BD00000740CD2A9F1300010F0FF0088F800007A
:100BE00002D10099884509D908F1010806E0E0051D
:100BF00001D51E4801E042F20F708246B969129891
:100C00006D1C8847814613980560002E04DD484618
:100C100005F0FDFC0028D6D1F96912988847FF201D
:100C200053468BF8000088F8000000200A900B90D3
:100C300004AA0CA90AA8FFF7ADFDA00502D46FF025
:100C40000100F8E614F0240F12D0E0071CD1386838
:100C5000DDE90A12031D3B600068C0E9001213E0E1
:100C6000886B00007A6B00003E6A0000F1D8FFFF3D
:100C70000AA9684605F0B8FCE00705D13868009A73
:100C8000011D3960006802602846D4E610B50446AC
:100C9000AFF300802046BDE81040FFF7F1BA000036
:100CA0004FF0013C50F8042B51F8043B9A4221D1FB
:100CB000A2EB0C03934313EACC1317D150F8042B87
:100CC00051F8043B9A4215D1A2EB0C03934313EA6B
:100CD000CC130BD150F8042B51F8043B9A4209D1A4
:100CE000A2EB0C03934313EACC13DBD04FF00000CC
:100CF000704700BFD01A01BAB1FA81F101F01801B2
:100D000022FA01F0CB40C1F12001DBB2C0B2C01A1F
:100D10002CFA01F3D11A914311EAC311E6D17047BD
:100D200000487047901E002000487047B01E002009
:100D300000487047901E00202DE9F0478146164676
:100D40008AB0354878440DC88DE80D0032487844A3
:100D5000801C03AC0DC884E80D0041F69B300844AC
:100D6000372190FBF1F290FBF1F5A5F1800501FB35
:100D700012041B3C02D56442012000E00020DFF891
:100D800098A080460027FA44AAF1BE0A0EE0E007C8
:100D90000AD03246684607EB470101230AEB81017E
:100DA00000F010FD8DE8070064107F1C002CEED1D0
:100DB000194F7F44AE3F19E0E80715D007EB041048
:100DC0000DF1180A90E80E008AE80E00C068F042A3
:100DD00001D1981908903246012306A903A800F012
:100DE000F1FC03AB83E807006D10641C002DE3D118
:100DF0004FF0010332466946B8F1000F03A802D054
:100E000000F0B6FC01E000F0DDFCC9E90001C9F822
:100E100008200AB0BDE8F087886600000149182064
:100E2000ABBEFEE72600020010B5FFF781FF0068A9
:100E300010BD10B50446FFF77BFF046010BD000035
:100E40002DE9FF4F1F464FF03C0987B04FF000429D
:100E5000DDE9141001F10108DDF858A002EA405064
:100E60000390002005908346054604460490B96926
:100E7000461E08988847AAF1010A0290BAF1000FAD
:100E80003BDD02982E2815D0102100F017FA00281B
:100E90002EDB4FF0010B0599014317D0B9F1000F7C
:100EA0000BDB4A46C11700F0F6F905430C43A9F1E4
:100EB000040905E0012004900BE008B145F00105AC
:100EC00001200590049820B9361D02E0049800B175
:100ED000361FB969089808F101088847BBF1000F6F
:100EE000AAF1010A0290C9D00999C1F80080C5E7AA
:100EF0000298702808D0502806D0F96908988847C9
:100F0000BBF1000F14D04FE0002002900120BBF194
:100F1000000F049009D0B969089808F101088847C2
:100F2000AAF10109B9F1000F07DCF96908988847AF
:100F30006FF001000BB0BDE8F08F2B2804D02D28F6
:100F40000CD14FF0FF300490B969089808F10108FE
:100F50008847A9F10109B9F1000FE6DD411CE4D091
:100F60000A2100F0ABF90028DFDB029908F1010843
:100F700001EB810100EB41000290B96908988847B4
:100F80000A2100F09BF9099AA9F10109B9F1000FB2
:100F9000C2F8008001DD0028E7DAF969089888477F
:100FA0000499029800FB016655EA040004D004F09D
:100FB0004041090002D006E0039898E0A40044EA0A
:100FC0009574AD00B61E04F00041080002D16D1901
:100FD0006441761E159810F0240F03D04FF00B09D2
:100FE0005C4803E04FF028096FF07D0082465645CB
:100FF00007DAAAEB06018944B9F1410F01DD4FF090
:10100000410901200021A9F1010200F044F9024642
:1010100028400B462140084301D0012100E0002177
:10102000501E029143F1FF3128402140084301D076
:10103000012000E000200299834651EA0B014FD0C5
:10104000002108464FF00000039900F4400039B138
:1010500000EB80004FF4400100EBD07001EA60002B
:101060008015012802DD4FF0FF3000E013D0401C56
:1010700036D0029860B3BBF1000F0CD14A46012074
:10108000002100F008F928402140084301D0012048
:1010900000E00020E0B101204A46002100F0FBF80A
:1010A000034640190A4661412D1A8C4111D3B9F10A
:1010B000400F09DD159810F0240F02D0AAF1340674
:1010C00003E0AAF1170600E0761C00254FF000446B
:1010D00006E05B1E42F1FF3220EA030521EA02042A
:1010E000CAF10100B04206DA1B4903980843019097
:1010F000002000900EE0039AC4F3D321E80A0A43CB
:10110000164940EA44500A433146CDE90002684698
:1011100005F073FA159810F0240F0BD01598C0073E
:1011200015D13868DDE90012031D3B600068C0E995
:1011300000120CE002A8694605F056FA1598C0079F
:1011400005D13868029A011D396000680260404686
:10115000F0E6000002FCFFFF0000F07F0000F03F1F
:101160002DE9FF4F92461D4685B04FF00041DDE965
:10117000124BDDE914727F1E01EA4B50414940F0E9
:10118000FF4940EA0108002122F02000492804918B
:1011900002D04E2828D04CE03BA0012607C88DE89D
:1011A0000700A9690698641C88477F1E014606D47B
:1011B0001DF8060018B121F0200181420BD0E96929
:1011C00006988847032E34D0082E32D06FF00100E5
:1011D00009B0BDE8F08F761C032E01D0082EE0D1B7
:1011E000601CCAF80000DCE7A9690698641C8847FF
:1011F0007F1E2AD420F02000412826D1A969069814
:10120000641C88477F1E20D420F020004E281CD16B
:10121000A9690698641C88477F1E48F4002849F491
:101220008009CAF8004001D4282806D0E969069848
:1012300088475FEACB7012D022E0A9690698641C47
:1012400088477F1E01D4002803DAE9690698884799
:10125000BCE72928F1D1641CCAF80040E9E71BF07B
:10126000240F07D028680499031D2B600068C0E98B
:10127000001805E02868021D2A600068C0F8009088
:101280002046A5E70000F07F494E46494E49545993
:10129000000000007047B2F120030AD5C2F120031C
:1012A00001FA02F120FA03F300FA02F041EA030125
:1012B000704700FA03F14FF0000070473A2800D25F
:1012C000303820F02002412A01D3A2F137008842B1
:1012D00001D34FF0FF30704720F07F4C80EA0300CD
:1012E00023F07F47ACEB070303F57C5300F000408D
:1012F00003F1FF032DE980494FEA154B09B44FEA8A
:10130000144325EA0B4E24EA03480FF2042606EBA9
:10131000132749083E785FEA320203FB0667C7F5E8
:10132000000707FB06F64FEA54374FEAD64606F1A8
:10133000020607FB066CCCF1005C4FEA1C472CEA66
:10134000074C07FB06F40CFB06F504EB15464FEAC9
:10135000961634BF00204FF000404FEAD13706FB0D
:1013600007FC4FEA1C4C0CFB0BF7D21B03FB0CF7E2
:1013700061EB07010CFB0EF7B0EB074072EB174275
:101380000CFB08F734BFA2EB0742B2EB074261EB5C
:1013900017414FEA0C444FEA910706FB07FC4FEA5E
:1013A0001C4C0CFB0BF7B0EBC74072EB573203FB46
:1013B0000CF734BFA2EBC742B2EBC74261EB573127
:1013C0000CFB0EF7B0EBC70072EB57720CFB08F783
:1013D00034BFA2EBC702B2EBC70261EB5771039FA8
:1013E0004FEA816141EA921104EBCC044FEAD13714
:1013F0004FEA826206FB07FC42EA90124FEA8060E5
:101400004FEA1C4C0CFB0BF7D21B03FB0CF761EBF8
:1014100007010CFB0EF7B0EB074072EB17420CFB19
:1014200008F734BFA2EB0742B2EB074261EB17416A
:101430004FEA8C554FEA910704EB9C2406FB07FC0E
:101440004FEA1C4C0CFB0BF7B0EBC74072EB57326A
:1014500003FB0CF734BFA2EBC742B2EBC74261EB10
:1014600057310CFB0EF7B0EBC70072EB57720CFB59
:1014700008F734BFA2EBC702B2EBC70261EB5771AA
:1014800015EB4C254FEA816141EA92114FEA8262E5
:101490004FEAD13742EA901206FB07FC44F1000400
:1014A0004FEA80604FEA1C4C0CFB0BF7D21B03FB8E
:1014B0000CF761EB07010CFB0EF7B0EB074072EB8A
:1014C00017420CFB08F734BFA2EB0742B2EB07420E
:1014D00061EB174115EB1C154FEA813141EA92414E
:1014E0004FEA823242EA90424FEA80304FEA0C766D
:1014F00044F1000448EA03434EEA0B484FF0000E63
:10150000B2EB080C71EB030724BF624639464EEB81
:101510000E0E4FF0000B0018524149414BEB0B0BE4
:10152000B2EB080C71EB03077BF1000B24BF6246A2
:1015300039464EEB0E0E4FF0000B00185241494158
:101540004BEB0B0BB2EB080C71EB03077BF1000BC1
:1015500024BF624639464EEB0E0E51EA020718BF11
:1015600046F0010616EB0E7655F1000254F100012B
:1015700003D5BDE88901BDE80088BDE88901BDE863
:101580000048B619524141EB0101A3F10103704734
:1015900080807F7E7D7C7B7A7978777676757473B0
:1015A000727171706F6E6E6D6C6C6B6A6A6968686F
:1015B000676666656464636362616160605F5F5E05
:1015C0005E5D5D5C5C5B5B5A5A595958585757567B
:1015D00056555555545453535252525151505050E0
:1015E0004F4F4F4E4E4D4D4D4C4C4C4B4B4B4A4A32
:1015F0004A49494948484847474747464646454576
:1016000045444444444343434342424242414141AE
:1016100046EA0646A3F570534FEA164646EA425696
:101620004FEAD22242EA415210B54FEAD121A3F14A
:10163000010300F02FF820F0004000F1020C00F050
:10164000004701EB00501146BCF5006F40EA07006F
:1016500000D210BDBAF1000F0AD01CB503B44FF090
:1016600004004FF004014FF000000FBCBDE8104033
:101670004FF00001BBF1010FB9BF04484FF0FF313B
:101680000348002140EA070010BD00BFFFFFEF7FC5
:101690000000F07F002B9C4630D477002BD01CB587
:1016A0004FEA370703B44FF010004FF01001BAF1C2
:1016B000000F06D0BCF1000FDCBF40F0080040F086
:1016C00008014FF000000FBCBDE810400BF1010B0A
:1016D000BBF1010F08BF5FEA170722BF12F1010239
:1016E00011F101014FF0004143F1000300F000400F
:1016F00043EA00007047F9D35708D0E746EA0646A8
:1017000013F1400F4FEA16461FDD13F1200FDFBF24
:1017100016430A46002120335B42BED0C3F12007A6
:1017200046EA064602FA07F74FEA164646EA070671
:10173000C3F1200722FA03F201FA07F721FA03F1B5
:101740004FF0000342EA0702A7E746EA020646EA2C
:1017500006464FEA164646EA0106BCBF46EA06467A
:10176000360C4FF000034FF000024FF0000194E7F9
:101770002DE9804C9A46934670B491E8380007C82A
:1017800031EA400C48BF34EA430C03D5FFF7A4FD0F
:10179000FFF780FFF0BCBDE8008C2DE9804C9A4635
:1017A000934670B491E8380007C831EA400C48BF4E
:1017B00034EA430C03D5FFF78FFDFFF729FFF0BC98
:1017C000BDE8008C2DE9804C9A46934670B491E8B0
:1017D000380007C810F0804F08BF13F0804F03D1C6
:1017E00000F01AF8FFF756FFF0BCBDE8008C2DE9B9
:1017F000804C9A46934670B491E8380007C810F0C0
:10180000804F08BF13F0804F03D100F005F8FFF7B9
:10181000FFFEF0BCBDE8008C20F07F4780EA0300AB
:1018200023F07F4C07EB0C03A3F57C5300F0004042
:10183000A3F1FE0392F0000F00F0B38095F0000FCB
:1018400000F077802DE901494FEA11404FEA144634
:1018500021EA004800FB06FC24EA064708FB06F6DE
:1018600007FB08F800FB07F718EB06484CEB164C93
:101870004FEA124B18EB07484FEA15464CEB17405E
:1018800022EA0B4E0BFB06FC25EA06470EFB06F68A
:1018900007FB0EFE0BFB07F71EEB064E4CEB164C40
:1018A0004FF000061EEB074E4CEB174B18EB0B08E6
:1018B00040F1000018EB0E0B58EB000840F100005F
:1018C0008F1A4FF000013CBFC943661B14BFB5EB34
:1018D000040C00213CBFC943F61B4FEA17444EEAF3
:1018E0008E0E27EA04454FEA1C4704FB07622CEAE8
:1018F000074C05FB07F70CFB05F604FB0CFC16EB8D
:10190000074642EB174216EB0C4642EB1C421BEB20
:10191000060658EB0202414146EA9E0601D5BDE8A3
:101920000189B619524141EB0101A3F10103BDE860
:1019300001894FEA14454FEA114724EA054621EA96
:10194000074C05FB07F406FB07F70CFB06F105FB4C
:101950000CFC11EB074144EB17444FEA124711EB23
:101960000C4144EB1C4422EA074C05FB07F206FB42
:1019700007F70CFB06F605FB0CFC16EB074642EBE3
:10198000174216EB0C4642EB1C456A1854F1000155
:1019900048BF7047B619524141EB0101A3F1010361
:1019A000704795F0000F37D04FEA11424FEA1447C5
:1019B00021EA024624EA074C02FB07F106FB07F77F
:1019C0000CFB06F402FB0CFC14EB074441EB174143
:1019D0004FEA154714EB0C4441EB1C4125EA074C38
:1019E00002FB07F506FB07F70CFB06F602FB0CFCF7
:1019F00016EB074645EB174516EB0C4645EB1C422C
:101A0000121951F1000148BF7047B619524141EB1C
:101A10000101A3F1010370474FEA14454FEA114752
:101A200024EA054621EA074C05FB07F106FB07F708
:101A30000CFB06F24FF0000605FB0CFC12EB074214
:101A400041EB174112EB0C4251EB1C4148BF704770
:101A5000921841EB0101A3F101037047014800F026
:101A6000F1B9000068010020464910B54A6822F427
:101A700040324A604A6843681A434A6001684A68CB
:101A800022F480724A6001684A68036942EA0322CC
:101A90004A6001684A6822F040724A6001684A68F8
:101AA00083681A434A6001688A6822F400628A6087
:101AB00001688A68C3681A438A60816A6FF070623D
:101AC000D14201688A6822F070628A6001688A687F
:101AD0000CD0836A1A438A6001688A6822F04052F7
:101AE0008A6001688A68C36A1A4301E022F04052A2
:101AF0008A6001688A6822F002028A6001688A6846
:101B0000037E42EA43028A6090F8201000290168AF
:101B10004A680FD042F400624A6001684A6822F4C1
:101B200060424A6001684A68174C436A04EB4333D9
:101B30001A4301E022F400624A600168CA6A22F492
:101B40007002CA620168CA6A838B104C04EB0353AB
:101B50001A43CA6201688A6822F400728A600168C6
:101B60008A6890F8303042EA43228A6001688A68C5
:101B700022F480628A6001688A68406942EA8020B3
:101B8000886010BD0023014000E0FFFF0000F0FF6F
:101B9000FEE70000014800F0CABB0000B0010020D1
:101BA000014800F0C4BB0000B0010020014800F073
:101BB000BEBB0000B0010020014800F0B8BB00002F
:101BC000B00100200D4804F093FD0C4804F09BFD8B
:101BD0000B4C4FF470464FF4FA7501223146204603
:101BE00000F06EFF284600F04BFE002231462046F2
:101BF00000F066FF284600F043FEEEE7B00100204B
:101C0000000C0240042822DD124A202802D021289C
:101C10001DD10EE008781070487850708878907068
:101C2000C878D070087910714879507188799071AE
:101C30000DE0107808705078487090788870D078EF
:101C4000C8701079087150794871907988710020B6
:101C5000704700008C0000200020704710B5002263
:101C60000449054802F060FF0449034802F04FFFB1
:101C7000002010BD8C0F0020B00200208C07002037
:101C800070B50D4604460146054802F040FF044881
:101C900002F016FF2046296804F0C6F9002070BD46
:101CA000B002002000207047094A10B5D2F8BC22CB
:101CB000D2F814220AB1012010BD0A460146044898
:101CC00002F032FFBDE81040014802F0A7BF00005B
:101CD000B00200207047012000F0E6BD034804F088
:101CE00007FD024804F00FFD72B6FEE7B0010020C8
:101CF0007047000078B50024009490F83C20012A39
:101D000019D0012280F83C200A6807230568092AB7
:101D100013D9EE680A3A02EB420293409E43EE600A
:101D20000B788A680A3B03EB43039A400368DD683B
:101D30002A43DA6010E0022078BD2E6902EB4202ED
:101D400093409E432E610B788A6803EB43039A40CD
:101D500003681D692A431A614A681F23072A13D2A0
:101D600005686E6B521E02EB820293409E436E63C7
:101D70000B790A885B1E92B203EB83039A400368D7
:101D80005D6B2A435A6327E005680D2A12D22E6B39
:101D9000D21F02EB820293409E432E630B790A8886
:101DA000DB1F92B203EB83039A4003681D6B2A4347
:101DB0001A6311E0EE6A0D3A02EB820293409E43F1
:101DC000EE620B790A880D3B92B203EB83039A40D3
:101DD0000368DD6A2A43DA62164B0568144A9D429D
:101DE00006D10D68122D03D1556845F48005556064
:101DF00005689D4218D10B68102B01D0112B13D10F
:101E0000536843F400035360096810290CD10A4950
:101E10000A4A0968B1FBF2F101EB8101490000E0D7
:101E2000491E00910029FBD180F83C40002078BD7C
:101E30000023014000200140A000002040420F008C
:101E40007047704770B5044600680668456816F02C
:101E5000020F05F020012AD049B3216CC90603D432
:101E6000216C41F400712164816811F0405F17D149
:101E7000217EA9B9C16A11F4700F02D081684905A9
:101E80000ED4416821F020014160206C20F4807064
:101E90002064206CC00403D4206C40F00100206456
:101EA0002046FFF7CDFF21686FF01200086016F0A2
:101EB000040F05F0800132D089B3206CC00603D432
:101EC000206C40F4005020642068816811F4401FA9
:101ED0001ED1816B11F4401F02D08168490517D4CF
:101EE0004168490514D4816811F0405F10D1217E0A
:101EF00071B9416821F080014160206C20F480506C
:101F00002064206CC00503D4206C40F001002064E4
:101F10002046FFF7EDFE21686FF00C00086016F018
:101F2000010F05F040010FD071B120680068C007B3
:101F30000AD0206C40F480302064204600F043F842
:101F400021686FF00100086016F0200F05F0806135
:101F50000ED000290CD0606C40F002006064206854
:101F60006FF0200505602046FFF76BFF20680560D5
:101F700070BD70B504004FF0000503D0206C002642
:101F800010B107E0012070BD204600F01DF8666426
:101F900084F83C60206CC00610D4206C20F488507B
:101FA00040F0020020642046FFF75EFD6664206C6E
:101FB00020F0020040F00100206400E0012584F8D8
:101FC0003C60284670BD704710B586B004461421A9
:101FD0006846FEF796FA15492068884224D11448CD
:101FE0000021026842F480720260006800F4807090
:101FF00005900F481438026842F001020260006840
:1020000000F001000590042000900320CDE90101BB
:102010006946084800F054FC00221146122000F0E6
:10202000C5FD122000F0B4FD06B010BD0020014037
:10203000443802400000024090F82020012A07D0D6
:10204000022A05D0416A41F4802141620120704793
:10205000006842690A43426100207047F0B590F879
:1020600020500468A468012D05D0022D03D0416AD8
:1020700041F4802157E014F0406F01D1E5004FD5C5
:10208000C4F301640125A5401D608D684FF4C07341
:102090009DB1CE6835434E6845EAC605066803EB38
:1020A0000417F5514FF4C275076805EB04150E6966
:1020B0007E51097D012905D009E00E88CD6845EAE9
:1020C0004655EBE701684E5946F480764E5111793A
:1020D000D579567941EA056195792D0445EA0625B9
:1020E00029434FF4C676056806EB0416A95111780A
:1020F000D57841EA0561957852782D0445EA0222A7
:1021000011434FF4C475026805EB04155151006882
:1021100003EB0411425842F0010242500020F0BD8E
:10212000416A41F4001141620120F0BD10B590F800
:102130002020012A07D0022A05D0416A41F48021DB
:102140004162012010BD3B48D0F8002242F001025C
:10215000C0F80022D0F8002222F47C52C0F80022FD
:10216000D0F800224B6A42EA0322C0F800220A7D1E
:1021700002F01F0301229A40D0F81C329343C0F8AA
:102180001C32CB69B3B9D0F80C329343C0F80C328F
:102190008C894B6864F31F434C6900EBC404C4F89A
:1021A00040320C890B6864F31F434C6900EBC40494
:1021B000C4F84432CB69012B16D1D0F80C3213434A
:1021C000C0F80C320C884B6864F31F434C6900EB79
:1021D000C404C4F840320C89CB6864F31F434C69D3
:1021E00000EBC404C4F844328B69002BD0F80432ED
:1021F0000ED01343C0F804320B69002BD0F8143210
:1022000008D01343C0F81432096A012904D008E049
:102210009343EFE79343F5E7D0F81C121143C0F85E
:102220001C12D0F8001221F00101C0F800120020A9
:1022300010BD000000640040704770B590F8204069
:10224000012C05D0022C03D0416A41F4802128E002
:10225000046809B32469A40720D04FF4D874056832
:1022600004EB01142D5915F00405956005682D59EE
:102270001AD0ED08556005682C5904F00204D460AA
:102280004FF4DA74056804EB01142E5906F00F06BA
:10229000082E0CD308250DE0E468DCE7416A41F420
:1022A00000114162012070BD6D0D1560E3E72D59ED
:1022B00005F00F05156105682D59C5F307259561D2
:1022C00005682C59240C54614FF4DC72046802EB4D
:1022D0000112A4581C700468A458240A5C70046895
:1022E000A458240C9C700468A258120EDA704FF4A3
:1022F000DE72046802EB0112A4581C710468A45831
:10230000240A5C710468A458240C9C710468A258C7
:10231000120EDA71006829B1016941F020010161F2
:10232000002070BDC16841F02001C160F8E72DE9CF
:10233000F05F0546006800244669D0F8049087687D
:10234000D0F80CB0D0F810A0D0F81880F10748D021
:10235000F90714D001218160B80703D5284600F0A1
:1023600088FA0CE0780702D54FF4006407E03807DC
:1023700002D54FF4805402E0284600F079FAF805BF
:1023800016D529684FF480708860B80503D52846B3
:1023900000F071FA0CE0780502D544F4005407E02F
:1023A000380502D544F4804402E0284600F062FA81
:1023B000F80316D529684FF480308860B80303D538
:1023C000284600F05AFA0CE0780302D544F40044A1
:1023D00007E0380302D544F4803402E0284600F0D8
:1023E0004BFA300707D55FEACB6004D52968102087
:1023F00044F40074C86070074FF0080707D55FEA1F
:102400000B7004D52868C760284600F081F9B00732
:1024100006D52868C068800702D0284600F07AF9FF
:10242000700607D55FEACA6004D52968102044F415
:1024300080640861B00607D55FEA0A7004D5286891
:102440000761284600F0A4F9F00606D5286800695F
:10245000800702D0284600F09DF9B00308D55FEA56
:10246000C96005D5296810204860284600F0D2F9D7
:10247000F00307D55FEA097004D52868476028464D
:1024800000F0FCF9300446D55FEA497040D5F0050C
:1024900004D55FEAC87001D044F00104B00504D54A
:1024A0005FEA887001D544F00204700504D55FEA44
:1024B000487001D544F00404300529D518F0700F98
:1024C00026D008F07000402815D006DC102809D06E
:1024D00020280AD0302816D10AE050280ED06028D3
:1024E00011D10EE044F008040DE044F010040AE0BD
:1024F00044F0200407E044F0400404E044F0800489
:1025000001E044F480742868816921F070018161E0
:10251000296804204860002C05D0686A204368625E
:102520002846FFF789FEBDE8F09F70B5040003D090
:1025300094F8200010B104E0012070BD204600F0A6
:1025400091F82068016841F00101016000F0BEFAD5
:102550000546052604E000F0B9FA401B0A2811D808
:1025600020684068C007F6D02068016821F00201A9
:10257000016000F0ABFA05460BE000F0A7FA401B43
:102580000A2806D9606A40F40030606284F820604E
:10259000D2E7206840688007EFD4207E01282068B9
:1025A00001683DD021F080010160607E0128206833
:1025B000016838D021F040010160A07E0128206828
:1025C000016833D021F020010160E07E01282068FD
:1025D00001682ED041F010010160207F01282068A1
:1025E000016829D021F008010160607F012820687E
:1025F000016824D021F004010160D4E902010843FC
:10260000D4E90412114308436168491E0843216854
:10261000C86100206062012084F82000002070BDA5
:1026200041F08001C0E741F04001C5E741F02001E1
:10263000CAE721F01001CFE741F00801D4E741F0EB
:102640000401D9E70346002093F82020012A01D095
:10265000022A05D11A6889069268914300D00120A8
:102660007047000010B586B0044614216846FDF797
:1026700048FF24492068884241D12348002102684C
:1026800042F000720260006800F0007005901E4881
:102690001038026842F002020260006800F0020096
:1026A00005904FF4407000900220CDE90101032015
:1026B0000390092004906946144800F001F90022B3
:1026C0001146132000F072FA132000F061FA002284
:1026D0001146142000F06AFA142000F059FA002282
:1026E0001146152000F062FA152000F051FA002280
:1026F0001146162000F05AFA162000F049FA06B0EA
:1027000010BD000000640040403802400004024058
:102710007047000010B51B4B1B4A0021FFF78DFDD1
:10272000194801681748A1F58072813A06D00078EF
:10273000602820D080281DD1FFF744FAC178827824
:10274000090601EB0241427801EB022102781144B3
:102750004FF47A7291FBF2F20A4914398A80C279F5
:102760008379120602EB03424379007902EB0322DC
:102770001044C86010BDBDE810404FF4005103483C
:1027800000F096B9200000204C010020000C02400F
:102790007047000010B51C4B1C4A0121FFF74DFD8E
:1027A0001A4801681848B1F5C17F06D00078602842
:1027B00022D080281FD1FFF705FAC1788278090658
:1027C00001EB0241427801EB0221027811444FF4FF
:1027D0007A7291FBF2F14A420B491439CA80C279EC
:1027E0008379120602EB03424379007902EB03225C
:1027F00010444042086110BDBDE810404FF4005144
:10280000034800F055B90000200000204C010020D2
:10281000000C02407047000070B5044690F820009C
:10282000012804D0606A40F40020606218E00220B1
:1028300084F820002068016821F00101016000F0A7
:1028400045F905460EE000BF00F040F9401B0A289C
:1028500008D9606A40F400306062052084F82000E6
:10286000012070BD20684068C007EDD1606270BD76
:102870007047704770477047704770477047000057
:1028800070B5044600F022F90546601C02D00448E9
:102890000078044400F01AF9401BA042FAD370BD3E
:1028A0009400002070470000044910B50A680242F5
:1028B00002D00860FFF7F6FF10BD0000143C014095
:1028C0002DE9F84FDFF8BCA10022012503264FF0C7
:1028D0000F090AF1040BAAF1040E00BF0B6805FAF8
:1028E00002F42340A34270D10F7907F00307012FB0
:1028F00001D0022F16D187684FEA420806FA08FC79
:1029000027EA0C07D1F80CC00CFA08FC4CEA070CBB
:10291000C0F808C04768A7430C79C4F3001494407A
:102920003C4344600C79E443A4070AD0C4684FEAEE
:10293000420C06FA0CF7BC438F6807FA0CF72743E2
:10294000C7600C7904F00304022C12D1D40800EB08
:10295000840CDCF820405707FF0E09FA07F824EA38
:102960000804D1F8108008FA07F848EA0408CCF8FF
:10297000208004684FEA420C06FA0CF7BC430F793A
:1029800007F0030707FA0CF7274307604C6814F4B5
:10299000403F70D03C4C276847F48047276024684C
:1029A00022F0030704F480440094384C07EB040C35
:1029B000DCF8084897074FEA177809FA08F7BC438C
:1029C000334FB84202D1002724E054E0314FB842DF
:1029D00001D101271EE0304FB84201D1022719E092
:1029E0002E4FB84201D1032714E02D4FB84201D138
:1029F00004270FE02B4FB84201D105270AE02A4FE8
:102A0000B84201D1062705E0284FB84201D1072777
:102A100000E0082707FA08F72743CCF80878DAF827
:102A200000405746D1F804C09C435FEACC2C00D547
:102A30001C433C60DBF800405F46D1F804C09C4377
:102A40005FEA8C2C00D51C433C60DEF800407746E2
:102A5000D1F804C09C435FEA8C3C00D51C433C6029
:102A6000084F083F3C68D1F804C09C435FEACC3C67
:102A700000D51C433C60521C102AFFF42FAFBDE868
:102A8000F88F0000083C014044380240003001400B
:102A9000000002400004024000080240000C024016
:102AA000001002400014024000180240001C0240C6
:102AB000426921EA02030A4043EA02418161704708
:102AC0000AB1816170470904FBE700000148806892
:102AD0007047000094000020024881680278114489
:102AE00081607047940000200B4810B5016841F4E4
:102AF00000710160016841F480610160016841F486
:102B000080710160032000F071F8002000F006F8E9
:102B100000F024F8002010BD003C024070B50D4DBF
:102B200004464FF47A712878B1FBF0F00A4909683D
:102B3000B1FBF0F001F016F848B9102C07D20022D2
:102B40002146501E00F032F800206C6070BD01205C
:102B500070BD000094000020A00000200B4882B04F
:102B6000016841F480410160006800F480400090F9
:102B70000648001F016841F080510160006800F0C4
:102B800080500090072002B000F030B84438024076
:102B9000002809DB00F01F0201219140400980005C
:102BA00000F1E020C0F8001170470000F0B40E4BB7
:102BB0001B680C46C3F30223C3F10705042D00D99B
:102BC0000425191D072901D2002300E0DB1E012680
:102BD00006FA05F1491E214099409E40761E164096
:102BE0003143F0BC03F055BB0CED00E0064900F0AA
:102BF000070208684FF6FF03184040EA0220034A24
:102C000010430860704700000CED00E00000FA057A
:102C100070470068416200207047F0B50368586A49
:102C200039B19C6A4FF4827600EB144400204D1EAB
:102C30000AE040EA024098620FE006EB8007DF59A5
:102C4000401C04EB1744C0B2A842F6D344EA024049
:102C50004FF4807202EB810158500020F0BDD0F893
:102C6000E00402F057BA01EBC10200EB8202D0F897
:102C7000E004126A02F0ACB901EBC10200EB82027F
:102C8000D0F8E004D2F8602202F0FDB9D0F8E004F8
:102C900002F042BA0A0601F00F0101EBC10100EB9C
:102CA000810101D5143101E001F51571006803F0CF
:102CB0001BB970B504460B0601F00F0000EBC00114
:102CC00004EB81014FF001024FF0000502D54A7577
:102CD000143103E081F8555201F51571087094F82C
:102CE0009404012808D084F89424206802F01AFE85
:102CF00084F89454002070BD022070BD70B5044665
:102D000001F00F002279904201D9012070BD0B061D
:102D100001F00F0101EBC10104EB81014FF0010251
:102D20004FF0000502D54A75143103E081F8555281
:102D300001F515718D70087094F89404012808D07D
:102D400084F89424206802F05FFF84F894540020F3
:102D500070BD022070BD01F00F0101EBC10100EB5D
:102D60008100D0F8680270472DE9F04104460F0653
:102D700001F00F0000EBC00104EB81014FF00106F0
:102D80004FF0000502D54E75143103E081F855521D
:102D900001F5157108708A600B714A7802B1488399
:102DA000022B00D14D7194F89404012809D084F8C5
:102DB0009464206802F008FD284684F89454BDE825
:102DC000F0810220FBE710B501F00F0404EBC40111
:102DD00000EB8101C1E998230023C1F8683281F832
:102DE000553281F85442837901F51571012B00D1D8
:102DF000CA618279006802F05FFF002010BD70B5E3
:102E000004460D4601F00F002179884201D90120C6
:102E100070BD29064FF000064FF0010206D500EB09
:102E2000C00104EB81014A75143107E005EBC501CF
:102E300004EB810181F8556201F515718A70087003
:102E400094F89404012807D084F89424206802F0B0
:102E500007FF280702D007E0022070BDA17904F225
:102E60009C42206802F0A4FE84F89464002070BDA7
:102E700010B501F00F0404EBC40100EB8101C1E9BE
:102E8000082300238B6201234B7501F8144F8379CB
:102E9000012B00D1CA618279006802F00DFF002089
:102EA00010BD00002DE9FC5F05680446284603F0CC
:102EB000B7F800287DD1206803F000F9002878D009
:102EC000D5F80808C0F30D20C4F8D404206803F036
:102ED000F5F8800704D52068416901F002014161DD
:102EE000206803F0EBF8C10604F29C40009034D552
:102EF0002068816921F0100181612F6A07F00F00BD
:102F000000EBC00004EB8006C7F3434006F51576DE
:102F1000022802D0062811D01AE047F6F0700742C6
:102F200016D0C7F30A1217462846F16803F0CAF80C
:102F3000F0683844F0607069384408E00822284698
:102F4000009903F0BFF87069C7F30A110844706173
:102F50002068816941F010018161206803F0AEF8BA
:102F600000034FF0080B4FF0000A4FF001097CD529
:102F70000026206803F081F8074674E0F80770D057
:102F8000F1B2206803F092F88046C00707D005EB45
:102F90004611C1F8089B3146204601F0E9F95FEA85
:102FA000087024D505EB4611C1F808BB2068016CF8
:102FB00000E023E200EB46100191D0F8082BFB4B18
:102FC000994205D9110403D54FF40041C0F8081BFC
:102FD000204600F000FBF5490198884207D9A07906
:102FE000012804D120680121009A02F0E1FD5FEA86
:102FF000C86004D505EB46111020C1F8080B5FEA44
:1030000088701DD56869000605D5D5F8040840F418
:103010008061C5F8041806EBC60004EB800090F848
:10302000571200F51570012905D180F803A0F1B2FF
:10303000204600F0E9F905EB46110220C1F8080B23
:103040005FEA886004D505EB46102021C0F8081B14
:103050005FEA884005D505EB46104FF40051C0F8F3
:10306000081B7F08761C002F88D1206803F026F803
:1030700040036ED5206802F0F9FF0746002666E09F
:10308000F80762D0F1B2206802F0FEFF8046C00768
:1030900023D006F00F01D5F8342809FA01F18A434C
:1030A000C5F8342805EB4611C1F80899A079012824
:1030B0000FD106EBC60004EB8000D0E907211144D4
:1030C000016236B9606A20B920680121009A02F0D5
:1030D0006FFDF1B22046FFF7C6FD5FEA087003D529
:1030E00005EB4611C1F808B95FEAC86004D505EBE5
:1030F00046111020C1F808095FEA486004D505EBC5
:1031000046104021C0F808195FEA887016D531468C
:10311000284602F05AFF06EBC60004EB8000C17D92
:103120001430012905D180F803A0F1B2204600F047
:1031300067F905EB46110220C1F808095FEA08604B
:1031400003D53146204601F079F97F08761C002F1F
:1031500096D1206802F0B2FF002811DAD5F80408F1
:1031600020F00101C5F8041894F8CC0401282BD0F4
:10317000204600F015FA2068416901F000414161E4
:10318000206802F09BFF00050BD5D5F80808C007A2
:1031900002D0204600F048FA2068416901F400613D
:1031A0004161206802F08AFFC00467D5D5F80408A1
:1031B00020F00100C5F804081021206802F005FF86
:1031C00000214FF67F3220E084F8CCA40021204675
:1031D000FFF71EFDCFE700BF05EB4110C0F808293F
:1031E000D0F8003923F40013C0F80039C0F8082BD8
:1031F000D0F8003B23F40013C0F8003BD0F8003BAC
:1032000043F00063C0F8003B491C20798842E3D8B2
:10321000D5F81C0840F00111C5F81C18E07B002807
:1032200028460DD0D0F8840840F00B01C5F884186A
:10323000D5F8440840F00B012846C5F844180DE0C5
:10324000D0F8140842F22B010843C5F81408D5F849
:10325000100840F00B012846C5F81018D0F80008F7
:1032600020F4FE61C5F80018A1792068009A02F0E8
:103270009FFC2068416901F480514161206802F09F
:103280001DFF800415D5206802F0DEFA206802F0E8
:10329000BAFEE07100F07AFA0146E279206802F0A5
:1032A0006FFF204600F066F92068416901F4005183
:1032B0004161206802F002FF000707D5204600F0B8
:1032C00073F92068416901F008014161206802F04A
:1032D000F5FE000616D5A86920F08001A961012637
:1032E0000DE000BF06EBC60004EB800090F857022B
:1032F000012803D1F1B22046FFF7CCFC761C2079DF
:10330000B042EFD8206802F0D9FEC0021FD50126D6
:103310004F4614E005EB4610D0F8001906EBC60046
:1033200004EB8002107E012808D1002906DAF0B2F1
:1033300040F08001D7752046FFF7ACFC761C207961
:10334000B042E7D82068416901F4801141612068EA
:1033500002F0B4FE800234D501204A4629E000BFC5
:1033600005EB4011D1F8001B00EBC00304EB830315
:1033700093F85862012E1BD1002919DA94F8D4640D
:1033800001F4803106F00106B14211D183F85722D1
:10339000A96941F08003AB616969090608D4D5F8D1
:1033A000040840F40070C5F8040805E00A30544FE2
:1033B000401C21798142D3D82068416901F4001171
:1033C0004161206802F07AFE400007D52046FFF7F1
:1033D00046FC2068416901F080414161206802F0AB
:1033E0006DFE40070AD520684568680702D520466B
:1033F000FFF74CFC2068416829434160BDE8FC9F11
:10340000D0F8E00401F0DBBED0F8E00401F0EBBE40
:10341000F8B5040005D094F895042668002510B18D
:1034200006E00120F8BD84F89454204600F056F8D8
:10343000032084F89504B6F1A04F00D1A57120684F
:1034400002F0B0FB207C8DF8000094E80F0002F041
:1034500009FA0226B8BB0021206802F052FE90BB98
:10346000002001270DE000BF00EBC00104EB81014B
:103470004F750875C8850D76CD610D62401CC0B2D0
:103480004D6221798142EFD8002011E000EBC001AC
:1034900004EB810181F8555281F8540281F85852A9
:1034A000C1F85C52C1F86052401CC0B2C1F864520D
:1034B00021798142EAD8207C8DF8000094E80F0041
:1034C00002F0B2FA10B184F89564AAE7657484F842
:1034D0009574206802F09AFA0020F8BD30B587B0E4
:1034E000044614216846FDF70CF82068B0F1A04F9F
:1034F00039D11E480024016841F0010101600068D3
:103500001B4D00F0010005904FF40070CDE9000460
:10351000694628460294FFF7D3F94FF4C050009053
:103520000220CDE90104032003900A20049069469B
:103530002846FFF7C5F90D48001D016841F08001DC
:1035400001600A481430016841F48041016000685C
:10355000002200F48040059011464320FFF726FB2F
:103560004320FFF715FB07B030BD000030380240A4
:103570000000024070B50446C079012570B10228F0
:1035800001D0FEF7ABFB2946D4F8E00401F099FE28
:10359000D4F8E004BDE8704001F04EBE0025F2E72B
:1035A000D0F8E00401F076BED0F8E00401F07CBE73
:1035B00010B5044690F8940401280AD0012084F83C
:1035C00094046174206802F0CAFD002084F8940419
:1035D00010BD022010BDD0F8E02400F29C4110463E
:1035E00001F07BBE10B50446006894F894140129DC
:1035F00009D0012184F89414C168490609D5617B7A
:10360000012902D005E0022010BD816B41F4803118
:103610008163206802F0B7FC206802F0E9F900201D
:1036200084F8940410BD000010B50446D0F8E004FE
:1036300001F095FE2068D0F8001E41F00101C0F8AD
:10364000001EE07A002804D00248016841F006011B
:10365000016010BD10ED00E02DE9F0470E460500B9
:1036600065D0DFF81481D8F80000F7B200F0070049
:10367000B04207D288F80070D8F8000000F00700C8
:10368000B04254D128683D4C810712D5400703D57C
:10369000206840F4E05020602878000703D52068B7
:1036A00040F4604020602068A96820F0F0000843E2
:1036B00020602878C0072DD0304968680839012873
:1036C00012D0022813D0032811D0096889070029D5
:1036D0002DDA216821F0030101432160FFF7F6F99B
:1036E000814641F2883A0EE009688903EFE70968EC
:1036F0008901ECE7FFF7EAF9A0EB0901514502D98E
:103700000320BDE8F0872068696800F00C00B0EB8A
:10371000810FEFD1D8F80010404601F00701B14207
:1037200007D90770006800F00700B04201D00120FF
:10373000E7E72878400705D52068E96820F4E050DD
:10374000084320602878000706D52068296920F4FE
:10375000604040EAC100206000F01EF82168084A7D
:10376000C1F30311515CC84006490860064800686F
:10377000FFF7D4F90020C4E7003C024008380240BB
:1037800042730008A0000020980000200148006853
:1037900070470000A0000020154810B5006810F028
:1037A0000C02144813D04110042A0FD0082A0ED15D
:1037B0000F4C241F2268236802F03F025B0207D5EA
:1037C0002068C0F38810A0FB010106E0084610BD88
:1037D0002168C1F38811A1FB00010023FCF776FDED
:1037E0002168C1F30141491C4900B0FBF1F010BD53
:1037F000083802400024F4002DE9F84F04006ED090
:103800002078DFF84C93C007A9F104054AD009F1EC
:1038100004000168C1F38101012908D00068C0F3E8
:10382000810002280AD1D9F80000400206D5286894
:10383000800337D560680028E1D033E06068B0F5D8
:10384000803F10D0B0F5A02F286810D020F4803031
:103850002860286820F4802028606068A8B1FFF7FD
:1038600035F906460DE0286840F48030F4E740F46E
:1038700080202860F7E700BFFFF728F9801B642845
:1038800073D828688003F7D50CE0FFF71FF90646C8
:1038900005E000BFFFF71AF9801B6428F0D82868FC
:1038A0008003F7D42078DFF8AC8280074FF0000A5D
:1038B0003ED5A748001D016811F00C0F08D0006824
:1038C000C0F3810002280BD1D9F80000400207D4D0
:1038D0002868800716D5E068012800D112E033E19E
:1038E000E068B8B10120C8F80000FFF7EFF806461D
:1038F00005E000BFFFF7EAF8801B0228C0D828685F
:103900008007F7D52868216920F0F80040EAC10057
:1039100028600DE0C8F800A0FFF7D8F8064604E0DC
:10392000FFF7D4F8801B02281FD828688007F7D437
:103930002078000722D5864F87486169703771B1BA
:1039400001210160FFF7C2F8064604E0FFF7BEF868
:10395000801B022809D838688007F7D50EE0C0F828
:1039600000A0FFF7B3F8064605E082E0FFF7AEF8E7
:10397000801B02287DD838688007F7D4207840075C
:1039800068D5DFF8CCB100270BF13C0BDBF8000069
:10399000C0000BD4DBF8001041F08051CBF80010D0
:1039A000DBF80000012700F0805000906B4E30687B
:1039B000C00510D4306840F480703060FFF786F89E
:1039C000009005E0FFF782F80099401A022850D8CD
:1039D0003068C005F6D55E4EA0686C3601280FD061
:1039E0000528306810D020F001003060306820F0E9
:1039F00004003060A068B8B1FFF768F800900FE0ED
:103A0000306840F00100F4E740F004003060F7E770
:103A1000FFF75CF80099411A41F28830814266D87C
:103A200030688007F4D50EE0FFF750F8009007E00B
:103A3000FFF74CF80099411A41F28830814256D87C
:103A400030688007F4D42FB1DBF8001021F08051EA
:103A5000CBF80010A069C8B33D49091D0968C1F33E
:103A6000810102294AD00228504607D0C8F86000D8
:103A700000E03CE0FFF72AF804463BE04746C8F880
:103A80006000FFF723F8064605E000BFFFF71EF8C9
:103A9000801B02282BD828688001F7D4D4E90701BD
:103AA0000843A16A2E4A490802EB0141626A41EAD1
:103AB0008211084394F82C1040EA0161C9F8001003
:103AC00001203866FFF702F8044606E03EE000BF3A
:103AD000FEF7FCFF001B022809D828688001F7D5F3
:103AE00034E000BFFEF7F2FF001B022802D90320DA
:103AF000BDE8F88F28688001F4D427E00128F7D0CA
:103B0000D9F80000E26900F4800191421CD1226AD8
:103B100000F03F01914217D147F6C071626A01403F
:103B2000B1EB821F10D1A26A4FF0FF3300F4403195
:103B300003EB5202B1EB024F06D194F82C1000F0C7
:103B40007060B0EB016F01D00120D1E70020CFE71A
:103B50000438024000004742800E47420070004097
:103B60000000FFFF10B5401EB0F1807F01D301209F
:103B700010BD4FF0E02460610F21601702F089FB57
:103B80000020A06107202061002010BD7047704711
:103B900070B590F83C20012A32D0012480F83C40D6
:103BA000022280F83D2003685A689D6822F0700662
:103BB0000A6832435A60134B02689A4214D0B2F139
:103BC000804F11D0104B9A420ED0104B9A420BD01E
:103BD0000F4B9A4208D00F4B9A4205D00E4B9A4297
:103BE00002D00E4B9A4204D1496825F08003194354
:103BF000916080F83D40002180F83C10084670BD7F
:103C0000022070BD00000140000400400008004098
:103C1000000C00400004014000400140001800403A
:103C200010B5040003D094F83D0010B107E0012066
:103C300010BD002084F83C00204600F01FF8022050
:103C400084F83D00211D206800F0EEFC012084F87E
:103C5000460084F83E0084F83F0084F8400084F871
:103C6000410084F8420084F8430084F8440084F85A
:103C7000450084F83D00002010BD000008B5016833
:103C80001748B1F1804F0BD0164A914210D101680C
:103C900041F002010160006800F00200009008BDE0
:103CA000016841F001010160006800F00100F5E7E2
:103CB0000D488142F3D10A48001D016841F480316A
:103CC00001600068002200F4803000901146182046
:103CD000FEF76CFFBDE808401820FEF759BF000052
:103CE00040380240000400400040014090F83D1080
:103CF000012901D001207047022180F83D100068A1
:103D00001149884214D0B0F1804F11D00F49884238
:103D10000ED00F4988420BD00E49884208D00E4978
:103D2000884205D00D49884202D00D49884204D10D
:103D3000816801F00701062903D0016841F0010103
:103D400001600020704700000000014000040040B6
:103D500000080040000C0040000401400040014009
:103D60000018004090F83D10012901D00120704753
:103D7000022180F83D100168CA6842F00102CA6061
:103D800000681149884214D0B0F1804F11D00F491A
:103D900088420ED00E4988420BD00E49884208D086
:103DA0000D49884205D00D49884202D00C4988420D
:103DB00004D1816801F00701062903D0016841F0B0
:103DC0000101016000207047000001400004004034
:103DD00000080040000C0040000401400040014089
:103DE0000018004070B5044690F83C0000250128FA
:103DF00017D0012684F83C60022084F83D0020683A
:103E0000826822F0770222F47F428260086850289C
:103E100038D00DDC20284FD005DC90B3102811D10C
:103E20004AE0022070BD302846D040280AD13BE04D
:103E300060282FD070280DD0B0F5805F03D0B0F58A
:103E4000005F12D0012584F83D60002084F83C001A
:103E5000284670BDCB68D1E90121206800F050FCF4
:103E60002068816841F0770109E0CB68D1E9012140
:103E7000206800F045FC2068816841F48041816041
:103E8000E1E719E0CA684968206800F04BFC50215E
:103E9000206806E0CA684968206800F054FC602188
:103EA000206800F037FCCEE7CA684968206800F057
:103EB00039FC40212068F4E7226801461046F0E70B
:103EC00070472DE9F04104460068C66805694FF067
:103ED0000007A90713D5B10711D5F91E016101200B
:103EE0002077206880698007204602D0FFF7E8FF2E
:103EF00004E000F07EF8204600F07CF827776807A1
:103F000016D5700714D521686FF0040008610220EF
:103F100020772068806910F4407F204602D0FFF7A8
:103F2000CFFF04E000F065F8204600F063F8277743
:103F3000280715D5300713D521686FF008000861F0
:103F4000042020772068C0698007204602D0FFF750
:103F5000B7FF04E000F04DF8204600F04BF827775B
:103F6000E80616D5F00614D521686FF01000086138
:103F7000082020772068C06910F4407F204602D0D6
:103F8000FFF79EFF04E000F034F8204600F032F81E
:103F90002777E80708D0F00706D021686FF0010006
:103FA0000861204600F027F8280608D5300606D517
:103FB00021686FF0800008612046FFF7E7FD680682
:103FC00008D5700606D521686FF0400008612046CC
:103FD00000F012F8A8060AD5B00608D521686FF0DF
:103FE000200008612046BDE8F041FFF7D0BDBDE8E4
:103FF000F0817047704770477047FEE7F0B50023C7
:104000000A24302537261F4611E000BFB4EB107F8D
:1040100002D905EB107C01E006EB107C01F813C01F
:1040200001EB430C00015B1C8CF80170DBB2934286
:10403000ECD3F0BD7FB5002416480094019402949F
:104040001349039401604FF48031C0E90114046105
:10405000047680F820400903C1620125C5614FF054
:10406000C061C460816280F830404561FDF781FF26
:1040700008B1FDF733FE0220CDE900056946029440
:104080000448FDF737FE002801D0FDF727FE7FBD6D
:10409000002001406801002030B52B488BB0294931
:1040A000016006210024C0E901144FF42021C0E979
:1040B00003414FF480114161047644768476C476DE
:1040C00004774477FEF731FA08B1FDF707FE05944F
:1040D0004BF22000CDE900040125089543F22000B1
:1040E0000795CDE9020404940E20099006956946CF
:1040F0001548FEF71BF808B1FDF764FD4BF24000D0
:104100000595CDE9000402AA4FF4415082E8310040
:1041100069460D48FEF70AF808B1FDF753FD122174
:104120000948FDF789FF08B1FDF74CFD0120FEF7B6
:10413000A7FB0548FEF770FB002801D0FDF742FD04
:104140000BB030BD00640040B0010020F0B587B076
:1041500014216846FCF7D5F922480024016841F093
:1041600080010160016801F080010591016841F062
:1041700001010160016801F001010591016841F050
:1041800008010160016801F008010591016841F032
:10419000020101600068144F00F002004FF4704605
:1041A0000590002231463846FEF78AFC01254FF47F
:1041B00088100095CDE9010469460C48FEF780FBA4
:1041C0000096CDE90154694638460394FEF778FB22
:1041D000002211460620FEF7E9FC0620FEF7D8FC77
:1041E00007B0F0BD30380240000C02400000024031
:1041F00010B586B0002417480094019402940394EB
:1042000004944FF080410594016042F2CF01C0E96F
:10421000011441F28731C0E903148461FFF700FD06
:1042200008B1FDF75BFD4FF48050009069460948E6
:10423000FFF7D8FD08B1FDF751FD2020CDE90404BA
:1042400004A90448FFF7A4FC002801D0FDF746FDAF
:1042500006B010BDD801002010B586B00024174864
:10426000009401940294039404941349059401600A
:104270005321C0E901144FF6FF71C0E903148461B2
:10428000FFF7CEFC08B1FDF729FD4FF480500090F8
:1042900069460A48FFF7A6FD08B1FDF71FFD049423
:1042A00004A906480594FFF773FC002801D0FDF728
:1042B00015FD06B010BD00000004004020020020E3
:1042C0001FB5002110480091019102910D4A039100
:1042D0000260A722C0E9012142F20F72C0E9032166
:1042E0008161FFF79DFC08B1FDF7F8FC4FF48050A9
:1042F000009069460448FFF775FD002801D0FDF7DE
:10430000EDFC1FBD004001406802002010B50022F6
:104310000F49104800F037FE08B1FDF7DFFC0E49E9
:104320000C4801F048F808B1FDF7D8FC0B490948E2
:1043300000F0E2FB08B1FDF7D1FC064801F0BEF841
:10434000002803D0BDE81040FDF7C8BC10BD000038
:1043500028000020B0020020FC000020780000208F
:10436000FEE7FEE70148FEF79DBD0000AC19002006
:104370002DE9F04103680D4604461E6C03EB451120
:10438000D1F8080B94F806E04FF400474FF0200CEA
:1043900004F29C42BEF1010F09D0DFF898E07645A7
:1043A00039D1020432D500BFC1F8087B3FE0224B6F
:1043B0005FEA007E04D59E4239D90004F4D436E089
:1043C0005FEA806E02D5C1F808CB30E010F0280F0C
:1043D0002DD19E4201D90004E6D405EBC50004EBC3
:1043E0008000D1F8101BD0F87432C1F31201591AB1
:1043F000C0F8681200F51570ADB903691BB1C26849
:104400001144C1600FE0012120680AE080060AD54E
:10441000C1F808CB07E035B9D4F8640218B9002117
:10442000184601F0C5FBE9B22046FEF725FC002046
:10443000BDE8F0810A31544F0A30544F2DE9F84F4E
:104440000E4601EBC60100EB810481460568D4E904
:1044500009101434884202D90120BDE8F88F081AE7
:10446000A168814200D20846C01C870805EB4618A7
:104470001BE000BFA0EB010AA068504500D28246B5
:104480000AF10300870899F8060000901FFA8AF3E2
:10449000F2B22846E16801F0E7FEE16801EB0A00AC
:1044A000E060616901EB0A006061D8F8180980B228
:1044B000B84205D3D4E90401814201D20028D9D100
:1044C000D4E90401884208D806F00F010120884091
:1044D000D5F834188143C5F834180020BDE770477B
:1044E00006480C2101703221417000210181418177
:1044F0008180C180C1600161704700000C00002014
:1045000070470178407841EA00207047FEF7E4BA2E
:1045100030B593B030216846FBF7F3FF14210CA8A7
:10452000FBF7EFFF1C480025016841F08051016056
:10453000006800F0805011901848016841F48041F3
:1045400001600068022400F4804011900120009076
:10455000000401908001CDE90640082008904FF446
:10456000A870CDE9090407200B906846FFF744F9CD
:1045700070B90CA90F2081E831004FF4A0500F90C2
:10458000E002109005210CA8FFF766F8002801D082
:10459000FDF7A4FB13B030BD40380240007000406E
:1045A0000248016841F470010160704788ED00E045
:1045B00038B5184D2869C00726D0174C6088401CB4
:1045C00000B26080322806DD4FF400411348FEF748
:1045D0006FFA00206080B4F90810114802F0C8FAA0
:1045E000B4F90A100E4802F0A7FA94F900000090FE
:1045F000D4E90323B4F90610B4F9040001F05AFE1B
:10460000286920F001002861BDE838400548FFF71F
:1046100058BC0000004001400C000020000C02408B
:10462000B001002068020020F0B50268294C2A4D34
:104630002A4E2B4F2B4B4FF0804CA04209D06045A7
:1046400007D0A84205D0B04203D0B84201D098426A
:1046500004D122F0700E4A6842EA0E02A0421BD03A
:10466000604519D0A84217D0B04215D0B84213D037
:10467000984211D01C4DA8420ED01C4DA8420BD020
:104680001B4DA84208D01B4DA84205D01A4DA84288
:1046900002D01A4DA84203D122F44075CA682A43B9
:1046A0004D6922F080022A4302608A68C2620A6869
:1046B0008262A04201D0984201D1096901630121BF
:1046C00041610169C90703D0016921F0010101615C
:1046D000F0BD000000000140000400400008004060
:1046E000000C004000040140004001400044014033
:1046F0000048014000180040001C0040002000401D
:1047000010B5846842EA032224F47F440A4322431A
:10471000826010BD826822F070020A4342F00701F5
:104720008160704710B5036A046A24F001040462D2
:10473000846924F0F00444EA021423F00A020A43D4
:104740008461026210BD10B5036A046A24F010048B
:104750000462846923F0A00324F4704444EA023222
:1047600043EA01118261016210BD2DE9F0410C465E
:10477000D0F8D412D0F8C82200EB8101D1F8C012D1
:1047800029B304F00F0606EB860300EB8305002730
:10479000AB694BB106EBC60602EB8602D269B3FBEE
:1047A000F2F602FB1632A2B1C1F81472D0F8D4228C
:1047B00000EB8200D0F8C40203692BB1D1F80802E3
:1047C000224601F5047198470020BDE8F0810320DE
:1047D000FBE700231A462146AF6100F0CDFDF3E769
:1047E00070B50546D0F8D40205EB8000D0F8C04281
:1047F00094B1284600F09FFCC4F80C02D5F8D412FE
:10480000D4F8040205EB8101D1F8C412CA6804F59A
:1048100003719047002070BD032070BD70B5224D1C
:104820000446297800F0CBFB2878002600F00F0022
:1048300000EB800004EB800086846978204600F05D
:10484000BEFB687800F00F0000EB800004EB8000F6
:10485000A0F86461A978204600F0B1FBA87800F0C8
:104860000F0000EB800004EB80008684C684D4F83F
:10487000D40204EB8000D0F8C01299B1D0F8C40281
:1048800040688047D4F8D40204EB8000D0F8C0021E
:1048900000F095FFD4F8D40204EB8000C0F8C062A9
:1048A000C4F8BC62002070BDA800002010B5D0F88C
:1048B000D41200EB8100D0F8C04284B1D0F8C41209
:1048C00059B194F80002FF2807D08B6894F80122B0
:1048D00021469847FF2084F80002002010BD0320E5
:1048E00010BD00000A21018000487047AC00002084
:1048F00070B5064682210C4800F0F1FA0546012108
:10490000094800F0ECFA04468121074800F0E7FA74
:104910000DB11021A971402104B1A18000B18180A5
:1049200043203080004870BDB800002070B50646B6
:1049300082210D4800F0D3FA054601210A4800F013
:10494000CEFA04468121084800F0C9FA0DB11021C1
:10495000A9714FF4007104B1A18000B1818043209E
:104960003080014870BD0000B800002070B50646D8
:1049700082210C4800F0B3FA05460121094800F0F5
:10498000AEFA04468121074800F0A9FA0DB11021C2
:10499000A971402104B1A18000B181804320308001
:1049A000004870BDB80000202DE9F04704464FF4E0
:1049B0000775284600F004FF06004FF0000863D09A
:1049C0002946FBF79EFDD4F8D4023C4D04EB800051
:1049D0004FF01009C0F8C062C4F8BC62207C4FF4EC
:1049E000007A0127F0B3402302222978204600F004
:1049F0000EFC2878402300F00F0000EB800004EB51
:104A00008000878402226978204600F000FC6878E4
:104A1000082300F00F0000EB800004EB800003226D
:104A2000A0F86471A978204601F00F0101EB810123
:104A300004EB8101A1F82690A97800F0E8FBA878A2
:104A400000F00F0000EB800004EB80008784C6F8C4
:104A50000482D4F8D402474604EB8000D0F8C402A4
:104A6000006800E018E006F501768047376177615D
:104A700032687AB1207CF8B140236978204600F092
:104A8000D2FB0020BDE8F087D4F8D41204EB8101FA
:104A9000C1F8C0820220F5E7534602222978204659
:104AA00000F0B5FB2878534600F00F0000EB8000C3
:104AB00004EB80008784A5E75346DEE7A8000020CA
:104AC00010B5D0F8D41200EB8101D1F8C01259B161
:104AD000027C084C002AD1F8042207D040236178D8
:104AE00000F0A1FB002010BD032010BD4FF40073A7
:104AF000F5E70000A800002039B1D0F8D42200EB7F
:104B00008200C0F8C4120020704703207047D0F81C
:104B1000D42200EB8200D0F8C00218B1C0F8041211
:104B20000020704703207047D0F8D43200EB830098
:104B3000D0F8C00228B1C0F81022C0F80812002036
:104B40007047032070472DE9FC410646D0F8D40297
:104B50000C4606EB80000021D0F8C0728DF80010E2
:104B6000ADF804100D4637B1217811F060022FD056
:104B7000202A4BD102E00320BDE8FC81E288F2B19B
:104B800009060DD5D0F8C40263783946D0F808C0BC
:104B90001846E047E288072A00D9072239462DE067
:104BA000607887F80002E088402800D34020C2B235
:104BB00087F801223946304600F081F82BE0D0F822
:104BC000C40263780022866821461846B04722E076
:104BD000607830B101281ED00A2809D00B2815D1E1
:104BE00010E096F89C02032810D1022201A905E0EA
:104BF00096F89C02032809D101226946304600F04C
:104C000078F808E096F89C02032804D02146304644
:104C100000F04AF803252846AEE7000010B5D0F8AA
:104C2000D41200EB8101D1F8C02201211AB1D2F8CF
:104C3000143213B116E0032010BD0121C2F8141282
:104C40000949D2F81032097801F00F0404EB84040A
:104C500000EB8404A361D2F81032D2F8082200F0ED
:104C60008BFB0021084610BDA800002010B5D0F82D
:104C7000B82200245268904700B10324204610BD9A
:104C80000020704700207047134610B50A460021E7
:104C900000F0C9FA002010BD134610B50A460021E5
:104CA00000F06AFB002010BD10B50446802100F022
:104CB00044FB2046BDE81040002100F03EBB10B58B
:104CC0000323C0F89432C0F858211346C0F85C2181
:104CD0000A46002100F0A7FA002010BD10B50521FA
:104CE000C0F8941200231A46194600F09CFA0020DE
:104CF00010BD10B50223C0F8943282611346C26120
:104D00000A46002100F038FB002010BD10B5042138
:104D1000C0F8941200231A46194600F02DFB00201B
:104D200010BD000010B50A46024903A000F0FBF8D0
:104D3000004810BD8C05002043444320436F6E663D
:104D40006967000012200880004870474800002072
:104D500010B50A46024903A000F0E5F8004810BD6E
:104D60008C05002043444320496E7465726661637C
:104D700065000000042008800048704744000020BF
:104D800010B50A46024903A000F0CDF8004810BD56
:104D90008C050020524F4D44594E414D494300006F
:104DA00010B50A46024903A000F0BDF8004810BD46
:104DB0008C050020524F424F54434F4D00000000DD
:104DC00010B51A2008800A480168001D0468001DFB
:104DD0000068081809D008220649FFF70FF90549AD
:104DE000042210312046FFF709F90248801E10BD49
:104DF000107AFF1F5E000020F8B504460020ADF8D1
:104E0000000048880D46010A08295FD2DFE801F05A
:104E10005E0409175E5E3C45D4F8B412207C0A6833
:104E200019E0207C02260028D4F8B80205D0C16A17
:104E3000684688470146467039E0816AF8E7C0B2A3
:104E4000062843D2DFE800F0030A1014181CD4F837
:104E5000B402426805E0694690471CE0D4F8B40209
:104E6000826892B3207CF6E7D4F8B402C268F8E70F
:104E7000D4F8B4020269F4E7D4F8B4024269F0E766
:104E8000D4F8B4028269ECE7207CF0B9D4F8B80217
:104E9000416B68468847014609E0207CA8B9D4F8F0
:104EA000B802016B68468847014607204870EA88C7
:104EB0008AB1BDF8000040B1824200D90246ADF887
:104EC00000202046FFF715FFF8BDFFE729462046E2
:104ED000FFF7EAFEF8E72046FFF718FFF4E778B59A
:104EE0000E4642880178002504468A4212D9ADF860
:104EF00000100AE0694600F00FF84178052904D156
:104F000081780546B14205D000256188BDF80020B2
:104F10009142EFD8284678BD0A8803781A440A805F
:104F200001780844704770B5002300281ED0002582
:104F3000044602E06D1CEDB2641C2678002EF9D107
:104F4000022404EB450414801278CA545B1C03222B
:104F5000CA5400245B1C06E0CA545B1CDAB28C54B1
:104F6000521CD3B2401C0278002AF5D170BD01005A
:104F70004FF0000004D0012901D0022901D0032004
:104F800070470120704778B10023C0F8B832C0F8EC
:104F9000C432C0F8D03209B1C0F8B412012180F88F
:104FA0009C12027000F0CCB80320704710B5D0F806
:104FB000C802FDF7A3FEBDE81040FFF7D8BF10B54B
:104FC000D0F8C802FDF775FEBDE81040FFF7CFBF6F
:104FD0002DE9F04117460446002521B194F89C02C2
:104FE000032842D04CE0D4F8941204F114000229B2
:104FF00035D1D0E902639E4206D9F21A8260394661
:105000002046FFF749FE0FE0B34214D140689842B2
:1050100011D3D4F8981288420DD2002211462046AE
:10502000FFF73AFEC4F8985200231A461946204664
:1050300000F0F9F813E094F89C02032808D1D4F8A2
:10504000B802C16821B1C4F8D452C168204688476B
:105050008021204600F071F92046FFF73FFE94F8CA
:10506000A00268B184F8A0520AE0D4F8B8024269FC
:1050700032B1C4F8D452426920469047002800D18A
:105080000020BDE8F08170B513460446002221B12E
:1050900094F89C02032830D03AE0D4F8941204F536
:1050A000AA70032934D1D0E902518D420AD96A1A73
:1050B00082600846824200D3024619462046FFF726
:1050C000E3FD25E094F8AA0210F01F0003D00128A8
:1050D00002D0022800D0002294F89C02032808D1B4
:1050E000D4F8B802016921B1C4F8D422016920467C
:1050F00088472046FFF70AFE0AE0D4F8B802836921
:1051000033B1C4F8D422826920469047002800D1E8
:10511000002070BD0020704710B50024012180F8E8
:105120009C12D0F8B82222B152680179904700B1A0
:105130000324204610BDD0F8C802FDF70CBE0000C5
:1051400010B5017841BB15490222C1F8E004C0F84E
:10515000C8124FF0A040086004200871CA710020F6
:1051600088714A728872C872087301228A73C87380
:105170000846FEF74DF908B1FCF7B0FD802107485D
:10518000FDF747FD402200210448FDF746FD80223F
:1051900001210248FDF741FD002010BDAC1900209F
:1051A0000A0601F07F01D0F8C80201EBC10100EB53
:1051B000810001D5807D704790F85602704710B588
:1051C000D0F8D42200EB8202D2F8B82222B190F8B3
:1051D0009C32032B02D004E0032010BD126A02B1FE
:1051E0009047002010BD10B5D0F8D42200EB820209
:1051F000D2F8B82222B190F89C32032B02D004E0FE
:10520000032010BD526A02B19047002010BD10B5B6
:105210001C461346D0F8C8022246FDF7A5FDBDE89E
:105220001040FFF7A4BE10B5D0F8C802FDF7CBFDC3
:10523000BDE81040FFF79BBE2DE9F0410026012597
:10524000044680F89C52C4F894626660C4F8A46274
:1052500080F8A062D0F8B80230B1426822B10021D3
:105260002046904700B103260022402311462046E5
:10527000FFF7CDFF4027A4F864513B460022802170
:105280002046C4F86071FFF7C2FFA584304627624C
:10529000BDE8F08190F89C12042903D190F89D128A
:1052A00080F89C120020704710B590F89C120329DA
:1052B00005D1D0F8B81211B1C96901B188470020F1
:1052C00010BD01740020704710B5D0F8C802FEF779
:1052D0006FF9BDE81040FFF74ABE70B5044600F212
:1052E000AA20054600F051F80120C4F89402B4F851
:1052F000B002C4F8980294F8AA0210F01F010AD074
:1053000001290ED0022912D000F080012046BDE80C
:10531000704000F012B829462046BDE8704000F009
:10532000CFB829462046BDE8704000F00FBA2946A4
:105330002046BDE8704000F059B910B5D0F8C80259
:10534000FDF75DFDBDE81040FFF711BE10B5D0F8C8
:10535000C802FEF747F9BDE81040FFF708BE90F815
:105360009C12042903D090F89C1280F89D1204210D
:1053700080F89C120020704710B5D0F8C802FDF7E5
:1053800077FDBDE81040FFF7F2BD70B5054611F896
:10539000010B2870087868704C1C2046FFF7B1F8A4
:1053A0006880A41C2046FFF7ACF8A880A01CFFF77B
:1053B000A8F8E88070BD38B504460020ADF80000BC
:1053C000A1B1C4F8B812D4F8D40204EB8000D0F82C
:1053D000B802C16A19B168468847C4F8D002D4F847
:1053E000D802401CC4F8D802002038BD032038BDC4
:1053F00002460020D2F8B832002B02D01B681046BB
:10540000184770472DE9F04188462B4E89780025D2
:1054100004463170012906D941462046FFF744FC75
:105420000320BDE8F08194F89C02022702280CD0EA
:1054300003281DD041462046FFF736FC3178204630
:10544000FFF714FC03252846EBE789B3204661608B
:10545000FFF7CEFF050004D041462046FFF724FCAD
:105460001DE02046FFF752FC032084F89C02EAE787
:10547000C1B1606888421BD0C1B22046FFF7F6FB7D
:10548000317820466160FFF7B3FF050010D0414638
:105490002046FFF709FC21792046FFF7E7FB84F857
:1054A0009C72D0E784F89C7220466160FFF7DEFBB7
:1054B0002046FFF72BFCC6E7A4000020FFF746BFFD
:1054C0002DE9F0410A78002512F060020CD0202A64
:1054D00001D0402A7DD1D0F8D42200EB8202D2F84C
:1054E000B8229268904731E04B78002201260A2BBF
:1054F0006FD2DFE803F041666E586E08056E2D2905
:10550000FFF77AFC67E004468888D8B9C888C8B92C
:105510004888802816D200F07F0794F89C02032860
:1055200010D084F89E7239462046FFF7CDFE204603
:10553000FFF7ECFB1FB1022084F89C024BE084F8DB
:105540009C6248E0204644E0FFF75CFF054642E0ED
:10555000CB88012B3DD190F89C32012B04D0022B3B
:1055600002D0032B35D104E08260012200F1080152
:1055700016E00122011D13E090F89C22012A03D0BD
:10558000022A01D0032A24D1CA88022A21D1C66066
:10559000D0F8A41209B10321C160022200F10C016C
:1055A000FFF7A7FB17E04A88012A02D0022A03D09E
:1055B0000FE0C0F8A46216E08988090A80F8A012FA
:1055C00011E090F89C32012B08D0022B06D0032B5F
:1055D00004D0FFF769FB2846BDE8F081498801291E
:1055E000F9D1C0F8A422FFF791FBF4E72DE9F041CF
:1055F000054608780C790E464FF0000810F0600060
:105600000BD0202801D040286AD121462846FFF738
:1056100037FBFF2800D0D8B395E07078C8B30128D5
:1056200024D003285CD195F89C02022802D00328DC
:1056300056D10CE0002C53D0802C51D02146284666
:10564000FFF77BFE80212846FFF777FE7BE070881E
:1056500040B93CB1802C05D0C88818B921462846ED
:10566000FFF76BFE2846FFF751FB6CE095F89C02B4
:105670000228DFD0032863D1708880BB600603D086
:1056800021462846FFF792FC2846FFF73FFBBCE780
:1056900000E00AE0C5F8D402D5F8B8028268F2B199
:1056A00031462846904780464DE095F89C020027F9
:1056B000022802D0032843D113E00CB1802C3FD143
:1056C000200604F07F0000EB800005EB800101D58F
:1056D000143101E001F5AA7102220F602CE032E0E2
:1056E0002EE0200604F00F0000EB800005EB8000A8
:1056F00009D5808C20B304F07F0000EB800005EB1F
:10570000800614360AE0B0F86401C8B104F07F00E6
:1057100000EB800005EB800606F5AA764CB1802CE4
:1057200007D021462846FFF73BFD10B1012030602D
:1057300000E03760022231462846FFF7DAFA02E03D
:105740002846FFF7B1FA4046BDE8F08170B505463E
:10575000087800240E4610F0600003D0202801D005
:10576000402827D195F89C02012803D0022801D0B7
:1057700003281FD1B088C1B201291AD8C1B2284666
:10578000FFF780FAFF280CD058B9D5F8B8128A680C
:105790003AB1C5F8D4028A68314628469047044693
:1057A00000E00324F088204307D12846FFF7AEFA33
:1057B00003E031462846FFF777FA204670BD704770
:1057C000004870478C17002070B50A78012302F05A
:1057D0000F054E78AB401B4CD0F81C58012E17D04B
:1057E00045EA0343C0F81C3800EB4210D0F8002B08
:1057F00012040BD4D0F8002B0B890979C3F30A03E8
:105800001A4344EA81410A43C0F8002B002070BDCE
:105810009BB21D43C0F81C5800EB4210D0F8003971
:105820001B04F3D4D0F800390D890979C5F30A05B2
:1058300089042B4341EA82510B432343C0F80039CA
:10584000E4E7000000800010D0F800196FF30A01AF
:10585000C0F80019D0F8041841F48071C0F8041899
:105860000020704770B50D460446C2F30721049826
:105870001E4601291BD0E06840F04000E060204651
:1058800000F032F8C6F307210029A16B26D021F4DD
:105890008031A163C5F30741012907D1A16841F017
:1058A0000601A160A16841F02001A16070BDA16B5B
:1058B00021F48031A163E1680A4A1140E160E168A6
:1058C00021F44011E160C0B2012803D1E06840F446
:1058D0008010E060204600F007F8DBE741F48031FB
:1058E000D7E70000BFFFBDFF08B500214FF0706291
:1058F0000091009B5B1C009393420CD80369002B22
:10590000F7DA0091016941F0010101610099491C38
:105910000091914201D9032008BD0169C907F5D161
:10592000002008BD30B54C780A78012300EB421204
:10593000012C2CD0D2F8004B002C0BDAD2F8004B03
:1059400044F00064C2F8004BD2F8004B44F08044AD
:10595000C2F8004BD0F83C580C7804F00F0403FA5E
:1059600004F425EA0444C0F83C48D0F81C480978FF
:1059700001F00F018B4024EA0341C0F81C18D2F853
:10598000000B19490840C2F8000B002030BDD2F8C6
:105990000049002C0BDAD2F8004944F00064C2F848
:1059A0000049D2F8004944F08044C2F80049D0F8D8
:1059B0003C480D7805F00F0503FA05F5ADB2AC4390
:1059C000C0F83C48D0F81C48097801F00F018B4022
:1059D00099B28C43C0F81C48D2F80009034908402A
:1059E000C2F80009D1E700000078F3EF007833EC4B
:1059F000D0F8001E21F00301C0F8001ED0F80418F2
:105A000021F00201C0F8041800207047D0F8001EF1
:105A100021F00301C0F8001ED0F8041841F0020183
:105A2000C0F80418002070472DE9F04F00250E46FD
:105A3000044617462846294604EB8002C2F80411A2
:105A4000401C0F28F8D3C3F307405FEA0009204643
:105A500016D0806B20F40012A263A06B40F40022E9
:105A6000A263084688462146C4F8000EC7F3072003
:105A7000012817D00846D1F8001841F0030118E0BA
:105A8000D0F8040840F00202C4F80428A06B40F4E7
:105A90000012A263A06B20F40022A263A06B20F48A
:105AA0008022DDE7300E0846D1F8001801D041F021
:105AB0000101C0F80018102100F087FA00B101259B
:105AC000204600F066FA00B101254046C4F810886F
:105AD000C4F81488C4F81C8800214FF0006B4FF004
